:100000006F20906613000000130000001300000032
:100010001300000013000000130000001300000094
:100020001300000013000000130000001300000084
:08003000130000007300100032
:1000380000000000000000006C2200007022000098
:1000480000000000002E000000000000000000007A
:10005800022E0000042E0000000000000000000036
:10006800062E000000000000082E0000000000001E
:100078000A2E00000C2E00000E2E0000102E00008C
:10008800122E0000142E0000162E0000722200000E
:100098001A2E00001C2E00001E2E0000202E00002C
:1000A800222E0000242E0000262E0000282E0000FC
:1000B8002A2E00002C2E00002E2E0000302E0000CC
:1000C800322E0000342E0000362E0000382E00009C
:1000D8003A2E00003C2E00003E2E0000402E00006C
:1000E8002A2C0000B8020000442C0000482E000012
:1000F8004A2E00004C2E00004E2E0000502E00000C
:10010800522E0000542E0000562E0000582E0000DB
:100118005A2E00005C2E00005E2E0000602E0000AB
:10012800622E0000642E0000662E00000000000011
:080138000000000000000000BF
:10014000397101436EC619A0397141536AC866CA34
:1001500062CC5ECE19A0397101535AD056D252D416
:100160004ED64AD826DA22DC06DE3301614082828E
:1001700041114AC026C222C406C68282B24D410144
:10018000024D924C224CB24B4101024B924A224A00
:10019000B2494101024992442244B2404101828065
:1001A0003D432A876373C3029377F700BDEFADE544
:1001B000937606FF3D8ABA960CC34CC30CC74CC756
:1001C0004107E36BD7FE11E28280B306C3408A0683
:1001D0009702000096966780A6002307B700A30643
:1001E000B7002306B700A305B7002305B700A30493
:1001F000B7002304B700A303B7002303B700A3028B
:10020000B7002302B700A301B7002301B700A30082
:10021000B7002300B700828093F5F50F9396850011
:10022000D58D93960501D58D61B7939627009702DA
:10023000000096968682E78086FA9680C1171D8F09
:100240003E96E374C3F8A5B7EFF29FF20111AA84BA
:100250002E840945854502CA02CC231E010002C630
:1002600002C8EF20107AE082370400404C081305E2
:100270000440E484231D0100231B0100EF20507A79
:100280000546854513050440EF30A0019307D012C1
:100290007C8689475C87680085473EC8EF20B0664A
:1002A000854513050440EF20507EB7E700E009675D
:1002B00023A2E7100561F9BD411122C637040040B1
:1002C000854513050440EF20F07E45C5854513059F
:1002D0000440EF20B07F372700209306879F9022AD
:1002E000894763F8C70890328D45DC326315B60440
:1002F00013074044B387E702370700201307474A34
:100300008146BA9703C807006305D806A8273E862A
:10031000014709A88345360205071377F70F8505BE
:10032000A301B6020506E317E5FE850693F6F60F70
:1003300093870711D1BFA545631DB602130540443D
:10034000B387A702370600209305464A03C3660019
:100350001307879F81461305464A094E8D4E130F9A
:100360004044AE9783C5470285052382B7026316D2
:10037000D30032444101730020307C336374FE04A7
:100380001C276391D7055C278145B387E703AA97AC
:1003900083C207006388B20283CFA7003E8801466C
:1003A00009A88348380205061376F60F8508A301CD
:1003B00018030508E397CFFE850593F5F50F93879E
:1003C0000711C9BF850693F6F60F19074DB75821D7
:1003D000A1466305D700FC256395D700A1471CA261
:1003E00082809D466304D7006394D7009D47C5BFB4
:1003F0008D466304D7006394D7008D47CDB7A546DB
:100400006304D7006394D700A547D1BFFD57C1BF90
:10041000EFF29FD3B72400209384849F41110144BD
:10042000138B3400994B138C440093890189130575
:100430004006EF20707005041374F40F2145331546
:100440008500EF20706F0145EF10C0080149014A97
:10045000930C40065A85EF10E00C19E5050A137A53
:10046000FA0F63E44B050149050942090545135993
:100470000901EF20706CE31F99FD9547E3F987FAB6
:10048000594531A09547E3F487FA1305500441011B
:10049000C5B99547E3FD87F813056004CDBF9547BF
:1004A000E3F787F813057004DDB7938501C962850A
:1004B000EF10203461F9C8200949894523812401BE
:1004C000EF10A04379F5154523812401EF20D06674
:1004D000C8209306E10013060040CE85EF1080355A
:1004E0005DFDCE85138501C91386140003C959002B
:1004F000F93DC820CA85EF10A04351D99547E3F8CC
:1005000087F21305B00F61B7EFF21FC4130A40441E
:10051000330A4503B70900209389494A2A8CAE8AD9
:100520008144014413890189894B338B49018347F5
:10053000390003472900A207BA976350F41CB30798
:100540008900983363127703DC231147637BF7003C
:100550002300EB00B30789009C233E9442044180B2
:10056000F9B72300FB00FDB79146E317D7FE63867A
:10057000E418D4330D476392E616F823854663EFFB
:10058000E612F83363ECEB12631FD70A93070011EE
:10059000B387F402D297CE97D8A381460146A685A9
:1005A0005685EF10B026B30789009C2313088008F6
:1005B000130720223E9493070011B387F402834867
:1005C000290042044180814601451143154E930E96
:1005D000100233880403D297CE973307EC023A987F
:1005E0003307890010336308660A6376140B0C2303
:1005F0002E94420441806318C60950332C23034FC4
:100600004700220693F2F5007A96E2054206E1855C
:10061000834F3700418263D305047823338FA700CB
:10062000B305A8002300EF02B827A1058605CE95E3
:1006300005070505A3055F00A307FF01D2A1B8A721
:100640001375F50F71BFE31077F793070011B387A8
:10065000F402D297CE972382770181B73387D700F0
:10066000A3045702A306F7033307D8004107060780
:100670004E9732AB03C78702850693F6F60F050740
:100680002384E702B1BFE31DD6F510277833220695
:10069000518FFAA3B1B78547639EF6009307001107
:1006A000B387F402D297CE97D8236315D7007D572E
:1006B0002381E704850493F4F40F95BD930700119B
:1006C000B387F4027D57D297CE97D8A3B30789009A
:1006D0009C233E9442044180F1BF13070011B38470
:1006E000E40213074044B7070020330CEC02269CB9
:1006F0009384474AE294FD57DCA0014551B483C678
:10070000018995476397F618138701891433854744
:100710006391F6183423A547639DF6163433994741
:100720006399F61693060011130840443308050335
:10073000B70800201386484A011122CE26CC4ACAA7
:100740004EC852C656C4B386D5025AC25EC091473F
:100750000143814E014F014E9388484A1144C2968D
:100760003696835366000148930F000793040008F0
:10077000930200092149C149130A0002854A63E036
:100780007704A147631AF30E93070011130740443F
:10079000B387F5023307E502BA97B385F80083C73C
:1007A000250481E785472381F5047244E2445249D8
:1007B000C249324AA24A124B824B05618280B3067B
:1007C000F70094228507C20793FBC60013FB36008F
:1007D000C18393F6060F638D8B02638B2B076395A2
:1007E0000B026393560263010802B386EE0336934D
:1007F00042031353030163090E008346E60389E6AF
:10080000230F5603A30FC603DA97C207C18385BF20
:10081000638BF60363EBDF00E5FAB306F70003C86A
:100820000600611813381800C5B763899600E39D68
:1008300056FCB306F70083CE0600F9B7B306F700FF
:1008400003CE0600D1B7B306F70003CF06006DBF95
:10085000638C3601E39A46FBE30808FAB306F70017
:100860009422A300D6044DB7E30008FAB306F700BC
:1008700094222300D60449BF93070011B387F502E1
:10088000930540443305B502AA97C6972381070410
:1008900029BF8280EFF2DF8A93074044B30BF50251
:1008A000B70400201389444A4111AA892EC4814DFE
:1008B0009384444A930A00115E99034D09005E8AAD
:1008C000154C630C0D06034409003304A441137452
:1008D000F40FB30C540333874C0126977A2331C7A6
:1008E000DE9C13876C0026972245BA861386018901
:1008F000A2853AC6850DEF10E06B93FDFD0F3247E0
:100900000DE9A285330454034E85D53B13866C0450
:10091000269613850189529426946E20EF10E02EBE
:1009200013854C082695EF2040347D1D137DFD0F67
:1009300049BFE37BBCFB130D80046A8541016FF066
:10094000FF83130740443305E50293870189B033E1
:10095000BC23B706002022069386464A3E9693851E
:100960000189814709431148254E954E36958548A2
:1009700063C4C700014582803387F500034F070039
:100980001433FA97C207C183639A6600582363F54C
:10099000E80023001501E9BF18A1D9BFE39A06FDBD
:1009A0005833E317C7FD3387F5001433E38206FDA0
:1009B000E3D0C7FC034F0700FA97C207C183E39453
:1009C000D6FF3423139F8601135F8F41E35D0FFC35
:1009D000BD8A34B53433034F470074B5543378239C
:1009E000A2062300E5023825FA9656A9050738A580
:1009F0005DBFEFF24FF6372400209307849FC83382
:100A0000411181372A8955ED93870189EC2313041D
:100A1000849F138A018991C5482013860189EF00BC
:100A20003068938701C9EC27138901C991C5482013
:100A300013860189EF00D0668345F90091C54820EF
:100A400013860189EF00D0658345090191C54820CF
:100A500013860189EF00D064954948201306E10010
:100A600093850189EF10C0652A8929E503472A008B
:100A7000914763EFE70278A081498544114A7C20C1
:100A800063E197044820214693F5F40FEF10A0602E
:100A900001CDFD1485091545C20493F9F90FEF2026
:100AA000B009C180636D3A018504C204C180C1BF31
:100AB0007CA0D9B7FD1993F9F90FE39009FA13094E
:100AC000E00F4A8541016FF04FECEFF2CFE89C2137
:100AD0004111B3D7A740858B95C3372900209307D1
:100AE000899FAA85AA84C82370001309899FEF10E3
:100AF000E0542A8439E51C87858B81E71304E00FD5
:100B000089A0034549004146A685EF1020562A8456
:100B10000DE9A949034549007000A685EF10005270
:100B20000DE51C8705041374F40F858B81C7E3134F
:100B300034FFE9B7A947E303F4FC1C865944858BCD
:100B4000D5FF228541016FF04FE42A84DDBFEFF22B
:100B50008FE09C2141111304E00FB3D7A740858B90
:100B6000C1C7372900209307899FAA85AA84C82373
:100B700011461309899FEF1000522A8435E5294553
:100B8000EF20807BAD49034549007000A685EF103A
:100B9000E04A31E91C8705041374F40FC18B9DEF03
:100BA000E31334FF034549005146A685EF10004C7E
:100BB0000144AD49034549007000A685EF10004887
:100BC0001DE11C8705041374F40FC18B95C3E31357
:100BD00034FF1C86858B91C7554531A0A947E31387
:100BE000F4FC1305E00F2A84228541016FF0EFD950
:100BF000A947E308F4FEF1BFEFF28FD7B727002033
:100C00002E842E86AA8503C5C79FEF10204311E9C5
:100C10001C3013F7270011E713F547003335A00008
:100C200005056FF02FD7EFF22FD29947B307F502E2
:100C3000372400201309849F4111AA892E8B328A00
:100C4000A9441304849FAD073E99DE8A938501C9A8
:100C50004A85EF00103A11C9FD1493F4F40FFDF426
:100C60001305500441016FF0AFD19944B384990248
:100C70002949A294CC24A834890593F5F50FEF00F7
:100C8000D0473DE1194933892903DC2415458907FB
:100C90002300FB00EF20406AA944138B01892299AD
:100CA0000345B9009306E10013060040DA85EF0022
:100CB000703839E1528693850189138501C903494A
:100CC0005B00EFF0CFF09947B389F902A9444E9445
:100CD0002834CA85EF00D04551D5FD1493F4F40FA4
:100CE000E5F813059004BDBF7D191379F90FE313DF
:100CF00009F813056004BDB7FD1493F4F40FCDF0AB
:100D000085B7EFF2EFC3130D0011338DA5039305E3
:100D10004044B70700203289368C8549094B8D4BFA
:100D20003305B5026A95138D474A2A9D034A0D047F
:100D300083443D04834A1D04D28D33844D41137492
:100D4000F40F834C3D0463FABA0133849441333485
:100D5000800023028D046FF06FC2639F3D016286A5
:100D6000930530054A85EF20806033948D0005E1BE
:100D7000850D93FDFD0FD1B763906D0362869305DA
:100D800090034A85EF20A05E65D5339489003344F3
:100D90009401A3018D04E9BFE39C7DFD6286930568
:100DA0007004C5B7EFF2CFBCAA86130840442E8565
:100DB000B285130600113388060337070020930716
:100DC000474A41111307474A3386C5024296B297F4
:100DD00003C8E70303C637046300080483C7F703A7
:100DE000D0865C868947130640447C8793070011B0
:100DF000B386C6028548B387F5023388D7003A9890
:100E000003462804631D16019306E1007000EF10ED
:100E1000401D41016FF00FB850868547E9B7930533
:100E2000F00F0145E317B6FE9387A703B697034576
:100E3000980234877000B305F700EF005038D1BF37
:100E4000EFF28FB0AA89AE84EFF00FEC2A8A35E971
:100E500093870189EC2391C5138601892685EF00CC
:100E60003024A6854E853D34938701C9EC2713892C
:100E700001C991C5138601892685EF00702283453B
:100E8000F90091C5138601892685EF0070218345FD
:100E9000090191C5138601892685EF007020130989
:100EA000404433892903B70A0020938A4A4A0144FF
:100EB000930B0011054C330B590183470B006365FD
:100EC000F40052856FF0CFABB3077403CA97D6977F
:100ED000D82363188701A38107042286A6854E853F
:100EE000D13505041374F40FC9BFEFF26FA5B72B0A
:100EF000002003C58B9F797113848B9FA12B05471D
:100F00002A8D6318E50A08A0A3020400EFF04FD071
:100F10002A8D59E918308D466319D7004C20483086
:100F2000053709E90D4718A029A8A546E31CD7FEF7
:100F3000C934C5BF5947594D6305E50089471CA011
:100F40002A8D14200947637CD71C18308D46443005
:100F5000631FD718130B4044338B6403B70A002078
:100F6000138C4A4A0149938A4A4AB3078B013EC609
:100F7000BE8C9307CB015ACA3ECE03C70C006370E8
:100F8000E91A130700113307E90293064B08014AD7
:100F9000BA96B387DA003EC8D247B309F700F247E2
:100FA000D699BA973ECC75A05947E30CE5F80947A6
:100FB0009DBF41F944307D46814513858B9FEFF0FD
:100FC0002F9E13054044B384A40237050020130567
:100FD000454A1306404481452695EFF06F9C95B72E
:100FE000338C490183464C0203460C0263E0C6067B
:100FF000B3F6C602E2470345BC0013860189B385F8
:101000004701D6952302DC029306E102EF00D016D9
:101010002A8D39E90356E1024245938501892388E7
:10102000C910EF10104B83C6490005476390E602D4
:101030008356E10213860189CA852685D93103C703
:10104000490409C74C204A862685A93B050A137A1C
:10105000FA0F03C7A900E365EAF859476301ED0CED
:1010600005091379F90F11BFD947630AF50A9306E9
:10107000E002E31DD5FC8345BC00482093E505084C
:10108000EF00500D83C61C00230E0C00254685067C
:1010900093F6F60FA380DC00E37AD6FA7D4681450D
:1010A00013858B9FEFF0CF8FEFF08FB62A8D15E968
:1010B0008345BC00482093E50508EF00B0093245A0
:1010C0008547130640448145A3800C001CA0A30261
:1010D0000400EFF0EF8C4C2026859D332A8D0D47C0
:1010E00009C5D947E304FDF6094718A085B7A54609
:1010F0006317D70293094044B389340337090020AA
:10110000130A494A1309494A4E9A03474A02834639
:101110000A026379D700014B78206365EB164561BD
:101120006FF0CF853377D7022820938A0189230275
:10113000EA0285262830852E0345BA009385C90129
:101140009306E10213860189CA95EF00F0022A8D09
:1011500079F103C70A00014CD54CA306E102994975
:101160008D4AB70B0050054B7420E376DCFA930DE3
:101170001C0013FAFD0F9305D1025285EFF0FF9486
:10118000D9472A8D6314F504330C3C038346D102FE
:10119000B31DBB0193CDFDFFB3FDDD00130640443D
:1011A0008145A306B1033307840148271307404450
:1011B0003305E5024A95EFE0BFFE13057C001946B2
:1011C00081452295EFE0DFFD528C79BF1305400683
:1011D000EF2080169305D1025285EFF05F972A8D9C
:1011E000631D9507B3073C038546A297F4B3A14658
:1011F000B4B723864701B30D3C039385018952851B
:10120000E53AA29D2385AD0003C59D00592403C581
:10121000AD00512C3C3099C783C71B0093F7B70F23
:10122000A380FB00B30D3C03628513868D0093857C
:101230009D002296A295C53A2A8DA29D21E103C761
:101240008D006319570183C5BD0003C5CD00CD3E98
:101250002A8D3DF9A3835D0185BF8346D102B31D6D
:10126000BB0193CDFDFFB3FDDD00B3063C03A30638
:10127000B103A296F432E39966F5B5BF8947A3831B
:10128000FD0099B79947B304FB028D46A294F8304C
:101290006310D7109424639DE60E83CCC40093079B
:1012A0004044814AB38BFC0293874B085EC8B30D60
:1012B00079013ECC03C70D0063FCEA0C1307001153
:1012C0003387EA02E247014AB386E700B307D90051
:1012D0003EC6C2479386CB01B309F700B387E60049
:1012E000CA993ECA79A0B386490103C7460203C61C
:1012F0000602636DC7063377C70288342382E6028D
:10130000492AA8244D223C3099C7370700501C3386
:1013100093F7B70F1CB3D2479306E10213860189F6
:10132000B3854701B3874901A837CA95EF00C06468
:101330002A8D39E90356E1023245938501892388D4
:10134000C910EF10101983C6490005476390E602E3
:101350008356E10213860189D68566855D3203C70F
:10136000490409C7AC34568666852D3C050A137AB4
:10137000FA0F03C7A900E368EAF659476309ED00CD
:10138000850A93FAFA0F3DB75947E311E5FE594D27
:10139000050B137BFB0F49B3370700501C2393F752
:1013A000F70B1CA31C3393F7B70F1CB37E3BC2078C
:1013B000C18393F7F7BFC207C1837EBB8280EFE290
:1013C0003FDBB707002003A74700B747950893877F
:1013D000074009456300F702B7E7B8059387078020
:1013E00005456309F700B777DC02938707C06315EB
:1013F000F7000145EF10905B85450565EF10B05C87
:101400006FE05FD9EFE2DFD6854737040050631BFA
:10141000F50299471CA02945EF10B06E930790F88C
:10142000230004001CA0930780045CB4B7270020AD
:10143000938787A11CCCB7270020938787A55CCC16
:101440006FE05FD599471CA02945EF10906B2300F2
:101450000400FDB7370700507C23858B85C3854783
:101460007CA354338147858A99CA854709C989472E
:101470006306F50018338547058B11C389473E8500
:101480008280B7070050C8330581134515000589D0
:101490008280370700503C331375F50793F7070830
:1014A000C98F3CB3828085476317F500EFE25FCCBC
:1014B000E5356FE03FCEB707005098231367070468
:1014C00098A398331367470098B3FA3B1367074014
:1014D000FABB8280EFE2DFC92A8401455D3F6D3DA2
:1014E000854763EC8700370700501C3393E72700DC
:1014F0001CB311E82D45EF103064370700501C3342
:1015000093F7D70F1CB30945EF101063B7070050CE
:10151000F823058B11C7D833058B19C30547F8A3EA
:101520006FE05FC7370700505C33858B85CBEFE2F8
:101530003FC41C33858B91E72A84A13708A011E1B1
:101540009D37B7070050983301451367170098B3CC
:10155000FA3B13674700FABB6FE0DFC3594582804F
:10156000EFE29FBEB7070050A38DB702416A2A8BF6
:101570003289238FB70293594500814437040050C4
:10158000894B394CA94AA54C7D1A230C64032303CB
:101590007401130D803E7C20898B91EB7D1D420DE3
:1015A0000545135D0D01EF10D055E3160DFE230C1C
:1015B00004027C20898B81E71305E00F9DA87C3015
:1015C00093F70704B5EF7C3093F7F70F13F5F700A7
:1015D000630A850763145505630909066306490113
:1015E0007D19420913590901FD1493F4F40F514573
:1015F000EF1030517C20858B91CB1305800CEF10C0
:1016000050501C30858BA9C785477CA0850493F476
:10161000F40FE39C54F71305000221A8638D990190
:10162000B5476385F9008547E398F9F869D11365F3
:1016300005026FE0FFB49D8B0D47E399E7FE45BFC0
:101640000145C5BF1305E002EDB71305A002D5B7EC
:101650005945C5B7EFE25FAFAA89B28413054006CA
:101660002E89EF10104A99C02390040037040050CF
:10167000A147896A5EBC13860A7181451305000D76
:10168000C535631405149147A30DF402372B0020D0
:10169000230FF40293078BA5E223130B8BA563089A
:1016A000040E6306090E8387070063C20706CE8B0C
:1016B000C20993D90901370A0050938A0A711305A8
:1016C0004006EF101044DE8763733401A287231EA7
:1016D000FA0281470357CA036393E7108345EA037D
:1016E00056864145B53D75E18347EA0393C74700F8
:1016F000230FFA028357CA031D8C4204418091C410
:101700008357CA039A20BA979EA055F849A0372B51
:101710000020370A0050938A0A71130B8BA1FD1920
:1017200013054006EF10F03D8345BA0356861305B6
:1017300000093D3559E98347BA0393C74700A30D14
:10174000FA0203578A00A2876376870083578A00CC
:10175000C207C1831D8C4204418081C49A203E97F8
:101760009AA0014793160701C1826392D7063E995A
:1017700083578A00C207C18399C783578A00B3F78A
:10178000F90091E351FCB7070050239E07021305AF
:101790004006EF101037B7070050DE3F1305000971
:1017A000C207C18391E3414509661306067191455D
:1017B000453B01ED370700505E3FC207C18391C72B
:1017C0001E27C207C18391C35D456FE07F9BB306AF
:1017D000EB009022B306E900050790A261B78346AB
:1017E00009003307FB008507C20714A30509C1835D
:1017F000D5B5EFE2FF9713848181A14718401CA162
:10180000B7270020938787A598C35840AA84411121
:10181000D8C308211306E1002E892D3D09E983472D
:1018200079007A209CA03C8763F3E7005D45410185
:101830006FE05F96EFE23F9213870181B289104318
:10184000584337240020930784A5411190C3D8C37F
:1018500036862A8A2E8936C6F53B21E1B2461387A1
:10186000018172238E225D4563E9C502034639007A
:1018700083452900930784A522064D8EB28563F324
:10188000C900CE85104358438EA290C3D8C39A2274
:101890003686CA85FAA35285753B41016FE0FF8EFB
:1018A000EFE27F8B9387018203AA07003724002091
:1018B00083A94700130484A54111B28413E90530BC
:1018C000232044011306E100A685AA8A23223401BD
:1018D00023112401413319ED9C201306E10023203C
:1018E000440123223401A68556857C8723112401D7
:1018F0007EA08D3341016FE05F89EFE27F87138720
:1019000081821443B72700205843938787A594C347
:10191000AEA3AE84D8C3014681452D3B2A8411E590
:101920002685853E1545EF10302122856FE09F8684
:10193000EFE21F84138701831443B7270020584325
:10194000938787A594C3AEA3D8C3014681451933B5
:101950006FE05F84EFE2DF81138781801443584397
:10196000B7270020938787A5D8C3CEA394C3014689
:101970008145CD316FE01F82EFE28FFF2E848C21F5
:101980004111328913650509014636C6D13EAA8444
:10199000B24615E1B70700509227B725002093857E
:1019A00085A14206418292A24A85EF10D01D1C20DB
:1019B00093C747001CA0268541016FE0AFFDEFE211
:1019C0002FFBAA843725002041112E84130585A5FD
:1019D000B285368636C6EF10101BB246B7070050E8
:1019E0000146D6BF0C2013E50401EFF07FB709E5EF
:1019F0001C2093C747001CA041016FE0AFF90346CC
:101A0000C51019E609458280094561616FE0EFF76D
:101A1000EFE26FF4B72900205D71AA84938589A94C
:101A200013050508138489A9EF10802571DD1309BA
:101A300001011306E003938524044A85EF10B014D6
:101A400083C73404050499E3138489A9BC86B48749
:101A50000346A101AC84B3B6F6002285EF10602DD9
:101A600083576102835641020346210283550102D6
:101A70006886B3B6D7002285EF10A02B68874A8707
:101A80004A858147814505481146142F83489701AF
:101A9000A2969422B3F6160191C6B316F800D58D1E
:101AA00093F5F50F85070907E391C7FE4A8781473C
:101AB0000148854821468346070203431702A29640
:101AC0009422B3F6660099C6B396F80033E806018F
:101AD0001378F80F85070907E39FC7FC7C00094EC0
:101AE000130FE0071303F007930E10F876258358C1
:101AF000C50033871641B34FC7033346E703039747
:101B00000700635B170923901701C69633C7C60306
:101B10009623998E1397060141839318070193D852
:101B20000841B386CF4023901701B30FC04063D95B
:101B3000F80732979AA303970700330767023347E2
:101B4000D702420741876354D7072390D7019A23CE
:101B5000890721051307F707239FE7FEE318F9F824
:101B60000317C1009306F003894763D6E600932765
:101B7000170C93C717000317E1009306F00363CF18
:101B8000E60293E787009205DD8D938701878CA39A
:101B9000A3800701014595BDE3D9E6F696A3B5B745
:101BA00063541601118F79B72390070069B7634416
:101BB000E3009AA369BF2390670051BF9306000C0E
:101BC000E3D3E6FC93E747007DBFEFE26FDA053D24
:101BD00001C501456FE00FDC13850187E5BF0D816D
:101BE00028A208228D470D896318F50013F57500AA
:101BF000651513351500828085476316F50013F5CA
:101C0000F5004515FDB77915EDB7EFE26FD38D6798
:101C100079719387C7443EC68D6793878743AA8AA5
:101C2000AE893284FD5CFD5DFD567D5D014F8145D1
:101C3000014E814E01490145014301488144FD584F
:101C4000014C014A014B854B8D4F3EC863940900FE
:101C50000145B1AE83C20A0013D6220013D7420059
:101C600093F232000D8A63950202FD19C209850ABA
:101C700093D909018147630D0C0669FAA947631CD2
:101C8000F704050C8504137CFC0F93F4F40F7DBF5F
:101C900083C71A0063987201890AF919C20993D996
:101CA0000901D1BF83C32A00A2039E976385F20175
:101CB0008D0AF519E5B783C23A0083C34A00ED19CE
:101CC000C202E203B3E27200C209B3E7570093D93C
:101CD0000901950A4DB7B147E31AF7F6FD147D1CCB
:101CE00093F4F40F137CFC0FE3D214F7FD58B9BF43
:101CF0006304761B01CE8942E31A56F46302772B04
:101D000063000720E314C7F4CA9771AC21073D8B29
:101D10001146E36FE6F242460A07329718430287FC
:101D200063070F041C20858BB9C3330F68021306A9
:101D300084010147B142137FFF0F9377F70F63FED2
:101D40006700B307E500C207C18393D337009D8BBB
:101D5000B397FB00230076001CB205070906E31EBB
:101D600057FC230EE40363E36B0693E545009317EA
:101D70000801C18363CF0D041820058B05C3B38D03
:101D8000B7032316D4012317C4012305040193E5E7
:101D90001500AA9D2314B40163D20C04634E0D04F4
:101DA00018200D8B631AF705338DA703230904034D
:101DB0002A9D2318A403B3876702014FFD5CFD5DD4
:101DC0007D5D3E9542054181014949B593E5C500D8
:101DD00079BFE3C50CFC1820058B69D3B38C97033E
:101DE000231AD401231BC4012309040193E5250010
:101DF000AA9C231894015DB7E3CF06FA18200D8B37
:101E0000E31B77FBB386D702231CD403231DC40333
:101E1000230B0403AA9656B8FD5671BF850493F4AC
:101E2000F40F63977701050B620B135B8B4169BF5E
:101E300091E7050A620A135A8A4179B70947E38A8A
:101E4000E7FE0149054C19B5FD1493F4F40F63D373
:101E50001401FD5863070A007D1A620A135A8A4169
:101E6000F5B336D646D47AD276D01ACE72CC42CAE0
:101E7000E3000BDE7D1B620B2286135B8B418533F7
:101E80006316051281455248624E7243825E125FAC
:101E9000A258B2568D4F5DBB2546E36BE6DA32465B
:101EA0000A073297184302871386B7FF1D47636EF0
:101EB000C7001307D0083357C700058BE31807D8AE
:101EC0002547E395E7D8054F51B3E39177D9E3DF91
:101ED00008D69398840193D888418DBB939E0701BF
:101EE00093DE0E01A5B3139E0701135E0E01B9BB6D
:101EF00013F8F70FA1BB1CB091BB13F3F70FB9B3E5
:101F00008DEC1947639CE7001C20F19B93E72700A9
:101F10001CA005094209135909010DBB6397C700AD
:101F20001C20F19B93E71700E5B71387C7FF63E613
:101F3000EB001C2093E73700E1BFE38C77FD1387AC
:101F400007FD63E2EB02E3060BFC1820058B71D35F
:101F5000131789011306000361876394C700BA8DC4
:101F60004DBFBA8C7DB713079003639DE700E30272
:101F70000BFA1C208D8BE39EF7F9131D8901135D6D
:101F80008D4141BF13078003E395E7F8E3030BF8A6
:101F90001C208D8BE39F77F793168901E18695BF0F
:101FA0000509B307F94013990701B5B70545456120
:101FB0006FE0CF9CEFE2CF9B138781833288104381
:101FC0005843B727002023ACC7A4938787A5D8C35D
:101FD000CEA39A223686C285FAA3EFF0AFE76FE070
:101FE0006F9BEFE2EF9813870184328810435843C8
:101FF000B727002023ACC7A4938787A5D8C3CEA357
:102000003686C285EFF00FE56FE0CF98EFE24F968E
:1020100013878184032807005843B727002023AC87
:1020200007A52206938787A5D18ED8C3CEA3B6A3D2
:1020300001468145EFF00FE26FE0CF95EFE24F935D
:1020400013870186B28610435843B727002023AC7C
:10205000C7A4938787A54111D8C3CEA31306E10077
:10206000B685EFF02FDF41016FE0CF92EFE24F90A6
:102070001387018514435843B727002023ACD7A406
:10208000938787A5D8C3B2A3CEA301468145EFF0BD
:102090006FDC6FE02F90EFE2AF8D138781861443E2
:1020A0005843B727002023ACD7A4938787A5D8C36C
:1020B000B2A3CEA301468145EFF0CFD96FE08F8D5B
:1020C000EFE26F89938781859843DC4337240020B2
:1020D000232CE4A4130484A5AA89AE8432895CC0AD
:1020E000EFF04FD711E99C204A86A6852310F9000E
:1020F0004E857EA0EFF00FD66FE02F890346C51006
:1021000019E609458280094541016FE00F88EFE239
:102110008F849384418741112A8423A0040023A241
:1021200004009385418713050508EF00703561DDD4
:1021300083473404850499E3938441878357E404F7
:10214000835604050346C4048355A404B3B6F600BD
:102150002685EF00103E835664058357840583551A
:10216000240503464405131A0501B3B6D700135AD4
:102170000A41268523164101EF00B03B9319050162
:1021800093D90941231731019306A4050147014959
:102190000545914590229C32269610227D8E19C6C7
:1021A0003316E500B367260113F9F70F0507890613
:1021B000E312B7FE8357C4078356A4070346840778
:1021C00083556407B3B6D7002685EF0090360347E2
:1021D000240485470D8B631DF7061307F00763542E
:1021E0004701788629A0130700F8E34CEAFE13079D
:1021F000F00763543701788729A0130700F8E3CC70
:10220000E9FE2A8742054185930700F86354F500EB
:10221000130700F8B247B7260020138686AD1CC20C
:10222000937719005CA293572900858B9355190069
:102230007CA28589BA874CB21396070141861307A1
:10224000F007938686AD6354C7009307F0079EA6F8
:1022500001455DBDEFD2DFF1553501C501456FD0B8
:102260007FF337250020130585ADD5BF73002030DF
:1022700001A00945EF00904E11C5EF00206D094502
:10228000EF00B04F7300203051C5EFD27FEE102128
:10229000B71401402A841346F6FF13850480058A8B
:1022A000A145EF00B060102013850480C145058270
:1022B0001346F6FF058AEF00705F10201385048037
:1022C0009305000209821346F6FF058AEF00105EAF
:1022D000102013850480930500080D821346F6FF35
:1022E000058AEF00B05C102013850480930500047C
:1022F00011821346F6FF058AEF00505B10209145CE
:102300001385048019821346F6FF058AEF00105AE0
:102310006FD05FE88280EFD2BFE5797185451145C6
:10232000EF00506C85452145EF00D06B8545414558
:10233000EF00506B85450545EF00D06A371401402A
:102340000546130504809305400402CA02CC02CE60
:10235000EF00D0559307C00FFC82C1473ECE4C081A
:102360008D47130504803ECCEF00D0418947FC82A5
:102370004C0893078004130504803ECE02D002D29D
:1023800002D402D602C602C8EF00D03F85450145FF
:10239000EF00B054894705443ED00810B1473ED401
:1023A00022D602D2EF00F0349307701168007C86C9
:1023B000408722C8EF00305545616FD0BFDDEFD2B6
:1023C000BFD8EF007071B707002083A54700896769
:1023D00093870771B3D5F5022545372900203704C7
:1023E00000200D4A130B444A930A0011854B114CEF
:1023F000FD15C205C181EFD03FE5EFE05FFC05456B
:10240000EFF04F807D4681451305899FEFD05FD95E
:1024100005661306465581451305444AEFD05FD83B
:10242000EF0020741309899FEF00C079ED358928EA
:10243000EFE0BFAB83471900E39C47FF9309444A91
:102440008144B3875403DA9783D767048D8B6396EF
:10245000770113854900FD3B1D22B3875403DA97AA
:1024600083D767048D8B6397470113854900EFF08D
:10247000CFF5193D850493890911E39484FD4DBF7F
:10248000EFD21FCF37250020130545AEEF00E07DCA
:102490006FD05FD0635EA00889C685476303F500EF
:1024A00005854205418195E19387E1879A233A9515
:1024B000420541858AA31387E1871A239306C01238
:1024C0009387E187420741870DA0938701889A236C
:1024D0003A95420541858AA3138701881A239306FA
:1024E000C012938701884207418763D3E60096A311
:1024F0008A231307F00793170501C183636EF7065C
:102500001305F00F9DC30965130505713345F502E9
:1025100019817D154205418109CA1947AA8763734C
:10252000E50099471395070141811375F50F8280E6
:102530000DCD99C6FD576305F50089473345F50272
:102540004205418191E91387E1871E233385A74026
:10255000420541850AA385B7138701881E23338569
:10256000A740420541850AA385BF81E5239F0186D7
:1025700099B7239001888DB79307F00769B7630473
:10258000051AEFD25FBD031705004111635AE00E33
:102590009387C1879423E206E18663910610239F07
:1025A0000186854694A32A84131587018146014636
:1025B00081456185C535B70700202380A700030545
:1025C0002400814601468545F13503064400B707DE
:1025D0000020A380A700371501401336160093058D
:1025E000000413050580EF00702C938741889C231D
:1025F000A30701008314840093F7F70F1389418820
:102600009DE3830964008547639FF9003725002017
:10261000B54705469305F100130545AEDC87EF008D
:10262000406B230039018347090005476319F7020E
:10263000830764008DE7B7290020B9470546930555
:10264000F100138549AEDC87EF00A06805469305CD
:10265000F100138549AEEF00C0672300090083171E
:102660008400A5EB0306540037150140914513364D
:10267000160013050580EF00702341016FD0FFB0F5
:1026800011CF9387C18794230546E206E1866397BD
:10269000C600239F01862380070031B783172500DA
:1026A000635CF0009387D1879423E206E186E39C84
:1026B00006EE23900188F5B5E38707EE9387D1876F
:1026C00094230546E206E186E39FC6EC2390018849
:1026D000D9B713D7F441B98C998C93F4F40F6353A1
:1026E000F002AD47DC870149B7290020E30C99F6D9
:1026F00005469305F100138549AE0509D92B1379D9
:10270000F90FEDB79D47DC870149B7290020E30B9E
:1027100099F405469305F100138549AE0509552B3B
:102720001379F90FEDB78280EFD29FA49387E187E9
:102730009E2313842188C207C1876358F00E1C2092
:102740009384E187E207E18791EB37150140014669
:102750009305000213050580EF0050151C20054766
:10276000E207E187639AE700371501400146A1457A
:1027700013050580EF0090131C200947E207E1874D
:10278000639BE700371501400546930500021305DA
:102790000580EF00B0111C200D47E207E187639A26
:1027A000E700371501400546A14513050580EF00F8
:1027B000F00F1387C18718239387C187620761874A
:1027C00035E318207D176207618718A09A20854697
:1027D0007D17420741879AA0982362076187631A91
:1027E000D70018208D466207618763D4E600230076
:1027F00004009C23E207E18781EB1C20E207E187CC
:1028000063D407008D471CA0B707002093870700FB
:1028100098231377F70F09EFB70700400547DAB79A
:102820006FD05F971820050779BF23000400E9BF28
:102830009C23370700405EB7E5B7EFD27F939387BD
:1028400001889E2313843188C207C1876359F00E23
:102850001C200D4793840188E207E187639AE70013
:10286000371501400546C14513050580EF001004EA
:102870001C200947E207E187639BE7003715014009
:1028800005469305000813050580EF0030021C2063
:102890000547E207E187639AE700371501400146E3
:1028A000C14513050580EF0070001C20E207E18799
:1028B00091EB37150140014693050008130505808B
:1028C000EF00C07E1387D18718239387D1876207D3
:1028D00061873DE318207D176207618718A09A2061
:1028E00085467D17420741879AA098236207618732
:1028F000631AD70018208D466207618763D4E6000B
:10290000230004009C23E207E18781EB1C20E207FF
:10291000E18763D407008D471CA0B7070020938789
:10292000170098231377F70F11EFB71700400547EB
:102930002396E7826FD01F861820050771BF2300FA
:102940000400E1BF9823B7170040DDB7EFD2BF8086
:1029500037140140411113050480A3070100EF0063
:102960002073AA843725002005469305F10013053E
:1029700045AE39260146914513050480EF000073EA
:102980009C879DEB0546A14513050480EF0000726E
:102990000546C14513050480EF00407105469305C7
:1029A000000213050480EF006070054693050008DF
:1029B00013050480EF00806F9887AD47631AF70214
:1029C000371401400146A14513050480C525014681
:1029D000C14513050480D92D054693050002130552
:1029E0000480E925054693050008130504807D2D24
:1029F00098879D47631AF702371401400546A145A1
:102A00001305048065250146C14513050480792D11
:102A100001469305000213050480492D05469305E0
:102A200000081305048059259887B547631AF702F3
:102A3000371401400146A14513050480852D014648
:102A4000C145130504809D25054693050002130525
:102A50000480A92D01469305000813050480B925BB
:102A60009887B947631AF702371401400546A14514
:102A700013050480252D0146C145130504803D251D
:102A8000014693050002130504800D2501469305B8
:102A9000000813050480192D3714014093090480A0
:102AA000054989454E85C12BE31D25FFA6851305E4
:102AB0000480112D41016FD04FEDB71702409843AC
:102AC000B706FFF81367170098C3D843758FD8C3AC
:102AD0009843B706F7FEFD16758F98C39843B7065F
:102AE000FCFFFD16758F98C3D843B70681FFFD160E
:102AF000758FD8C337079F0098C7B746024003A712
:102B000006801367070123A0E680D843B706C1FFFC
:102B1000FD16D8C3D843D8C3D84313670740D8C3DA
:102B2000D843758FD8C3D843B7063C00558FD8C358
:102B30009843B7060001558F98C3984393166700D2
:102B4000E3DD06FED843B7160240719BD8C3D843D5
:102B500013672700D8C32147DC42B18BE39EE7FE11
:102B60008280EFD2EFE001118545054502CA02CC13
:102B7000231E010002C602C8692595679387F79155
:102B80003ECA4C089307803E370500403ECC492D95
:102B9000054685453705004029279307C0427C86B6
:102BA00085475C87680085473EC8B12B854537055A
:102BB0000040E12DB7E700E0056723A2E7100561BB
:102BC0006FD04FDDEFD2CFDA01118545114502CA32
:102BD00002CC231E010002C602C8252595673714C2
:102BE00000409387F7913ECA4C089307803E130537
:102BF00004803ECC352505468545130504805525C2
:102C00009307E0327C8685475C87680085473EC82D
:102C1000DD298545130504808D2DB7E700E0116798
:102C200023A2E71005616FD0EFD685453705004038
:102C3000512519C5EFF05FAF85453705004079256F
:102C400073002030411122C637140040854513051A
:102C500004808D2519C5EFF05FBE854513050480FE
:102C6000B5253244410173002030930700081EA5AA
:102C70009307B50023220500230505001CC18280AF
:102C80003825AA8709C72385070032858280054732
:102C900038A58146139506014181E376C5FE03D828
:102CA0006700DA23630407039843429708233387B6
:102CB000D50008A3FA238A27050742074183FAA310
:102CC0006314E500239307008506E9B72385070011
:102CD00082803825AA8709C723850700328582802C
:102CE000054738A58146139506014181E376C5FE67
:102CF00003D84700FA23930818006387E80003D33A
:102D000087006396680001E7238507008280338788
:102D1000D50008239843429708A3DA238A2705079A
:102D200042074183DAA36314E50023920700850676
:102D30005DBF13D835001378F80F9D89B3080501DE
:102D40009307F00F13F7F50FB397B70083C508008B
:102D5000A148B388E840ED8F93F8F80FB3D7E74068
:102D60006365160793051800130886FFC20742978C
:102D700093F5F50FC1831377F70F9D4E130FF00FE7
:102D8000214E39CB1308F00F63E8EE003308EE4014
:102D900033580F411378F80F13831500AA958C212F
:102DA0001373F30F3378B80033181801C297C207B2
:102DB000A108C18393F8F80FBA856373EE00A145AB
:102DC0000D8F1377F70F9A856DBF05453315C50035
:102DD0007D15E98FC207C18385C21307F6FF05463B
:102DE0003316E6004206418233F7C70011C7D18F80
:102DF00006064206418265FE3E85828001A001A052
:102E000001A001A001A001A001A001A001A001A0BA
:102E100001A001A001A001A001A001A001A001A0AA
:102E200001A001A001A001A001A001A001A001A09A
:102E300001A001A001A001A001A001A001A001A08A
:102E400001A001A001A001A001A001A001A001A07A
:102E500001A001A001A001A001A001A001A001A06A
:102E600001A001A001A001A097E1FF1F938181991A
:102E70001721002013010119170500001305C55F74
:102E800097D5FF1F938505181386018763FAC50040
:102E90008322050023A0550011059105E3EAC5FE34
:102EA0001385018797F5FF1F9385C5CC6377B50020
:102EB000232005001105E36DB5FEFD42739002BCB1
:102EC0008D42739042809302800873A0023097D2A3
:102ED000FFFF9382A21693E2320073905230EFF01C
:102EE000DFBD97F2FFFF9382C24D739012347300DF
:102EF00020305841032805004C4537060140930710
:102F000006403E979346F8FFB1C583250640F58DF0
:102F10002320B640D043F18ED4C31443B3E6060158
:102F200014C3184190479346F7FF758E90C7D0475A
:102F3000F18ED4C7144541466399C6009447D98E93
:102F400094C7D447558FD8C78280B6979443558F7E
:102F500098C382801C43F58F1CC38280B707014051
:102F60001387074083A70740584B698F09C77D8D9A
:102F70003335A000828001458280B707014023AA33
:102F8000A74082809C4513F7070113F8F70001C79B
:102F9000D8413368E80037270240145B3707000F39
:102FA000758F4DEB8546A382D18837170140631595
:102FB000E5009A2135839AA18E2113F7F50F39C3C5
:102FC00018418146854E3D4F930F80029302800445
:102FD000214E3396DE00B3F8C500631116039398B3
:102FE000260033131F011343F3FF3377E300B318B5
:102FF000180133E7E8006397F70750C98506E39A9D
:10300000C6FD18C11307F00F6375B704544121467C
:10301000854E3D4F930F800293028004414EB3983A
:10302000CE0033F715016392E8021317260001174B
:103030003313EF001343F3FFB376D3003317E800E5
:10304000D98E6395F703232A15010506E319C6FDFA
:1030500054C1828037170140E310E5F603C7518859
:1030600021DF81BFE39C57F810C949BFE39F57FC9C
:1030700023281501D9BFB71701406316F50083C790
:10308000518891C3B58108456D8D3335A00082808C
:10309000B7170140631AF50083C7518891C74845A7
:1030A00036054205418182804845E5BFB71701409A
:1030B0006316F50083C7518891C3B58119C20CC945
:1030C00082804CC98280B71701406316F50083C720
:1030D000518891C3B5814CC5828013F7C50F93F712
:1030E0003500B7050140BA9594458A073D47331727
:1030F000F7001347F7FF758F98C598453315F5000E
:10310000598D88C58280938781889443182181E6F0
:103110003C21920721A894430546639FC6023C21A7
:10312000103192076314D60093E707F8B7E600E082
:1031300093F7F70FBA962380F640854693575700CA
:103140003397E6005441A5C2938707048A07B7E680
:1031500000E0B69798C382808C4389466391D5027C
:1031600014313C216365D6008A06B6975DB7938615
:10317000E6038A06B69793F7F70F920775B7904361
:103180008D46631CD60014313C216364D60086064C
:10319000E9BF9386C6078606F1BF94439147E39E35
:1031A000F6F81C31BDB7938707064DB7B717024035
:1031B000D843B70640FFFD16758FD8C3D8435A05CC
:1031C000598DC8C3828099C5371702405C4B5D8D0D
:1031D00048CB8280B7170240D84B1345F5FF798D55
:1031E000C8CB828099C5371702401C4F5D8D08CF30
:1031F0008280B7170240984F1345F5FF798D88CF2D
:10320000828099C5371702405C4F5D8D48CF828020
:10321000B7170240D84F1345F5FF798DC8CF82808C
:103220001E2137370140130707C0C207C18363045B
:10323000E502370700406300E50213070740630C0F
:10324000E50037170040930607806306D500130793
:1032500007C06316E500BA2193F7F7F8D98FFA2172
:1032600093F7F7CFC207C183D98F1EA1DE215EB5C8
:103270009E211EB5B7370140938707C06314F50040
:103280009C251EB985475EA982801E2189C593E7CA
:1032900017001EA18280C207C183F99BC207C183A8
:1032A000CDBF5E2501C6DD8D4EA5828093C5F5FF9D
:1032B000FD8DDDBF1E294A25ED8F4205418189C75D
:1032C0006D8D3335A00082800145828093C5F5FF66
:1032D000C205C1810EA98280B707002083A74700DD
:1032E00037177A0013070720B3D7E70293F7F70FD2
:1032F0002387F1881307803EB387E7022396F1887E
:103300008280B7F700E0D8438146799BD8C303C7D2
:10331000E1883306A70290CBD4CB9843136707010B
:1033200098C398431367170298C3D843058B75DF7A
:103330009843799B98C38280B7F700E0D8438146D1
:10334000799BD8C303D7C1883306A70290CBD4CBCF
:1033500098431367070198C398431367170298C3EC
:10336000D843058B75DF9843799B98C3828093F58A
:10337000F50F2A966314C500014582801C21E38E57
:10338000B7FE0505C5BFB3C7A5008D8B3307C500C4
:1033900081E78D4763EDC700AA87637EE508942126
:1033A00085078505A38FD7FEE3EBE7FE8280937642
:1033B0003500AA8789CA942185078505A38FD7FE82
:1033C00093F63700C5BF9376C7FF138606FE63F0FA
:1033D000C70683A3050083A2450083AF850003AF22
:1033E000C50083AE050103AE450103A3850183A893
:1033F000C5019385450223A0770003A8C5FF23A23A
:10340000570023A4F70123A6E70123A8D70123AA85
:10341000C70123AC670023AE17019387470223AE91
:1034200007FF75B790419107910523AEC7FEE3EB07
:10343000D7FEE3E6E7F68280201D00004C1C00006A
:103440001C1E00004C1C0000481E0000A81E0000AE
:10345000DC1E0000E61E00004C1C00004C1C00009E
:103460004C1C00004C1C0000F01E0000F61E00006A
:04347000FA1E000040
:103474000101000000449508020100000000000062
:103484008006000200000400800600010000120013
:103494008006000309040400000500000000000089
:1034A4000009000000000000810600220000000066
:1034B4002109000200000100210A000000000000B0
:1034C4002301000000000000A00600290000020003
:1034D400A30000000000040023030000000000001B
:00000001FF
