:100000006F70601F13000000130000001300000059
:100010001300000013000000130000001300000094
:100020001300000013000000130000001300000084
:08003000130000007300100032
:100038000000000000000000745400008454000018
:10004800000000008E7100000000000000000000A9
:100058009071000092710000000000000000000094
:10006800947100000000000096710000000000007C
:10007800987100009A7100009C7100009E71000048
:10008800A0710000A2710000A47100008C5400004F
:10009800A8710000AA710000AC710000AE710000E8
:1000A800B0710000B2710000B4710000B6710000B8
:1000B800B8710000BA710000BC710000BE71000088
:1000C800C0710000C2710000C4710000C671000058
:1000D800C8710000CA710000CC710000CE71000028
:1000E800826D000028030000AE6D0000D67100008C
:1000F800D8710000DA710000DC710000DE710000C8
:10010800E0710000E2710000E4710000E671000097
:10011800E8710000EA710000EC710000EE71000067
:10012800F0710000F2710000F4710000000000009E
:080138000000000000000000BF
:10014000397101436EC619A0397141536AC866CA34
:1001500062CC5ECE19A0397101535AD056D252D416
:100160004ED64AD826DA22DC06DE3301614082828E
:1001700041114AC026C222C406C68282B24D410144
:10018000024D924C224CB24B4101024B924A224A00
:10019000B2494101024992442244B2404101828065
:1001A0003D432A876373C3029377F700BDEFADE544
:1001B000937606FF3D8ABA960CC34CC30CC74CC756
:1001C0004107E36BD7FE11E28280B306C3408A0683
:1001D0009702000096966780A6002307B700A30643
:1001E000B7002306B700A305B7002305B700A30493
:1001F000B7002304B700A303B7002303B700A3028B
:10020000B7002302B700A301B7002301B700A30082
:10021000B7002300B700828093F5F50F9396850011
:10022000D58D93960501D58D61B7939627009702DA
:10023000000096968682E78086FA9680C1171D8F09
:100240003E96E374C3F8A5B7011122CE0010232611
:10025000A4FE8327C4FEFD8B0547B316F70037E7DE
:1002600000E08327C4FE9583938707048A07BA9723
:1002700094C30100724405618280397106DE22DC7C
:100280008000AA872E872317F4FCBA872316F4FC74
:10029000232204FE232404FE231604FE232E04FC42
:1002A000232004FE85450945EF70603A8357E4FC3E
:1002B0002314F4FE8357C4FC2312F4FE231504FE1A
:1002C000231304FE930744FEBE85B7070040138541
:1002D0000740EF70A03905468545B70700401385F4
:1002E0000740EF70C0409307D002230EF4FC85470F
:1002F000A30EF4FC8947230FF4FC85472320F4FE6A
:100300009307C4FD3E85EF70E0188545B7070040B0
:1003100013850740EF70203C1305D00235370100EC
:10032000F250625421618280011122CE0010854575
:10033000B707004013850740EF70803CAA876384AD
:1003400007268545B707004013850740EF70C03C7E
:1003500003C701CB894763F8E724938701CBDC33DC
:100360002306F4FE938701CB98338D476315F70C72
:10037000230704FE45A0A30604FE8DA00346C4FE89
:100380000347E4FE8346D4FEB70700209385074E5B
:10039000BA879207BA979207130540443305A6021D
:1003A000AA97AE97B69783C74702850793F5F70FCD
:1003B000B70700201385074EBA879207BA979207AE
:1003C000130740443307E602BA97AA97B6972382E9
:1003D000B7028347D4FE8507A306F4FE0346C4FE96
:1003E0000347E4FEB70700209386074EBA879207BB
:1003F000BA979207130740443307E602BA97B697B5
:10040000BC270347D4FEE36BF7F68347E4FE85077A
:100410002307F4FE8346C4FEB707002013074044B9
:100420003387E6029387074EBA979C230347E4FE7F
:10043000E363F7F48DAA938701CB9833A547631440
:10044000F7160347C4FEB70700209386074E9307AD
:100450004044B307F702B69783C74702850793F670
:10046000F70FB70700201386074E93074044B307E2
:10047000F702B2972382D702A30704FE31AA0347EB
:10048000F4FE938601CBBA878607BA978607B6979C
:10049000F833894763FDE70E0347F4FE938601CBEB
:1004A000BA878607BA978607B697DC272306F4FE35
:1004B0000347F4FE938601CBBA878607BA9786076F
:1004C000B69798278D476314F70C230704FE45A0C1
:1004D000A30604FE8DA00346C4FE0347E4FE834644
:1004E000D4FEB70700209385074EBA879207BA97C4
:1004F0009207130540443305A602AA97AE97B69714
:1005000083C74702850793F5F70FB70700201385C8
:10051000074EBA879207BA979207130740443307EA
:10052000E602BA97AA97B6972382B7028347D4FE0A
:100530008507A306F4FE0346C4FE0347E4FEB7079F
:1005400000209386074EBA879207BA97920713073F
:1005500040443307E602BA97B697BC270347D4FE58
:10056000E36BF7F68347E4FE85072307F4FE834633
:10057000C4FEB7070020130740443387E602938781
:10058000074EBA979C230347E4FEE363F7F48347DF
:10059000F4FE8507A307F4FE938701CBFC230347F2
:1005A000F4FEE36EF7EC0100724405617300203045
:1005B000797122D60018232EA4FC232CB4FC232A04
:1005C000C4FC8327C4FDDC23A307F4FE832784FD3A
:1005D000FC272307F4FE0347F4FEA1476307F70057
:1005E0000347E4FEA1476317F700832744FD214733
:1005F00098A395A00347F4FE9D476307F7000347C0
:10060000E4FE9D476317F700832744FD1D4798A329
:1006100099A00347F4FE8D476307F7000347E4FE04
:100620008D476317F700832744FD0D4798A325A046
:100630000347F4FEA5476307F7000347E4FEA54719
:100640006317F700832744FD254798A329A0832734
:1006500044FD7D5798A30100325445618280011109
:1006600006CE22CC0010A30504FE13054006EF7051
:10067000801E8347B4FE8507A305F4FE8347B4FEBE
:100680002147B317F7003E85EF70E01C0145EF20CE
:100690001070231604FEA30704FE1DA8138531CB9A
:1006A000EF207078AA8789EF231604FE8347F4FEB3
:1006B0008507A307F4FE0347F4FE994763E1E702C9
:1006C0000545EF7040198357C4FE85072316F4FED5
:1006D0000357C4FE93073006E3F2E7FC11A00100C4
:1006E0008357C4FE89CB0347B4FE954763E3E70015
:1006F000ADBFD94719A29385C189138541CBEF308E
:10070000E047AA87A307F4FE8347F4FE91CB034793
:10071000B4FE954763E3E70089BF93075004F1A84F
:10072000938701CB0947B8A3938701CBD82393873D
:1007300001CBBC23BE853A85EF30A074AA87A307FE
:10074000F4FE8347F4FE95EF938701CB0947B8A3E6
:100750001545EF704010938701CBD823930784FE93
:10076000BE8613060040B70700209385070C3A8524
:10077000EF308049AA87A307F4FE8347F4FEB9EB64
:1007800011A80347B4FE954763E3E700F9BD93075B
:100790006004A5A0B70700209387070CDC3323056E
:1007A000F4FE138611CBB70700209385070C138541
:1007B000C189FD3B938701CBDC230347A4FEBA85A7
:1007C0003E85EF30E075AA87A307F4FE8347F4FE69
:1007D00085C711A80347B4FE954763E3E70071B5E9
:1007E0009307700419A80347B4FE954763E3E70035
:1007F000ADBD9307B00F11A081473E85F240624422
:1008000005618280797106D622D40018AA872E87C6
:10081000A30FF4FCBA87230FF4FCA30704FEA3057F
:1008200004FE231604FEE5AD8357C4FE13871700AC
:10083000B70700209387070CBA979823894763105E
:10084000F7080357C4FEB70700209387070CBA9731
:10085000D823914763F0E7028346F4FDB7070020F1
:10086000130740443387E6029387074EBA97114730
:1008700098A32DA00357C4FEB70700209387070C49
:10088000BA970346F4FDD823B707002093064044E7
:10089000B306D6029387074EB69798A30357C4FEB4
:1008A000B70700209387070CBA979C23139707017B
:1008B00041838357C4FEBA972316F4FE8DA5835750
:1008C000C4FE13871700B70700209387070CBA9759
:1008D000982391476315F7620347B4FE9147631568
:1008E000F7008347F4FEB9AD0357C4FEB7070020F5
:1008F0009387070CBA97D8338D476316F75A035777
:10090000C4FEB70700209387070CBA97F8238547E2
:1009100063E6E7540357C4FEB70700209387070C2C
:10092000BA97F833894763EBE7520357C4FEB7071A
:1009300000209387070CBA97F83385476311F704B3
:100940000346F4FD0347B4FEB70700209386074E25
:10095000BA879207BA979207130740443307E60213
:10096000BA97B6970547D8A30347B4FE8347E4FD7B
:1009700081460146BA853E85EF40202791A803575E
:10098000C4FEB70700209387070CBA97F83389474E
:100990006310F7040346F4FD0347B4FEB7070020D5
:1009A0009386074EBA879207BA9792071307404477
:1009B0003307E602BA97B6970947D8A30347B4FEB0
:1009C0008347E4FD81460146BA853E85EF40E0213C
:1009D000A30704FE0357C4FEB70700209387070C44
:1009E000BA979C231397070141838357C4FEBA9794
:1009F0002316F4FE230504FEA30404FE8357C4FE5D
:100A000013871700B70700209387070CBA9798231E
:100A100091476304F73EB70700209387070CBC2378
:100A2000C207C1830357C4FE6379F73C8357C4FEF2
:100A300013871700B70700209387070CBA979823EE
:100A40009547631DF72E0357C4FEB7070020938711
:100A5000070CBA97BC23E207E18763DF0716035749
:100A6000C4FEB70700209387070CBA97BC23034541
:100A7000F4FD0347B4FE0346A4FEBD8B93F6F70FC7
:100A8000B70700209385074EBA879207BA97920757
:100A9000130740443307E502BA97AE97B297B4B74D
:100AA0000357C4FEB70700209387070CBA97034586
:100AB000F4FD0347B4FE0346A4FEB433B707002099
:100AC0009385074EBA879207BA9792071307404457
:100AD0003307E502BA97AE97B297F4B70357C4FE4F
:100AE000B70700209387070CBA97DC23939607017A
:100AF000C1820357C4FEB70700209387070CBA973B
:100B0000DC33C207C183A207C207C1830345F4FDDA
:100B10000347B4FE8345A4FEB69793960701C182AE
:100B200037060020BA879207BA978E07130720224C
:100B30003307E502BA97AE97A1071307064E86075B
:100B4000BA97D6A30357C4FEB70700209387070CB4
:100B5000BA970345F4FD0347B4FE0346A4FEF4230D
:100B6000B70700209385074EBA879207BA97920776
:100B7000130740443307E502BA97AE97B297238034
:100B8000D7028346F4FD0347B4FEB707002013865F
:100B9000074EBA879207BA97920793054044B385E8
:100BA000B602AE97B297BC27850713F6F70FB707C3
:100BB00000209385074EBA879207BA9792071307CA
:100BC00040443387E602BA97AE97B0A78347A4FEA6
:100BD00085072305F4FE91A20357C4FEB707002042
:100BE0009387070CBA97BC230345F4FD0347B4FE73
:100BF000034694FEBD8B93F6F70FB707002093854D
:100C0000074EBA879207BA979207130740443307F3
:100C1000E502BA97AE97B297A384D7020357C4FEF2
:100C2000B70700209387070CBA970345F4FD0347E5
:100C3000B4FE034694FEB433B70700209385074EF5
:100C4000BA879207BA979207130740443307E50221
:100C5000BA97AE97B297A386D7020357C4FEB707D9
:100C600000209387070CBA97DC2393960701C18273
:100C70000357C4FEB70700209387070CBA97DC33ED
:100C8000C207C183A207C207C1830345F4FD03471E
:100C9000B4FE834594FEB69793960701C18237064A
:100CA0000020BA879207BA978E07130720223307CE
:100CB000E502BA97AE97C1071307064E8607BA97A3
:100CC000B6AB8346F4FD0347B4FEB7070020138696
:100CD000074EBA879207BA97920793054044B385A7
:100CE000B602AE97B29783C78702850713F6F70F50
:100CF000B70700209385074EBA879207BA979207E5
:100D0000130740443387E602BA97AE972384C7029D
:100D1000834794FE8507A304F4FE0357C4FEB70778
:100D200000209387070CBA979C23139707014183F0
:100D30008357C4FEBA972316F4FEC9B18357C4FE85
:100D400013871700B70700209387070CBA979823DB
:100D5000930710026312F7080357C4FEB707002079
:100D60009387070CBA97FC33139707014187835683
:100D7000C4FEB70700209387070CB6979C27A207ED
:100D8000C207C187D98FC207C1878345F4FD0347D6
:100D9000B4FE93960701C182B70700201386074E61
:100DA000BA879207BA979207130740443387E50240
:100DB000BA97B297F6A30357C4FEB70700209387EC
:100DC000070CBA979C231397070141838357C4FEEE
:100DD000BA972316F4FE1DB10357C4FEB7070020CF
:100DE0009387070CBA979C23139707014183835776
:100DF000C4FEBA972316F4FE11B1034794FE85474B
:100E00006318F70E0346F4FD0347B4FEB70700204E
:100E10009386074EBA879207BA9792071307404402
:100E20003307E602BA97B697D82385476312F70CC3
:100E30000346F4FD0347B4FEB70700209386074E30
:100E4000BA879207BA979207130740443307E6021E
:100E5000BA97B6977D572381E70459A80346F4FD56
:100E60000347B4FEB70700209386074EBA87920760
:100E7000BA979207130740443307E602BA97B6972A
:100E80007D57D8A30357C4FEB70700209387070CEC
:100E9000BA979C231397070141838357C4FEBA97DF
:100EA0002316F4FEB9A00346F4FD0347B4FEB707CA
:100EB00000209386074EBA879207BA9792071307C6
:100EC00040443307E602BA97B6977D57D8A3035735
:100ED000C4FEB70700209387070CBA979C2313978B
:100EE000070141838357C4FEBA972316F4FE89A8ED
:100EF00001008347B4FE8507A305F4FE0DA0035748
:100F0000C4FEB70700209387070CBA979C2313975A
:100F1000070141838357C4FEBA972316F4FE035793
:100F2000C4FEB70700209387070CBC23BE86B70713
:100F300000209387070CBC33A207B697E346F78ED1
:100F40008347F4FE3E85B250225445618280797118
:100F500022D60018AA872E87A30FF4FCBA87230F86
:100F6000F4FCA30704FE230704FE231404FE035726
:100F700084FEB70700209387070CBA9798239547FC
:100F80006318F73E835784FE13871700B7070020C6
:100F90009387070CBA9798238547631BF73C8357C1
:100FA00084FE13872700B70700209387070CBA97A2
:100FB0009823A547631EF73A835784FE13873700AB
:100FC000B70700209387070CBA97982399476311B6
:100FD000F73A835784FE91072314F4FEA30604FE18
:100FE000230604FE231504FEC9AC035784FEB7078D
:100FF00000209387070CBA979C238D8BA303F4FEE4
:10100000035784FEB70700209387070CBA979C23E9
:10101000B18B2303F4FE035784FEB70700209387A8
:10102000070CBA979C23C19BA302F4FE834764FE7E
:1010300011476383E70E21476383E71A639F072401
:10104000034754FE930700096311F70C8347E4FE3E
:10105000DDC78347C4FE1397070141838347D4FE4E
:10106000C207C183B307F702139707014183835770
:10107000A4FEBA972315F4FE8347F4FEC9C30346C2
:10108000F4FD0347E4FDB70700209386074EBA87B7
:101090009207BA979207130740443307E602BA97BC
:1010A000B69783C7E703A1EF0346F4FD0347E4FDCA
:1010B000B70700209386074EBA879207BA97920720
:1010C000130740443307E602BA97B6970547238FC4
:1010D000E7020346F4FD0347E4FDB70700209386CB
:1010E000074EBA879207BA9792071307404433070F
:1010F000E602BA97B6970347F4FEA38FE702835739
:1011000084FE85072314F4FE39A0835784FE8507E7
:101110002314F4FE010041AA834754FE130700077D
:101120006381E706130700076344F700BDCB4DA0BA
:10113000130700086387E700130700096383E702CA
:1011400041A8835784FE85072314F4FE035784FEC9
:10115000B70700209387070CBA979C23A307F4FED8
:10116000B5A8835784FE85072314F4FE035784FE35
:10117000B70700209387070CBA979C232306F4FE39
:10118000B1A8835784FE85072314F4FE035784FE19
:10119000B70700209387070CBA979C23A306F4FE99
:1011A00035A8835784FE85072314F4FE035784FE75
:1011B000B70700209387070CBA979823A1476316B7
:1011C000F70085472307F4FE11A8230704FE39A082
:1011D000835784FE85072314F4FE0100E9A08347AA
:1011E00054FE41476387E700130700026388E70462
:1011F00059A8835784FE85072314F4FE8347E4FE31
:10120000C9CB835684FE8345F4FD0347E4FDB7074D
:1012100000209387070CB6979423B7070020138606
:10122000074EBA879207BA9792071307404433874D
:10123000E502BA97B2972380D704A1A8835784FE0A
:1012400085072314F4FE8347E4FEB1C7835684FE6A
:101250008345F4FD0347E4FDB70700209387070C9F
:10126000B6979423B70700201386074EBA879207D4
:10127000BA979207130740443387E502BA97B297AB
:10128000A380D70409A8835784FE85072314F4FE9E
:1012900021A0010009A8010039A0835784FE850719
:1012A0002314F4FE0100834774FE13970701418362
:1012B000835784FEBA972314F4FE0346F4FD0347D4
:1012C000E4FDB70700209386074EBA879207BA97C6
:1012D0009207130740443307E602BA97B697FE23F6
:1012E000035784FEE363F7D00357A4FEA147631DB1
:1012F000F7040346F4FD0347E4FDB7070020938697
:10130000074EBA879207BA979207130740443307EC
:10131000E602BA97B69783C72704B9EB0346F4FDF4
:101320000347E4FDB70700209386074EBA8792076C
:10133000BA979207130740443307E602BA97B69765
:1013400005472381E7042DA00346F4FD0347E4FD90
:10135000B70700209386074EBA879207BA9792077D
:10136000130740443307E602BA97B6972381070470
:101370000100325445618280797106D622D400186A
:10138000AA872E87A30FF4FCBA87230FF4FCA306C9
:1013900004FE8346F4FDB70700201307404433875B
:1013A000E6029387074EBA979C23A307F4FEADA2EB
:1013B0008346F4FDB7070020130740443387E60255
:1013C0009387074EBA9798238347F4FEB307F740F5
:1013D0002306F4FE0346F4FD0347C4FEB7070020CE
:1013E0009386074EBA879207BA979207130740442D
:1013F0003307E602BA97B697FE23638A0710010007
:101400008347D4FE8507A306F4FE8346F4FD034715
:10141000C4FEBA879207BA979207130740443387EE
:10142000E6023E97B70700209387074EBA979907C1
:101430008345C4FE0347E4FDBE86B707002013863C
:10144000070C3A85EF304066AA872307F4FE8347EE
:10145000E4FECDE70347C4FE8347F4FDBA853E852D
:10146000FD340346F4FD0347C4FEB707002093860E
:10147000074EBA879207BA9792071307404433077B
:10148000E602BA97B697EE238346F4FD0347C4FEFF
:10149000BA879207BA979207130740443387E60248
:1014A000BA9713870704B70700209387074EBA97A8
:1014B00099073E86B70700201385070CEF302024DC
:1014C0008346F4FD0347C4FEBA879207BA97920792
:1014D000130740443387E602BA9713870708B70714
:1014E00000209387074EBA9791073E85EF50700F03
:1014F0008347F4FEFD17A307F4FE39A80347D4FE83
:10150000954763E3E700EDBD9307800421A8834777
:10151000F4FEFD17A307F4FE8347F4FEE39A07E801
:101520008347E4FE3E85B250225445618280797142
:1015300006D622D40018AA872E87A30FF4FCBA87F8
:10154000230FF4FC0347E4FD8347F4FDBA853E8591
:10155000EFF04FABAA872307F4FE8347E4FE81C771
:101560008347E4FEA9AAB70700209387070CFC2352
:101570009DC3B70700209387070CF4230347E4FDBE
:10158000B70700201386070CB6853A85EF2020792F
:10159000AA872307F4FE0347E4FD8347F4FDBA85D9
:1015A0003E85D93BAA872307F4FE9387C189FC2790
:1015B0008DC39387C189F4270347E4FDB707002053
:1015C0001386070CB6853A85EF206075AA87230736
:1015D000F4FE9387C189FC378DC39387C189F437A3
:1015E0000347E4FDB70700201386070CB6853A854C
:1015F000EF20E072AA872307F4FE9387C1899C2B12
:101600008DC39387C189942B0347E4FDB70700205E
:101610001386070CB6853A85EF206070AA872307EA
:10162000F4FEA30704FE9DA80346F4FD0347F4FE61
:10163000B70700209386074EBA879207BA9792079A
:10164000130740443307E602BA97B697D823854775
:101650006311F7040346F4FD0347F4FEB7070020C7
:101660009386074EBA879207BA97920713074044AA
:101670003307E602BA97B697A38107048346F4FEC0
:101680000347E4FD8347F4FD3686BA853E85EF00C7
:10169000904A8347F4FE8507A307F4FE8346F4FDD2
:1016A000B7070020130740443387E6029387074EAD
:1016B000BA979C230347F4FEE368F7F681473E851B
:1016C000B250225445618280797122D60018AA87CF
:1016D000A30FF4FCA30604FE231704FEF9AC835702
:1016E000E4FE13871700B70700209387070CBA970B
:1016F000982389476310F7080357E4FEB7070020D3
:101700009387070CBA97D823854763F0E70283468F
:10171000F4FDB7070020130740443387E6029387A0
:10172000074EBA97054798A32DA00357E4FEB707C5
:1017300000209387070CBA970346F4FDD823B70718
:10174000002093064044B306D6029387074EB6970F
:1017500098A30357E4FEB70700209387070CBA97B6
:101760009C231397070141838357E4FEBA972317FD
:10177000F4FEA1A48357E4FE13871700B7070020E7
:101780009387070CBA97982391476318F72003575C
:10179000E4FEB70700209387070CBA97D833A54714
:1017A000631CF71C0357E4FEB70700209387070C60
:1017B000BA979C231397070141838357E4FEBA9796
:1017C0002317F4FE8357E4FE13871700B7070020A2
:1017D0009387070CBA97982391476300F71E035726
:1017E000E4FEB70700209387070CBC23BE86B7072B
:1017F00000209387070CBC33A207B697635FF71AE4
:101800008357E4FE13871700B70700209387070C60
:10181000BA97982395476310F7140357E4FEB70768
:1018200000209387070CBA97BC23E207E18763D3B4
:1018300007100357E4FEB70700209387070CBA97F9
:10184000BC230346F4FDBD8B13F7F70FB707002049
:101850009386074E93074044B307F602B697B8B78E
:101860000357E4FEB70700209387070CBA97034697
:10187000F4FDB833B70700209386074E9307404422
:10188000B307F602B697F8B70357E4FEB707002090
:101890009387070CBA97DC2313970701418383567C
:1018A000E4FEB70700209387070CB697DC33C20726
:1018B000C183A207C207C1830346F4FDBA971397F9
:1018C00007014183B70700209386074E93074044E2
:1018D000B307F602B697DAAB0357E4FEB70700206A
:1018E0009387070CBA970346F4FDF823B707002047
:1018F0009386074E93074044B307F602B6972380BA
:10190000E7020347F4FDB70700209386074E9307CD
:101910004044B307F702B697BC27850793F6F70F45
:10192000B70700201386074E93074044B307F7021A
:10193000B297B4A70357E4FEB70700209387070CBC
:10194000BA979C231397070141838357E4FEBA9704
:101950002317F4FE85BD0357E4FEB70700209387E5
:10196000070CBA979C231397070141838357E4FE22
:10197000BA972317F4FEB9B50357E4FEB707002062
:101980009387070CBA979C231397070141838357CA
:10199000E4FEBA972317F4FE0DA00357E4FEB70741
:1019A00000209387070CBA979C2313970701418364
:1019B0008357E4FEBA972317F4FE0357E4FEB707F4
:1019C00000209387070CBC23BE86B70700209387AF
:1019D000070CBC33A207B697E343F7D08347D4FE86
:1019E0003E85325445618280011106CE22CC001022
:1019F000938701CBDC333E85C139AA87A305F4FE6A
:101A00008347B4FE81C78347B4FE5DA2B7070020B9
:101A10009387070CFC2385C7938701CBD823B7078F
:101A200000209387070CF423B70700201386070CC8
:101A3000B6853A85EF20A02EAA87A305F4FE9387EA
:101A4000C189FC2795C3938701CBD8239387C1898C
:101A5000F427B70700201386070CB6853A85EF20D8
:101A6000002CAA87A305F4FE9387C189FC3795C390
:101A7000938701CBD8239387C189F437B707002018
:101A80001386070CB6853A85EF206029AA87A3053F
:101A9000F4FE9387C1899C2B95C3938701CBD823F0
:101AA0009387C189942BB70700201386070CB6854E
:101AB0003A85EF20C026AA87A305F4FEA30704FEFB
:101AC000A5A0938701CBD823930784FE3E86B70752
:101AD00000209385070C3A85EF30C03DAA87A30507
:101AE000F4FE8347B4FE85E7B70700209387070C11
:101AF000B823938701CBF8A3938701CBF8239147B1
:101B000063FAE702938701CB1147F8A325A00347A7
:101B1000F4FE91476315F7009307E00F51A8834740
:101B2000F4FE8507A307F4FE0347F4FE9147E3FAAA
:101B3000E7F811A00100A30704FE85472316F4FE71
:101B4000B1A8938701CBDC230357C4FE1377F70FAB
:101B50002146BA853E85EF30602AAA87A305F4FEA8
:101B60008347B4FE95C71545EF50F04E8357C4FE2A
:101B7000FD172316F4FE8347F4FE8507A307F4FE42
:101B80000347F4FE914763F6E7009307E00F0DA0CB
:101B900001008357C4FE85072316F4FE938701CB0B
:101BA000FC23C207C1830357C4FEE3FCE7F8814767
:101BB0003E85F240624405618280797106D622D466
:101BC0000018AA87232CB4FCA30FF4FC832784FD00
:101BD0009C233E878347F4FDB357F740858BCDCFD9
:101BE000938701CBDC23930684FE0347F4FD3686FE
:101BF000BA853E85EF30A00CAA872307F4FE834701
:101C0000E4FE81C78347E4FE51A88347A4FE858B89
:101C1000C1C7938701CBDC230347F4FD4146BA8556
:101C20003E85EF302012AA872307F4FE8347E4FEA7
:101C300081C78347E4FE9DA0A30704FE938701CBE1
:101C4000DC23930684FE0347F4FD3686BA853E8581
:101C5000EF30E006AA872307F4FE8347E4FE81C73E
:101C60008347E4FE25A88347F4FE8507A307F4FE17
:101C70008347A4FE858B91C70347F4FEA547E3FF86
:101C8000E7FA0347F4FEA9476308F700834784FE99
:101C9000858B99E3D94719A09307E00F3E85B25091
:101CA000225445618280797106D622D40018AA8711
:101CB000232CB4FCA30FF4FCA30704FE832784FDAC
:101CC0009C233E878347F4FDB357F740858B638D94
:101CD000070E938701CBDC230347F4FD1146BA8539
:101CE0003E85EF30A011AA872307F4FE8347E4FE68
:101CF00081C78347E4FED9A82945EF50D0359387A3
:101D000001CBDC23930684FE0347F4FD3686BA85B7
:101D10003E85EF20D07AAA872307F4FE8347E4FEAE
:101D200081C78347E4FE5DA08347F4FE8507A307D0
:101D3000F4FE8347A4FEC18B91E70347F4FEA94755
:101D4000E3FFE7FA0347F4FEA947630FF706A3078B
:101D500004FE938701CBDC230347F4FD5146BA858B
:101D60003E85EF20307EAA872307F4FE938701CBC0
:101D7000DC23930684FE0347F4FD3686BA853E8550
:101D8000EF20F073AA872307F4FE8347E4FE81C7A0
:101D90008347E4FE25A88347F4FE8507A307F4FEE6
:101DA0008347A4FEC18B91C70347F4FEA947E3FF15
:101DB000E7FA0347F4FEA9476308F700834784FE68
:101DC000858B99C3D54719A09307E00F3E85B25084
:101DD000225445618280797106D622D40018AA87E0
:101DE000232CB4FCA30FF4FC938701CBDC23034723
:101DF000F4FD032684FDBA853E85EF20506CAA874A
:101E0000A307F4FE8347F4FE81C78347F4FE15A0C1
:101E1000832784FD85079C23898B99C3814711A85B
:101E2000832784FD85079C23918B99C3894711A043
:101E300085473E85B250225445618280797106D62D
:101E400022D40018AA87232CB4FC232AC4FCA30F95
:101E5000F4FCA30704FE8347F4FE8507A307F4FE02
:101E60000347F4FDBA878607BA978607138701CB25
:101E7000BA971387B7009385C1893A85EF10105040
:101E8000AA87A306F4FE8347D4FE89CB0347F4FE5A
:101E9000A54763F5E7009307500441AA8347D4FEA2
:101EA00091C70347F4FEA547E3F7E7FAA30704FE4B
:101EB0008347F4FE8507A307F4FE0347F4FD9386EA
:101EC00001CBBA878607BA978607B697B03703471C
:101ED000F4FD938601CBBA878607BA978607B69733
:101EE000DC27890793F7F70FBE853285EF107079ED
:101EF000AA87A306F4FE8347D4FE95E30347F4FDC7
:101F0000938601CBBA878607BA978607B697DC27F0
:101F1000890713F7F70F832784FD98A309A80347C0
:101F2000F4FEA54763F5E70093076004FDA8834727
:101F3000D4FE91C70347F4FEA547E3FBE7F615453A
:101F4000EF507011A30704FE8347F4FE8507A30733
:101F5000F4FE0347F4FD938601CBBA878607BA9750
:101F60008607B697B8379307A4FEBE8613060040CF
:101F7000B70700209385070C3A85EF10F048AA8731
:101F8000A306F4FE8347D4FE9DE3B70700209387A2
:101F9000070CDC332307F4FE032644FDB7070020BB
:101FA0009385070C1385C189EFE08FE009A80347EB
:101FB000F4FEA54763F5E70093075004BDA08347EF
:101FC000D4FE91C70347F4FEA547E3FFE7F6A30756
:101FD00004FE8347F4FE8507A307F4FE0347F4FDE0
:101FE000938601CBBA878607BA978607B697BC3720
:101FF0000347E4FEBA853E85EF109072AA87A306D8
:10200000F4FE8347D4FE89CB0347F4FEA54763F56E
:10201000E7009307900411A88347D4FE91C70347B4
:10202000F4FEA547E3F7E7FA81473E85B250225414
:1020300045618280797106D622D40018AA87232CA4
:10204000C4FC3687A30FF4FCAE87230FF4FCBA87D9
:10205000231EF4FC230704FE0346F4FD0347E4FDBE
:10206000B70700209386074EBA879207BA97920760
:10207000130740443307E602BA97B69783C737047D
:10208000A306F4FE0346F4FD0347E4FDB707002072
:102090009386074EBA879207BA9792071307404470
:1020A0003307E602BA97B69783C70704A307F4FE7F
:1020B000E1A20347F4FE85476316F7088357C4FD82
:1020C0003E8693053005032584FDEF50D001AA8795
:1020D000638A07180346F4FD0347E4FDB7070020B1
:1020E0009386074EBA879207BA9792071307404420
:1020F0003307E602BA97B69783C737041397870169
:1021000061878347E4FE8546B397F600E207E187DF
:10211000B98FE207E1878345F4FD0347E4FD93F6B9
:10212000F70FB70700201386074EBA879207BA97B2
:102130009207130740443387E502BA97B297A38109
:10214000D7040DA20347F4FE89476316F7088357A7
:10215000C4FD3E8693059003032584FDEF50A078CF
:10216000AA87638107100346F4FD0347E4FDB70720
:1021700000209386074EBA879207BA9792071307F3
:1021800040443307E602BA97B69783C737041397DC
:10219000870161878347E4FE8546B397F600E2072F
:1021A000E187B98FE207E1878345F4FD0347E4FD4A
:1021B00093F6F70FB70700201386074EBA879207EA
:1021C000BA979207130740443387E502BA97B2974C
:1021D000A381D70441A80347F4FE8D476314F70891
:1021E0008357C4FD3E8693057004032584FDEF509C
:1021F000806FAA87A5CB0346F4FD0347E4FDB7072C
:1022000000209386074EBA879207BA979207130762
:1022100040443307E602BA97B69783C7370413974B
:10222000870161878347E4FE8546B397F600E2079E
:10223000E187B98FE207E1878345F4FD0347E4FDB9
:1022400093F6F70FB70700201386074EBA87920759
:10225000BA979207130740443387E502BA97B297BB
:10226000A381D7048347E4FE85072307F4FE834751
:10227000F4FE8507A307F4FE0346F4FD0347E4FDDF
:10228000B70700209386074EBA879207BA9792073E
:10229000130740443307E602BA97B69783C717047B
:1022A0000347F4FEE3F7E7E00346F4FD0347E4FDEC
:1022B000B70700209386074EBA879207BA9792070E
:1022C000130740443307E602BA97B69783C737042B
:1022D0000347D4FE6308F7020346F4FD0347E4FD19
:1022E000B70700209386074EBA879207BA979207DE
:1022F000130740443307E602BA97B697054723828F
:10230000E7042DA00346F4FD0347E4FDB7070020D2
:102310009386074EBA879207BA97920713074044ED
:102320003307E602BA97B697238207040100B2503A
:10233000225445618280797106D622D40018AA877A
:10234000AE863287A30FF4FCB687230FF4FCBA875E
:10235000A30EF4FCA30704FE0346F4FD0347D4FDDB
:10236000B70700209386074EBA879207BA9792075D
:10237000130740443307E602BA97B69783C7E703CB
:10238000ADC30346F4FD0347D4FDB7070020938691
:10239000074EBA879207BA9792071307404433074C
:1023A000E602BA97B69783C7F7032306F4FE0346FF
:1023B000F4FD0347D4FDB70700209386074EBA8784
:1023C0009207BA979207130740443307E602BA9779
:1023D000B69783C73704A306F4FE89472315F4FE96
:1023E00015A80346F4FD0347D4FDB70700209386E4
:1023F000074EBA879207BA979207130740443307EC
:10240000E602BA97B69783C737042306F4FE8547DA
:102410002315F4FE0346F4FD0347D4FDB70700205F
:102420009386074EBA879207BA97920713074044DC
:102430003307E602BA97B69703C7270485476312A6
:10244000F7029306A4FE1306C4FE0347D4FD834798
:10245000E4FDBA853E85EF20C070AA87A307F4FE8D
:1024600069A80346F4FD0347D4FDB707002093860F
:10247000074EBA879207BA9792071307404433076B
:10248000E602BA97B69703C727049307F00F6316BF
:10249000F7060346F4FD0347D4FDB70700209386F3
:1024A000074EBA879207BA9792071307404433073B
:1024B000E602BA97B69703C597028346F4FD034731
:1024C000D4FDBA879207BA9792071307404433871F
:1024D000E602BA9713870703B70700209387074ED2
:1024E000BA97A9078356A4FE1307C4FE3A86BE8591
:1024F000EF10703BAA87A307F4FE8347F4FE3E85E6
:10250000B250225445618280011106CE22CC26CAE7
:10251000001083C701CB3E85EF00B06DAA87A307EB
:10252000F4FE0347F4FE85476319F70C054723883B
:10253000E1CA938701CBA3820700EFE04F92AA87FD
:10254000A307F4FE8347F4FEC5E3938701CB9833DA
:102550008D47631FF702938701CBD833938701CB55
:10256000DC23BE853A85EFE09FFCAA87A307F4FE33
:102570008347F4FE89E70D472388E1CA75A803471E
:10258000F4FED947630AF70A09472388E1CA6DA018
:10259000938701CB9833A5476317F702EFF0CFC4B9
:1025A000AA87A307F4FE8347F4FE89E70D47238833
:1025B000E1CA59A00347F4FED947630FF70609475C
:1025C0002388E1CA95A8938701CB9C332147638672
:1025D000E70021476355F70021A0010011A0010089
:1025E0000D472388E1CA89A80347F4FED94763054C
:1025F000F70409472388E1CA81A08347F4FE8DEFE1
:10260000938701CBDC33A305F4FE7D46814513851A
:1026100001CBEFD0FFB80347B4FE93074044330724
:10262000F702B70700209387074EBA971306404476
:1026300081453E85EFD0DFB603C701CB8947E3FF75
:10264000E74A938701CBDC33A305F4FE938701CBE4
:1026500098338D47631BF74AA30604FE69A123063E
:1026600004FE3DA98345B4FE0347D4FE8346C4FE61
:10267000B70700201386074EBA879207BA979207CA
:10268000130740443387E502BA97B297B69783C6DB
:1026900047020345B4FE0347D4FE0346C4FEB70712
:1026A00000209385074EBA879207BA9792071307BF
:1026B00040443307E502BA97AE97B29783C7070243
:1026C00063EBF63C8345B4FE0347D4FE8346C4FE69
:1026D000B70700201386074EBA879207BA9792076A
:1026E000130740443387E502BA97B297B69783C67B
:1026F00047020345B4FE0347D4FE0346C4FEB707B2
:1027000000209385074EBA879207BA97920713075E
:1027100040443307E502BA97AE97B29783C70702E2
:102720000345B4FE0347D4FE0346C4FEB3F7F602E6
:1027300093F6F70FB70700209385074EBA879207E5
:10274000BA979207130740443307E502BA97AE974A
:10275000B2972382D7028345B4FE0347D4FE834653
:10276000C4FEB70700201386074EBA879207BA97B0
:102770009207130740443387E502BA97B297B6979A
:10278000A8378346B4FE0347D4FE0346C4FEBA8787
:102790009207BA9792073387C70093074044B387DD
:1027A000F602BA9713870701B70700209387074EF1
:1027B000BA971387C700930784FEBE86B707002029
:1027C0001386070CBA85EF103005AA87A307F4FE1D
:1027D0008347F4FE63900710835784FE8345B4FE5D
:1027E0000347D4FE93F6F70FB70700201386074E72
:1027F000BA879207BA979207130740443387E502D6
:10280000BA97B2972388D7108346B4FE0347D4FE05
:10281000BA879207BA979207130740443387E602B4
:10282000BA9713870708B70700209387074EBA9710
:1028300013874700835784FE3E86B70700209385A1
:10284000070C3A85EF40606A0346B4FE0347D4FEA6
:10285000B70700209386074EBA879207BA97920768
:10286000130740443307E602BA97B697D823854743
:102870006313F722835784FE8345D4FE0347B4FED7
:10288000BE86B70700201386070C3A85EFF08FFA53
:102890000346B4FE0347D4FEB70700209386074ED5
:1028A000BA879207BA979207130740443307E602A4
:1028B000BA97B69783C74704638F071C938701CBEA
:1028C000D8238346D4FE8347B4FE3686BA853E8538
:1028D0009D34D1A20347F4FED947630BF71E03478B
:1028E000F4FE9307E0026318F71A938701CBC8231D
:1028F0008345B4FE0347D4FE8346C4FEB7070020D9
:102900001386074EBA879207BA9792071307404477
:102910003387E502BA97B297B697BC3793E707F8C3
:1029200093F7F70FBE85EF1060678345B4FE03474A
:10293000D4FE8346C4FEB70700201386074EBA872D
:102940009207BA979207130740443387E502BA9774
:10295000B297B697238E07000347B4FEB70700204F
:102960009386074E93074044B307F702B6979C330C
:10297000850793F6F70FB70700201386074E9307D6
:102980004044B307F702B29794B38346B4FEB70747
:1029900000201387074E93074044B387F602BA9787
:1029A0009833A54763F9E70E7D468145138501CB32
:1029B000EFD00FFFEFD0BFCAAA87A307F4FE83476B
:1029C000F4FEF1E3938701CBC8238345B4FE0347AC
:1029D000D4FE8346C4FEB70700201386074EBA878D
:1029E0009207BA979207130740443387E502BA97D4
:1029F000B297B697BC3793E707F893F7F70FBE8502
:102A0000EF10C0598346B4FEB70700201387074E66
:102A100093074044B387F602BA97A380070005479F
:102A20002388E1CA938701CBA38207000347B4FE42
:102A3000930740443307F702B70700209387074EF8
:102A4000BA971306404481453E85EFD06FF59387D2
:102A500001CBD8238347B4FEBA853E85EFE03FAD76
:102A6000AA87A307F4FE8347F4FE89E70D4723886E
:102A7000E1CA15A00347F4FED947630EF7000947E2
:102A80002388E1CA09A80347F4FED9476305F70084
:102A900009472388E1CA8347C4FE85072306F4FE5D
:102AA0000346B4FE0347D4FEB70700209386074EC3
:102AB000BA879207BA979207130740443307E60292
:102AC000BA97B697BC270347C4FEE36DF7B811A0C9
:102AD00001000347F4FED947E301F7028347D4FE20
:102AE0008507A306F4FE8346B4FEB707002013074C
:102AF00040443387E6029387074EBA979C230347E7
:102B0000D4FEE36EF7B46F00607F938701CB9833F8
:102B1000A5476315F77E8346B4FEB70700201387E9
:102B2000074E93074044B387F602BA9703C747029C
:102B30000346B4FEB70700209386074E9307404430
:102B4000B307F602B69783C707026367F73E83466B
:102B5000B4FEB70700201387074E93074044B3879E
:102B6000F602BA9703C747020346B4FEB707002030
:102B70009386074E93074044B307F602B69783C780
:102B800007020346B4FEB377F70213F7F70FB70750
:102B900000209386074E93074044B307F602B6978A
:102BA0002382E702938701CBBC233E85EF00700EA2
:102BB000938701CBBC333E85EF0050128346B4FEB1
:102BC000B70700201387074E93074044B387F602E8
:102BD000BA97A8370347B4FE93074044B307F702F8
:102BE00013870701B70700209387074EBA9713870B
:102BF000C700930784FEBE86B70700201386070C24
:102C0000BA85EF106041AA87A307F4FE8347F4FE5C
:102C100063940732B707002083C7070C2305F4FE2F
:102C2000230704FE19A68347E4FE850793F7F70FF1
:102C30001307A4FEBA853E85EFE03FF8AA87A307F5
:102C4000F4FE0347F4FED9476314F7088347E4FE14
:102C500085070547B317F700E207E18793C7F7FF3A
:102C60001397870161878347A4FEE207E187F98F05
:102C7000E207E18793F7F70F2305F4FE0347E4FE2D
:102C8000938601CBBA878607BA978607B697DC2763
:102C90003E87930740443307F702B7070020938726
:102CA000074EBA971306404481453E85EFD04FCF7B
:102CB0000347E4FEBA878607BA978607138701CBD6
:102CC000BA979D07194681453E85EFD06FCD89ACF7
:102CD00013054006EF4030388347E4FE850793F73D
:102CE000F70F1307A4FEBA853E85EFE0DFFBAA8746
:102CF000A307F4FE0347F4FED5476318F704034720
:102D0000E4FE938601CBBA878607BA978607B69703
:102D10000547F8B30347E4FE938601CBBA878607DD
:102D2000BA978607B6972147B8B70347E4FE8347AB
:102D3000E4FE850793F6F70F138601CBBA87860763
:102D4000BA978607B297D4A70DA88347E4FE8507F4
:102D50000547B317F700E207E18793C7F7FF13971B
:102D6000870161878347A4FEE207E187F98FE207C5
:102D7000E18793F7F70F2305F4FE0347E4FE9386FC
:102D800001CBBA878607BA978607B697F833854787
:102D90006318F7188347E4FE850713F7F70F83449A
:102DA000E4FEB70700209385070C3A85EFF0AF8269
:102DB000AA87BE86138701CBA6878607A6978607B4
:102DC000BA97B4A70347E4FE938601CBBA87860778
:102DD000BA978607B6979C373E85EF00806B03470E
:102DE000E4FE938601CBBA878607BA978607B69723
:102DF000BC273E85EF00806E938701CBBC3381CF2B
:102E0000B70700509C3313F7F70FB70700506D9BBF
:102E10001377F70F98B30347E4FEBA878607BA978C
:102E20008607138701CBBA97938697000347E4FE82
:102E3000BA878607BA978607138701CBBA97138795
:102E400087008347E4FE3A86B6853E85EFE01FFFA4
:102E5000AA87A307F4FE8347F4FEC5EB0347E4FE0D
:102E6000938601CBBA878607BA978607B6979827C5
:102E70008D47631CF7040347E4FE938601CBBA87B2
:102E80008607BA978607B697D0270347E4FE93864E
:102E900001CBBA878607BA978607B697BC37BE8537
:102EA0003285EFE0CFE8AA87A307F4FE8347F4FE5C
:102EB000A5EB0347E4FE938601CBBA878607BA9752
:102EC0008607B6970D47F8B3A1A80347E4FE93869B
:102ED00001CBBA878607BA978607B6979C27214702
:102EE0006386E70021476355F70021A0010011A088
:102EF00001000347E4FE938601CBBA878607BA97A1
:102F00008607B6970D47F8B321A80347E4FE9386DA
:102F100001CBBA878607BA978607B6970947F8B3F1
:102F20008347E4FE85072307F4FE938701CBFC2348
:102F30000347E4FEE369F7CE230704FE7DA60347BB
:102F4000E4FE938601CBBA878607BA978607B697C1
:102F5000F8338D476316F7380347E4FE938601CBB9
:102F6000BA878607BA978607B697DC27A305F4FECB
:102F70000347E4FE938601CBBA878607BA97860794
:102F8000B69798278D47631DF734A30604FE3DA628
:102F9000230604FECDA48345B4FE0347D4FE834636
:102FA000C4FEB70700201386074EBA879207BA9768
:102FB0009207130740443387E502BA97B297B69752
:102FC00083C647020345B4FE0347D4FE0346C4FE4E
:102FD000B70700209385074EBA879207BA979207E2
:102FE000130740443307E502BA97AE97B29783C7F9
:102FF000070263EDF6268345B4FE0347D4FE8346FD
:10300000C4FEB70700201386074EBA879207BA9707
:103010009207130740443387E502BA97B297B697F1
:1030200083C647020345B4FE0347D4FE0346C4FEED
:10303000B70700209385074EBA879207BA97920781
:10304000130740443307E502BA97AE97B29783C798
:1030500007020345B4FE0347D4FE0346C4FEB3F79C
:10306000F60293F6F70FB70700209385074EBA874D
:103070009207BA979207130740443307E502BA97BD
:10308000AE97B2972382D7020347E4FE938601CB23
:10309000BA878607BA978607B6979C373E85D52E9E
:1030A0000347E4FE938601CBBA878607BA97860763
:1030B000B697BC273E851D21938701CBBC3381CFBA
:1030C000B70700509C3313F7F70FB70700506D9BFD
:1030D0001377F70F98B38345B4FE0347D4FE8346B6
:1030E000C4FEB70700201386074EBA879207BA9727
:1030F0009207130740443387E502BA97B297B69711
:10310000A8378346B4FE0347D4FE0346C4FEBA87FD
:103110009207BA9792073387C70093074044B38753
:10312000F602BA9713870701B70700209387074E67
:10313000BA971387C700930784FEBE86B70700209F
:103140001386070CBA85EF00306DAA87A307F4FE3B
:103150008347F4FE63970710835784FE8345B4FECC
:103160000347D4FE93F6F70FB70700201386074EE8
:10317000BA879207BA979207130740443387E5024C
:10318000BA97B2972388D7108346B4FE0347D4FE7C
:10319000BA879207BA979207130740443387E6022B
:1031A000BA9713870708B70700209387074EBA9787
:1031B00013874700835784FE3E86B7070020938518
:1031C000070C3A85EF3070520346B4FE0347D4FE35
:1031D000B70700209386074EBA879207BA979207DF
:1031E000130740443307E602BA97B697D8238547BA
:1031F000631EF706835784FE8345D4FE0347B4FE5F
:10320000BE86B70700201386070C3A85EFE09FE2E1
:103210000346B4FE0347D4FEB70700209386074E4B
:10322000BA879207BA979207130740443307E6021A
:10323000BA97B69783C7470495CB0347E4FE9386B6
:1032400001CBBA878607BA978607B697B837834601
:10325000D4FE8347B4FE3686BA853E85EFF0AF8D47
:1032600031A00347F4FED947630FF7028347C4FE3A
:1032700085072306F4FE0346B4FE0347D4FEB707D2
:1032800000209386074EBA879207BA9792071307D2
:1032900040443307E602BA97B697BC270347C4FEFB
:1032A000E36BF7CE11A001000347F4FED947630892
:1032B000F7028347D4FE8507A306F4FE8346B4FED7
:1032C000B7070020130740443387E6029387074E71
:1032D000BA979C230347D4FEE36CF7CA11A0010000
:1032E0008347E4FE85072307F4FE938701CBFC2385
:1032F0000347E4FEE365F7C411A001000100F240BA
:103300006244D24405618280411106C622C400088D
:10331000B707002003A74701B747950893870740E1
:103320006316F7000945EF40402125A8B7070020A4
:1033300003A74701B7E7B805938707806316F7002F
:103340000545EF40801F31A8B707002003A74701BC
:10335000B777DC02938707C06315F7000145EF409C
:10336000C01D85450565EF40C02A0100B2402244DA
:1033700041018280011106CE22CC00102326A4FE3A
:103380000327C4FE85476316F704B70700501947A3
:1033900098A32945EF40C048B70700502380070095
:1033A000B7070050130790F898A3B707005013070A
:1033B0008004D8B7B707005037270020130747A36A
:1033C00098CFB707005037270020130747A7D8CF5B
:1033D00021A8B7070050194798A32945EF4040445A
:1033E000B7070050238007000100F24062440561E6
:1033F0008280011106CE22CC0010AA87A307F4FE1A
:10340000B7070050FC2393F7F70F858B8DCFB707D5
:1034100000500547F8A3B7070050DC3393F7F70FC8
:10342000858B85C38347F4FE89CB0347F4FE894728
:103430006307F7003928AA8799E3854731A08947B0
:1034400021A0814711A089473E85F2406244056171
:103450008280411122C60008B70700509C3393F7C1
:10346000F70F858B93F7F70F3E8532444101828039
:10347000411122C60008B7070050DC3393F7F70F5D
:10348000898B93B7170093F7F70F3E8532444101BC
:103490008280011122CE0010AA87A307F4FEB7078D
:1034A0000050BC3393F7F70FE207E18793F707F873
:1034B0001397870161878307F4FE93F7F707E20705
:1034C000E187D98F139787016187B707005013777A
:1034D000F70FB8B30100724405618280011122CE5A
:1034E0000010AA87A307F4FE0347F4FE854763177D
:1034F000F704B70700509C2313F7F70FB7070050E6
:103500001377F7FB1377F70F98A3B70700509C3397
:1035100013F7F70FB70700506D9B1377F70F98B3AA
:10352000B7070050FE3B139707014183B7070050D0
:103530001377F7BF42074183FABBB1A0B70700502A
:103540009C2313F7F70FB70700501367070413778F
:10355000F70F98A3B70700509C3313F7F70FB7077F
:103560000050136747001377F70F98B3B707005061
:10357000FE3B139707014183B707005013670740CD
:1035800042074183FABB0100724405618280011148
:1035900006CE22CC0010AA87A307F4FE0145D53D34
:1035A00005452D3F0347F4FE854763EEE700B70767
:1035B00000509C3313F7F70FB7070050136727002D
:1035C0001377F70F98B38347F4FE81E72D45EF405B
:1035D00080280347F4FE8547630DF700B7070050C6
:1035E0009C3313F7F70FB7070050759B1377F70F4E
:1035F00098B30945EF402026B7070050FC2393F706
:10360000F70F858B81CFB7070050DC3393F7F70FA7
:10361000858B89C7B70700500547F8A30100F24022
:10362000624405618280011106CE22CC001023265F
:10363000A4FEB7070050DC3393F7F70F858BB9CBA7
:10364000093DAA8789EF2D35AA873E878327C4FEC7
:1036500098A38327C4FE9C2399E301454135B7070E
:1036600000509C3313F7F70FB7070050136717008C
:103670001377F70F98B3B7070050FE3B1397070176
:103680004183B70700501367470042074183FABBE5
:10369000814711A0D9473E85F2406244056182808E
:1036A000797106D622D40018AA87AE863287A30F76
:1036B000F4FCB687230FF4FCBA87231EF4FC37070B
:1036C00000508347E4FDA30DF70237070050230F96
:1036D000F702A30704FEB70700500347F4FD238C4D
:1036E000E702B70700500947F8A39307803E231667
:1036F000F4FE09A80545EF40A0128357C4FEFD174C
:103700002316F4FE8357C4FE81CBB7070050FC2379
:1037100093F7F70F898BF9DFB7070050238C070267
:10372000B7070050FC2393F7F70F898B81E79307C6
:10373000E00F25A2B7070050FC3393F7F70F93F77C
:10374000070499C3814711AAB7070050FC3393F7C8
:10375000F70FBD8BA305F4FE0347B4FEB947631909
:10376000F7008347B4FE93E7070293F7F70FF5A03E
:103770000347B4FEA947631DF7028357C4FD81EBDD
:103780008347B4FE93E7070293F7F70FF9A00357B7
:10379000C4FDC167FD176307F7008357C4FDFD171C
:1037A000231EF4FC8347F4FEFD17A307F4FE9DA03F
:1037B0008347F4FD918393F7F70F25476382E70270
:1037C00035476385E70005476390E7048347B4FE08
:1037D0009DCF8347B4FE93E7070293F7F70FB5A891
:1037E0000347B4FE8D476306F7020347B4FEAD47B7
:1037F0006301F7028347B4FE89CF8347B4FE93E7A2
:10380000070293F7F70F91A89307E00FB9A0010003
:1038100011A001005145EF40A000B7070050FC2364
:1038200093F7F70F858B91CF1305800CEF30507F06
:103830000D31AA8799E3D9470DA0B7070050054776
:10384000F8A38347F4FE8507A307F4FE0347F4FEBD
:10385000A547E3F2E7E8930700023E85B250225401
:1038600045618280797106D622D40018AA87232C5C
:10387000B4FC232AC4FCA30FF4FC13054006EF306C
:10388000307A832744FD89C7832744FD23900700AE
:10389000B70700502147DABF896713860771814552
:1038A0001305000DF53BAA87A304F4FE834794FE9D
:1038B00081C7834794FE75AC370700509147A30D2D
:1038C000F70237070050230FF702B727002093872E
:1038D00047A7F823FC33A207D98F2317F4FE835799
:1038E000E4FE63890722832784FD63850722B727C7
:1038F0000020938747A79C23E207E18763D807202E
:1039000011A213054006EF30B071B707005083C70E
:10391000B70313F7F70F896713860771BA85130585
:103920000009BD3BAA87A304F4FE834794FE81C728
:10393000834794FE3DACB707005083C7B70313F726
:10394000F70FB7070050134747001377F70FA38D02
:10395000E702B70700509E27C207C1830357E4FE62
:1039600063F8E700B70700509E27C207C18319A07C
:103970008357E4FE2313F4FE0357E4FE835764FEEB
:10398000B307F7402317F4FE832744FD89CF83272D
:1039900044FD9A23835764FEBA9713970701418326
:1039A000832744FD9AA3231604FE35A00357C4FEC3
:1039B000B7270020938747A3BA979823832784FDCE
:1039C00098A3832784FD8507232CF4FC8357C4FE2A
:1039D00085072316F4FE0357C4FE835764FEE317DE
:1039E000F7FCB70700509E27C207C18385C3B707FE
:1039F00000509E27C207C1833E878347F4FDFD1711
:103A0000F98F89E78357E4FEE39D07EEB70700507F
:103A1000239E070201A213054006EF307060834722
:103A2000F4FDC207C18337070050BE858357E4FE0B
:103A300013960701418293960501C18263F3C60084
:103A4000AE87C207C1835EBF231504FE35A083562F
:103A5000A4FE832784FD9823B7270020938747A7D8
:103A6000B69798A3832784FD8507232CF4FC8357FE
:103A7000A4FE85072315F4FEB7070050DE3FC207FA
:103A8000C1830357A4FEE314F7FCB707005083C7B4
:103A9000E70313F7F70F896713860771BA85414566
:103AA0000131AA87A304F4FE834794FE81C78347AC
:103AB00094FEC1A0B707005083C7E70313F7F70FC1
:103AC000B7070050134747001377F70F238FE7021C
:103AD000B7070050DE3FC207C1830357E4FEB307B8
:103AE000F7402317F4FE832744FD8DC3B70700502A
:103AF000DE3F139707014183832744FD9E23BA9736
:103B0000139707014183832744FD9AA38357E4FE5B
:103B1000E39307F013054006EF309050B7070050CD
:103B2000DE3FC207C18381C79307000911A0C147C7
:103B300009671306077191453E85EFF07FB6AA87A6
:103B4000A304F4FE834794FE81C7834794FE15A027
:103B5000B7070050DE3FC207C18399E3814711A830
:103B6000B70700509E27C207C18399E3814711A080
:103B7000DD473E85B250225445618280797106D678
:103B800022D40018232EA4FC232CB4FC8327C4FDCC
:103B9000214798A33727002083A6C180232AD7A6D0
:103BA000130747A79387C180DC435CC38327C4FD09
:103BB0009C231307C4FE3A86832584FD3E855D3130
:103BC000AA87A307F4FE8347F4FE81C78347F4FE68
:103BD0003DA0832784FDF8338327C4FD98A39387F2
:103BE000C180F823FC33A207D98F139707014183C3
:103BF0008357C4FE63F4E700DD4711A081473E858B
:103C0000B250225445618280797106D622D40018C0
:103C1000AA87232CB4FC3287232AD4FCA30FF4FCFC
:103C2000BA87231EF4FC3727002083A64181232A6C
:103C3000D7A6130747A793874181DC435CC383471B
:103C4000F4FD032644FD832584FD3E852139AA87A2
:103C5000A307F4FE8347F4FE81C78347F4FE5DA803
:103C6000832744FD9A2393874181F423FC33A207E1
:103C7000D58FC207C1836374F700DD4761A883272E
:103C800084FDB823BC33A207D98F13970701418362
:103C9000832744FD9AA3832744FD9E230357C4FD35
:103CA0006377F700832744FD0357C4FD9AA33727A2
:103CB000002083A64181232AD7A6130747A793870D
:103CC0004181DC435CC3B7270020938747A70327C4
:103CD00044FD1A239375F70FF423818A3686AE8646
:103CE000D18EF4A32183131607014182F833018B8F
:103CF000BA863287558FF8B38347F4FD032644FD17
:103D0000832584FD3E85EFF0FFB5AA87A307F4FE67
:103D10008347F4FE3E85B25022544561828079711A
:103D200006D622D40018AA872E87232CC4FCA30F02
:103D3000F4FCBA87230FF4FC3727002083A6C18147
:103D4000232AD7A6130747A79387C181DC435CC307
:103D50008347E4FDC207C18793E707301397070144
:103D60004187B7270020938747A742074183937570
:103D7000F70FB423818A3686AE86D18EB4A3218311
:103D8000131607014182B833018BBA863287558FEB
:103D9000B8B31307C4FE8347F4FD3A86832584FD38
:103DA0003E85EFF03FACAA87A307F4FE8347F4FEFD
:103DB00081C78347F4FEC9A0832784FD9C23C207E3
:103DC000C1832316F4FE3727002083A6C181232A4E
:103DD000D7A6130747A79387C181DC435CC38347FA
:103DE000E4FDC207C18793E70730139707014187B6
:103DF000B7270020938747A7420741839375F70FA2
:103E0000B423818A3686AE86D18EB4A3218313165D
:103E100007014182B833018BBA863287558FB8B318
:103E2000B7270020938747A70357C4FE9375F70F62
:103E3000F423818A3686AE86D18EF4A321831316AD
:103E400007014182F833018BBA863287558FF8B368
:103E50001307C4FE8347F4FD3A86832584FD3E851F
:103E6000EFF05FA0AA87A307F4FE8347F4FE81C7A3
:103E70008347F4FE11A081473E85B250225445612C
:103E80008280797106D622D40018AA872E87A30FC4
:103E9000F4FCBA87230FF4FC3727002083A6418265
:103EA000232AD7A6130747A793874182DC435CC325
:103EB000B7270020938747A70347E4FD42074183C4
:103EC0009375F70FB423818A3686AE86D18EB4A35C
:103ED0002183131607014182B833018BBA863287DA
:103EE000558FB8B38347F4FD014681453E85EFF019
:103EF0007F97AA87A307F4FE8347F4FE81C7834711
:103F0000F4FE11A88347E4FD3E85EFF08FD81545F8
:103F1000EF30701481473E85B25022544561828053
:103F2000011106CE22CC0010AA872E87A307F4FE2B
:103F3000BA872307F4FE3727002083A6C182232AED
:103F4000D7A6130747A79387C182DC435CC3B72773
:103F50000020938747A70347E4FE420741839375F8
:103F6000F70FB423818A3686AE86D18EB4A321831F
:103F7000131607014182B833018BBA863287558FF9
:103F8000B8B38347F4FE014681453E85EFF09F8D2F
:103F9000AA873E85F240624405618280011106CE07
:103FA00022CC0010AA872E87A307F4FEBA87230726
:103FB000F4FE3727002083A64183232AD7A61307C0
:103FC00047A793874183DC435CC3B72700209387CF
:103FD00047A70347E4FE420741839375F70FD423B5
:103FE000818A3686AE86D18ED4A32183131607012B
:103FF0004182D833018BBA863287558FD8B3834735
:10400000F4FE014681453E85EFF0DF85AA873E85B7
:10401000F240624405618280797106D622D400188C
:10402000AA87232CB4FC232AC4FC2328D4FCA30F86
:10403000F4FC8347F4FD93E707F913F7F70F8327A1
:1040400084FD9C230146BE853A85EFF06FE5AA8783
:10405000A307F4FE8347F4FEA1E3B70700509E27B1
:10406000139707014183832704FD9AA3832704FD47
:104070009E233E86B7270020938547A3032544FD52
:10408000EF30F007832784FD9C2393C7470013F785
:10409000F70F832784FD98A38347F4FE3E85B25033
:1040A000225445618280797106D622D40018AA87ED
:1040B000232CB4FC232AC4FC3687A30FF4FCBA8754
:1040C000231EF4FC8357C4FD3E86832544FDB72799
:1040D0000020138547A7EF309002B7070050035721
:1040E000C4FDDABF8347F4FD93E7070113F7F70F29
:1040F000832784FD9C230146BE853A85EFF04FDA85
:10410000AA87A307F4FE8347F4FE99EB832784FD77
:104110009C2393C7470013F7F70F832784FD98A3C9
:104120008347F4FE3E85B2502254456182800111DE
:1041300006CE22CC00102326A4FE0325C4FE21288F
:10414000AA8781E79387818711A081473E85F24046
:10415000624405618280197186DEA2DC000123269B
:10416000A4F88327C4F883C7C71099E38547A9AB90
:104170008327C4F8138707088327C4F883C7C710A9
:10418000C207C1833E86B7270020938547AB3A8597
:10419000EF205049AA8763880752A30704FE23072C
:1041A00004FEA30604FE8327C4F8130784F993874B
:1041B00027049306E0033686BE853A85EF302074E7
:1041C000834794F991C7B7270020938757AB29A05D
:1041D000B7270020938747AB2324F4FE230604FE71
:1041E00041A08347C4FE8E07130704FFBA9703D785
:1041F00047FB8347C4FE8E07930604FFB69783D719
:1042000067FBB3B7E70093F7F70F2322F4FE83476A
:10421000C4FE8E07130704FFBA9703D707FB834733
:10422000C4FE8E07930604FFB69783C727FB832639
:1042300044FE3E86BA85032584FEEF201059AA87E6
:104240003E878347C4FE420741878607930604FFE3
:10425000B6972394E7FE8347C4FE85072306F4FE42
:104260000347C4FE8547E3FEE7F6230604FE85A068
:104270008347C4FEA1078607130704FFBA9783C7C5
:1042800007FB3E87832784FEBA9798238347C4FEA3
:10429000A1078607930604FFB69783C717FBF98F1C
:1042A00093F7F70F85C38347C4FE0547B317F7009D
:1042B0001397870161878307E4FED98FE207E187BF
:1042C0002307F4FE8347C4FE85072306F4FE034755
:1042D000C4FE8D47E3FEE7F891472306F4FE8DA068
:1042E0008347C4FEA1078607130704FFBA9783C755
:1042F00007FB3E87832784FEBA9798238347C4FE33
:10430000A1078607930604FFB69783C717FBF98FAB
:1043100093F7F70F8DC38347C4FEF1170547B31713
:10432000F7001397870161878307D4FED98FE207CF
:10433000E187A306F4FE8347C4FE85072306F4FE47
:104340000347C4FEAD47E3FDE7F8230604FEF9ACDE
:104350008347C4FE8E07130704FFBA9783D767FB12
:104360003E878347C4FE8E07930604FFB69783D724
:1043700047FBB307F74013D7F701BA978587232088
:10438000F4FE032704FE9307F003B347F702232E3E
:10439000F4FC8347C4FE8607130704FFBA9783978C
:1043A00087FE3E878347C4FE8E07930604FFB697B9
:1043B00083D747FB6355F7028347C4FE8E07130775
:1043C00004FFBA9703D747FB8347C4FE42074187E0
:1043D0008607930604FFB6972394E7FEB1A08347B0
:1043E000C4FE8607130704FFBA97839787FE3E87AC
:1043F0008347C4FE8E07930604FFB69783D767FBF7
:1044000063D4E7028347C4FE8E07130704FFBA97FD
:1044100003D767FB8347C4FE42074187860793069D
:1044200004FFB6972394E7FE8347C4FE860713076D
:1044300004FFBA97839787FE139707014183834749
:10444000C4FE8E07930604FFB69783D747FBBE864C
:104450008347C4FE8E07130604FFB29783D767FB1A
:10446000B69793D6F701B6978587B307F040C20792
:10447000C183BA971397070141838347C4FE42075C
:1044800041878607930604FFB6972394E7FE032728
:1044900004FE8327C4FDB307F7402320F4FE8347BF
:1044A000C4FE8607130704FFBA97839787FE3E87EB
:1044B0008327C4FDB307F0406350F7048347C4FE6D
:1044C0008607130704FFBA97839787FE13970701A0
:1044D00041838327C4FDC207C183BA97139707019D
:1044E00041838347C4FE420741878607930604FF42
:1044F000B6972394E7FEADA08347C4FE8607130753
:1045000004FFBA97839787FE3E878327C4FD63D154
:10451000E7048347C4FE8607130704FFBA9783970F
:1045200087FE1397070141838327C4FDC207C18318
:10453000B307F7401397070141838347C4FE42073F
:1045400041878607930604FFB6972394E7FE09A8E0
:104550008347C4FE8607130704FFBA97239407FE18
:104560008347C4FE8607130704FFBA97839787FE25
:104570003E87BA879E073387E740832704FE334789
:10458000F7028347C4FE420741878607930604FF6C
:10459000B6972394E7FE8347C4FE8607130704FFFC
:1045A000BA97039787FE930710F8635DF700834778
:1045B000C4FE8607130704FFBA97130710F8239465
:1045C000E7FE3DA08347C4FE8607130704FFBA97A2
:1045D000039787FE9307F00763DCE7008347C4FE79
:1045E0008607130704FFBA971307F0072394E7FE23
:1045F0008347C4FE8607130704FFBA97839787FE95
:10460000C207C1839387F707139707014183834745
:10461000C4FE420741878607930604FFB69723949A
:10462000E7FE8347C4FE85072306F4FE0347C4FE66
:104630008547E3FFE7D0031784FD9307F00363C8C2
:10464000E7008347F4FE93E72700A307F4FE031770
:1046500084FD9307000C63D8E7008347F4FE93E7DB
:104660001700A307F4FE0317A4FD9307F00363C824
:10467000E7008347F4FE93E78700A307F4FE0317E0
:10468000A4FD9307000C63D8E7008347F4FE93E78B
:104690004700A307F4FE8347E4FE920713978701C0
:1046A00061878307F4FED98FE207E187A307F4FE51
:1046B0000347F4FE238CE186938781870347D4FE6A
:1046C00098B3814711A085473E85F650665409612D
:1046D00082800D8128A208228D470D896318F5007C
:1046E00013F575006515133515008280854763162F
:1046F000F50013F5F5004515FDB77915EDB7EFB2E7
:104700003FA4A16779719387479C3EC6A1679387B1
:10471000079BAA8AAE893284FD5CFD5DFD567D5DF6
:10472000014F8145014E814E014901450143014838
:104730008144FD58014C014A014B854B8D4F3EC8C9
:10474000639409000145B1AE83C20A0013D622006A
:1047500013D7420093F232000D8A63950202FD19CD
:10476000C209850A93D909018147630D0C0669FACC
:10477000A947631CF704050C8504137CFC0F93F414
:10478000F40F7DBF83C71A0063987201890AF91973
:10479000C20993D90901D1BF83C32A00A2039E97FE
:1047A0006385F2018D0AF519E5B783C23A0083C328
:1047B0004A00ED19C202E203B3E27200C209B3E794
:1047C000570093D90901950A4DB7B147E31AF7F697
:1047D000FD147D1C93F4F40F137CFC0FE3D214F74B
:1047E000FD58B9BF6304761B01CE8942E31A56F423
:1047F0006302772B63000720E314C7F4CA9771ACF8
:1048000021073D8B1146E36FE6F242460A073297D5
:104810001843028763070F041C20858BB9C3330F2D
:104820006802130684010147B142137FFF0F93779B
:10483000F70F63FE6700B307E500C207C18393D398
:1048400037009D8BB397FB00230076001CB2050751
:104850000906E31E57FC230EE40363E36B0693E5AE
:10486000450093170801C18363CF0D041820058B01
:1048700005C3B38DB7032316D4012317C401230541
:10488000040193E51500AA9D2314B40163D20C041E
:10489000634E0D0418200D8B631AF705338DA703A3
:1048A000230904032A9D2318A403B3876702014F39
:1048B000FD5CFD5D7D5D3E9542054181014949B547
:1048C00093E5C50079BFE3C50CFC1820058B69D3BF
:1048D000B38C9703231AD401231BC40123090401B9
:1048E00093E52500AA9C231894015DB7E3CF06FA4F
:1048F00018200D8BE31B77FBB386D702231CD40350
:10490000231DC403230B0403AA9656B8FD5671BF9A
:10491000850493F4F40F63977701050B620B135B27
:104920008B4169BF91E7050A620A135A8A4179B738
:104930000947E38AE7FE0149054C19B5FD1493F4D4
:10494000F40F63D31401FD5863070A007D1A620A4D
:10495000135A8A41F5B336D646D47AD276D01ACED7
:1049600072CC42CAE3000BDE7D1B620B2286135B16
:104970008B4185336316051281455248624E72435E
:10498000825E125FA258B2568D4F5DBB2546E36B27
:10499000E6DA32460A073297184302871386B7FFD2
:1049A0001D47636EC7001307D0083357C700058B38
:1049B000E31807D82547E395E7D8054F51B3E391AE
:1049C00077D9E3DF08D69398840193D888418DBBCB
:1049D000939E070193DE0E01A5B3139E0701135E9C
:1049E0000E01B9BB13F8F70FA1BB1CB091BB13F3B9
:1049F000F70FB9B38DEC1947639CE7001C20F19BBE
:104A000093E727001CA005094209135909010DBBB2
:104A10006397C7001C20F19B93E71700E5B7138746
:104A2000C7FF63E6EB001C2093E73700E1BFE38C90
:104A300077FD138707FD63E2EB02E3060BFC18200A
:104A4000058B71D3131789011306000361876394E3
:104A5000C700BA8D4DBFBA8C7DB713079003639D15
:104A6000E700E3020BFA1C208D8BE39EF7F9131D80
:104A70008901135D8D4141BF13078003E395E7F87A
:104A8000E3030BF81C208D8BE39F77F793168901C6
:104A9000E18695BF0509B307F94013990701B5B73A
:104AA000054545616FB08FED011106CE22CC001097
:104AB000AA872E872324C4FE2322D4FEA307F4FE54
:104AC000BA872307F4FE3727002083A6C184232A50
:104AD000D7A6130747A79387C184DC435CC3B727D6
:104AE0000020938747A70347E4FE4207418393755D
:104AF000F70FD423818A3686AE86D18ED4A3218344
:104B0000131607014182D833018BBA863287558F3D
:104B1000D8B3B7270020938747A7032744FE1A235B
:104B20009375F70FF423818A3686AE86D18EF4A36F
:104B30002183131607014182F833018BBA8632872D
:104B4000558FF8B38347F4FE032644FE832584FE85
:104B50003E85EFE03FD1AA873E85F2406244056181
:104B60008280011106CE22CC0010AA872E87232432
:104B7000C4FE2322D4FEA307F4FEBA872307F4FE63
:104B80003727002083A64184232AD7A6130747A7E7
:104B900093874184DC435CC3B7270020938747A7F2
:104BA0000347E4FE420741839375F70FD423818ABC
:104BB0003686AE86D18ED4A3218313160701418297
:104BC000D833018BBA863287558FD8B38347F4FE2A
:104BD000032644FE832584FE3E85EFE0BFC8AA87F6
:104BE0003E85F240624405618280011106CE22CCEE
:104BF0000010AA873687A307F4FEAE872307F4FECA
:104C0000B287A306F4FEBA872306F4FE37270020F6
:104C100083A6C183232AD7A6130747A79387C183F7
:104C2000DC435CC38347D4FEA20713970701418787
:104C30008347C4FEC207C187D98F139707014187F5
:104C4000B7270020938747A7420741839375F70F43
:104C5000B423818A3686AE86D18EB4A321831316FF
:104C600007014182B833018BBA863287558FB8B3BA
:104C7000B7270020938747A70347E4FE42074183F5
:104C80009375F70FD423818A3686AE86D18ED4A34E
:104C90002183131607014182D833018BBA863287EC
:104CA000558FD8B38347F4FE014681453E85EFE03A
:104CB0007FBBAA873E85F24062440561828079719C
:104CC00006D622D40018AA872E87232CC4FCA30F53
:104CD000F4FCBA87230FF4FC3727002083A6418514
:104CE000232AD7A6130747A793874185DC435CC3D4
:104CF000B7270020938747A70347E4FD4207418376
:104D00009375F70FD423818A3686AE86D18ED4A3CD
:104D10002183131607014182D833018BBA8632876B
:104D2000558FD8B31307E4FE8347F4FD3A868325F5
:104D300084FD3E85EFE01FB3AA873E85B250225422
:104D400045618280011106CE22CC0010AA87AE8672
:104D50003287A307F4FEB6872307F4FEBA87A306BB
:104D6000F4FE3727002083A6C185232AD7A6130780
:104D700047A79387C185DC435CC3B727002093878F
:104D800047A70347D4FE420741839375F70FB42327
:104D9000818A3686AE86D18EB4A32183131607018D
:104DA0004182B833018BBA863287558FB8B3B727A3
:104DB0000020938747A70347E4FE4207418393758A
:104DC000F70FD423818A3686AE86D18ED4A3218371
:104DD000131607014182D833018BBA863287558F6B
:104DE000D8B38347F4FE014681453E85EFE09FA797
:104DF000AA873E85F240624405618280011106CE99
:104E000022CC0010AA87AE863287A307F4FEB687AD
:104E10002307F4FEBA87A306F4FE3727002083A6F3
:104E20004186232AD7A6130747A793874186DC43E9
:104E30005CC3B7270020938747A70347D4FE4207E8
:104E400041839375F70FB423818A3686AE86D18E5F
:104E5000B4A32183131607014182B833018BBA86AC
:104E60003287558FB8B3B7270020938747A70347EA
:104E7000E4FE420741839375F70FD423818A368677
:104E8000AE86D18ED4A32183131607014182D83375
:104E9000018BBA863287558FD8B38347F4FE01461B
:104EA00081453E85EFE01F9CAA873E85F240624423
:104EB00005618280797106D622D40018AA87232C36
:104EC000B4FC232AC4FCA30FF4FC3727002083A6DC
:104ED000C186232AD7A6130747A79387C186DC4339
:104EE0005CC38347F4FD032644FD832584FD3E8592
:104EF000EFE05F97AA87A307F4FE8347F4FE81C71C
:104F00008347F4FE8DA0832784FD9C23139707011C
:104F10004183832744FD9AA3B7270020938747A79F
:104F2000032744FD1A239375F70FF423818A3686ED
:104F3000AE86D18EF4A32183131607014182F83384
:104F4000018BBA863287558FF8B38347F4FD032669
:104F500044FD832584FD3E85EFE0DF90AA87A3070B
:104F6000F4FE8347F4FE3E85B250225445618280B0
:104F7000011106CE22CC00102326A4FE0325C4FE78
:104F80003128AA8791E7B7270020938747AF11A060
:104F900081473E85F240624405618280797106D680
:104FA00022D40018232EA4FC8327C4FD83C7C71076
:104FB00099E3854715AA8327C4FD1387070883272C
:104FC000C4FD83C7C710C207C1833E86B727002030
:104FD000938547B03A85EF10F064AA876385071080
:104FE000B727002083C747B0858B13F7F70FB72784
:104FF0000020238AE7AEB727002083C747B0898BFC
:1050000013F7F70FB7270020938747AF98B3B72759
:10501000002083C747B0918B13F7F70FB727002005
:10502000938747AFB8A3B727002083C747B0A18BAA
:1050300013F7F70FB7270020938747AFB8B3B72709
:10504000002083C747B0C18B13F7F70FB7270020A5
:10505000938747AFD8A3B727002083C747B093F7FC
:10506000070213F7F70FB7270020938747AFD8B38E
:10507000B727002083C747B093F7070413F7F70F4C
:10508000B7270020938747AFF8A3B727002083C72F
:1050900047B093F707F813F7F70FB7270020938768
:1050A00047AFF8B3232604FE05A88327C4FE138761
:1050B0002700B7270020938747B0BA979823B727D0
:1050C0000020938647AF8327C4FEB69798A783270F
:1050D000C4FE85072326F4FE0327C4FE9547E3F6A6
:1050E000E7FC814711A085473E85B25022544561B7
:1050F0008280011106CE22CC00102326A4FE0325B7
:10510000C4FE3128AA8791E7B7270020938747B1CB
:1051100011A081473E85F240624405618280397169
:1051200006DE22DC80002326A4FC8327C4FC83C780
:10513000C71099E3854715AE214681451385C18780
:10514000EFB00F868327C4FC138707088327C4FCAE
:1051500083C7C710C207C1833E869385C1873A853E
:10516000EF10504CAA8763810730A30704FE230782
:1051700004FE8327C4FC83C7370481C79387D18784
:1051800019A09387C1872322F4FEA30604FEBDA8BD
:105190008347D4FE0327C4FCA1078E07BA97FA27DA
:1051A0008347D4FE8326C4FCA1078E07B6979E2BA7
:1051B000B3B7E70093F7F70F2320F4FE8347D4FE3D
:1051C0000327C4FCA1078E07BA97AE278347D4FEF6
:1051D0000327C4FCA1078E07BA97DC27832604FEA9
:1051E0003E86032544FEEF10505EAA873E87834724
:1051F000D4FE420741878607930604FFB69723949F
:10520000E7FE8347D4FE8507A306F4FE0347D4FEDA
:105210008547E3FFE7F6A30604FE85A08347D4FE97
:105220000327C4FC938787028607BA97BC273E876B
:10523000832744FEBA9798238347D4FE8326C4FC71
:10524000938787028607B697BC37F98F93F7F70FD6
:1052500085C38347D4FE0547B317F700139787012B
:1052600061878307F4FED98FE207E187A307F4FE85
:105270008347D4FE8507A306F4FE0347D4FE8D477B
:10528000E3FEE7F89147A306F4FE8DA08347D4FE22
:105290000327C4FC938787028607BA97BC273E87FB
:1052A000832744FEBA9798238347D4FE8326C4FC01
:1052B000938787028607B697BC37F98F93F7F70F66
:1052C0008DC38347D4FEF1170547B317F700139733
:1052D000870161878307E4FED98FE207E18723070F
:1052E000F4FE8347D4FE8507A306F4FE0347D4FEED
:1052F000AD47E3FDE7F88327C4FC03D7A70783275F
:10530000C4FC83D7C707B3B7E70093F7F70F232E83
:10531000F4FC8327C4FC03D767078327C4FC83C737
:1053200087078326C4FD3E86BA85032544FEEF1019
:10533000D049AA872315F4FE8327C4FC83C727041A
:105340008D8B13F7F70F8547631EF710A30604FE36
:1053500095A08347D4FE8607130704FFBA970397E7
:1053600087FE9307F00763DCE7008347D4FE8607D8
:10537000130704FFBA971307F0072394E7FE834748
:10538000D4FE8607130704FFBA97039787FE930797
:1053900000F8635CF7008347D4FE8607130704FF19
:1053A000BA97130700F82394E7FE8347D4FE8507D6
:1053B000A306F4FE0347D4FE8547E3FCE7F8031792
:1053C000A4FE9307F00763D6E7009307F0072315C1
:1053D000F4FE0317A4FE930700F86356F700930743
:1053E00000F82315F4FE031784FDB7270020239A45
:1053F000E7B00317A4FDB7270020938747B1BAA3EE
:105400008307F4FE858B139787016187B7270020F8
:10541000938747B1D8A38347F4FE858393F7F70FAB
:10542000E207E187858B139787016187B727002003
:10543000938747B1D8B38347F4FE898393F7F70F77
:10544000E207E187858B139787016187B7270020E3
:10545000938747B1F8A3B7270020938747B1035735
:10546000A4FE9AA7814711A085473E85F250625459
:1054700021618280411122C60008010032444101AD
:1054800073002030411122C6000801A0411122C63C
:1054900000080945EF107065AA8791C7EF10004D0D
:1054A0000945EF107066010032444101730020305D
:1054B000011106CE22CC00102326A4FE8327C4FEB1
:1054C0006385070E8327C4FE9C23858B93B7170043
:1054D00093F7F70F3E86C145B7170140138507C004
:1054E000EF10B0758327C4FE9C23858393F7F70FD5
:1054F000858B93B7170093F7F70F3E86930500024D
:10550000B7170140138507C0EF1030738327C4FE1F
:105510009C23898393F7F70F858B93B7170093F735
:10552000F70F3E8693050010B7170140138507C09B
:10553000EF10B0708327C4FE9C238D8393F7F70F81
:10554000858B93B7170093F7F70F3E8693050020DE
:10555000B7170140138507C0EF10306E8327C4FED4
:105560009C23918393F7F70F858B93B7170093F7DD
:10557000F70F3E86A165B7170140138507C0EF10EE
:10558000D06B8327C4FE9C23998393F7F70F858BF9
:1055900093B7170093F7F70F3E869165B717014051
:1055A000138507C0EF10706911A00100F24062443A
:1055B00005618280EFA23FBA797185451145EF20E0
:1055C000200785452145EF20A00685454145EF2070
:1055D000200685450545EF20A00537140140130539
:1055E00004800546A14502CA02CC02CEEF10F06449
:1055F000130504C0014693050033EF101064130532
:1056000004C00546B165EF10506385650546130576
:1056100004809385050CEF1050628D444149854903
:105620004C0813050480231A31014ACE26CCEF1012
:10563000504E214A4C0813050480231A41014ACEDA
:1056400026CCEF10104DF177938707334C081305E4
:1056500004C0FC824ACE26CCEF10B04B85679387FE
:10566000070CFC824C08D147130504803ECE26CCA3
:10567000EF10304A8545054502D002D202D402D649
:1056800002C602C8EF10D07A85452145EF10507A46
:10569000930780044C08130504C03ECE231A410131
:1056A000EF1030478D450545EF10105CA1470544CC
:1056B0003ED00810B1473ED422D602D2EF10503C63
:1056C0009307901168007C862307310122C8EF10F0
:1056D000705C45616FA07FAB797122D60018AA87F4
:1056E000A30FF4FCA30704FE8347F4FD2307F4FE95
:1056F000A30704FE2DA80347F4FEA16706079387BE
:10570000C79EBA979C230347F4FD631DF700034728
:10571000F4FEA16706079387C79EBA979C332307B9
:10572000F4FE21A88347F4FE8507A307F4FE034790
:10573000F4FE9307F006E3F0E7FC8347E4FE3E85C2
:10574000325445618280797106D622D40018AA8726
:10575000232CB4FCA30FF4FC232604FE0347F4FD22
:1057600093072006630DF7000347F4FD93078006B7
:105770006307F7000347F4FDF1476310F71283470F
:10578000F4FD13072006638AE70013078006638091
:10579000E70671476387E70AFDA883C751888DE74D
:1057A000832784FD89CB85472326F4FEB707002095
:1057B00023880700E5A00547A382E188B7070020FA
:1057C00023880700814719AC832784FD99C7B70751
:1057D000002023880700814711A4A38201889147F4
:1057E0002326F4FEB70700202388070045A883C7B7
:1057F00061888DE7832784FD89CB89472326F4FEC2
:10580000B70700202388070051A805472383E188B4
:10581000B7070020238807008147C9A2832784FD9A
:1058200099C7B707002023880700814745AA23832B
:10583000018895472326F4FEB70700202388070038
:10584000B1A883C771888DE7832784FD89CB8D47F5
:105850002326F4FEB70700202388070081A0054710
:10586000A383E188B7070020238807008147BDA2F2
:10587000832784FD99C7B707002023880700814745
:10588000B1AAA383018899472326F4FEB707002015
:105890002388070021A0814791A201008347F4FDDE
:1058A0008607139787016187832784FD858B93B7CC
:1058B000170093F7F70FE207E187D98FE207E18737
:1058C000A30FF4FCB707002083C707010347F4FDCB
:1058D0006314F700814719A2B70700200347F4FDBE
:1058E0002388E700054693050008B7170140138594
:1058F0000780EF109034014693050008B717014068
:1059000013850780EF10703313054006EF105071B8
:10591000054693050008B717014013850780EF106F
:10592000D03113054006EF10B06F23820188BDA867
:105930008307F4FD63DC0700014693050008B717F1
:10594000014013850780EF10502F11A805469305DD
:105950000008B717014013850780EF10102E83470A
:10596000F4FD8607A30FF4FC2945EF10706B014688
:1059700093050004B717014013850780EF10F02B43
:105980002945EF10F069054693050004B71701405B
:1059900013850780EF10702A2945EF10706883C7C0
:1059A0004188850713F7F70F2382E18803C74188F1
:1059B0009D47E3FFE7F613054006EF1070660546C6
:1059C00093050008B717014013850780EF10F026F4
:1059D00013054006EF10D0648327C4FE3E85B25005
:1059E000225445618280011106CE22CC0010A3070B
:1059F00004FE05A001468565B717014013850780A1
:105A0000EF10B0238347F4FE850793F7F70FA30742
:105A1000F4FE0307F4FEA547E3DEE7FC05468565D3
:105A2000B717014013850780EF103021B70700201A
:105A30007D572388E700A382018823830188A383FD
:105A400001880100F2406244056182805D7186C672
:105A5000A2C48008232EA4FA8327C4FB63840748CA
:105A6000232204FE8327C4FB982385476310F70293
:105A70008327C4FBB8238547631AF7008327C4FB39
:105A800098279307C0046313F700B13FB72700209E
:105A9000938707B298338327C4FB9C33630DF702C7
:105AA0008327C4FB9833B7270020938707B298B3A6
:105AB0001305100EEFF05FC2AA873E878327C4FB51
:105AC0009C33BE853A85EFF01FC82A87832744FEA2
:105AD000D98F2322F4FEB7270020938707B2B8237B
