:100000006F10E06D130000001300000013000000EB
:100010001300000013000000130000001300000094
:100020001300000013000000130000001300000084
:08003000130000007300100032
:100038000000000000000000CE100000D2100000F8
:10004800000000007616000000000000000000001C
:10005800781600007A16000000000000000000007A
:100068007C16000000000000D41000000000000012
:100078008016000082160000841600008616000014
:10008800881600008A1600008C1600008E160000E4
:1000980090160000921600009416000096160000B4
:1000A800981600009A1600009C1600009E16000084
:1000B800A0160000A2160000A4160000A616000054
:1000C800A8160000AA160000AC160000AE16000024
:1000D800B0160000B2160000B4160000B6160000F4
:1000E800B8160000BA160000BC160000BE160000C4
:1000F800C0160000C2160000C4160000C616000094
:10010800C8160000CA160000CC160000CE16000063
:10011800D0160000D2160000D4160000D616000033
:10012800D8160000DA160000DC16000000000000F7
:080138000000000000000000BF
:100140003D432A876373C3029377F700BDEFADE5A4
:10015000937606FF3D8ABA960CC34CC30CC74CC7B6
:100160004107E36BD7FE11E28280B306C3408A06E3
:100170009702000096966780A6002307B700A306A3
:10018000B7002306B700A305B7002305B700A304F3
:10019000B7002304B700A303B7002303B700A302EB
:1001A000B7002302B700A301B7002301B700A300E3
:1001B000B7002300B700828093F5F50F9396850072
:1001C000D58D93960501D58D61B79396270097023B
:1001D000000096968682E78086FA9680C1171D8F6A
:1001E0003E96E374C3F8A5B737070050834707006E
:1001F00093F7F70B2300F70083576703C207C18308
:1002000093F7F7BFC207C183231BF7028280B707AA
:10021000002003A707064111B747950806C6938734
:10022000074009456300F702B7E7B80593870780E1
:1002300005456309F700B777DC02938707C06315AC
:10024000F7000145EF10E06FB240854505654101BB
:100250006F10C07085476315F504B707005013078A
:1002600000F82380E700A3800700A381070013079D
:100270008004A386E7001387818498CF1387818841
:10028000D8CFA38D0702238F0702130790F823808E
:10029000E7007D572383E7000D472381E700828035
:1002A000B707005019472380E700828037070050C6
:1002B00083476700858B9DC385472303F7008346EB
:1002C00057008147858A81CE854711C989476307D1
:1002D000F500034717008547058B11C389473E8505
:1002E0008280B707005003C5170005898280B707D1
:1002F000005003C55700058113451500058982800C
:1003000037070050834737001375F50793F7070841
:10031000C98FA301F700828011C1F9B537070050DA
:100320008347070093E707042300F7008280411109
:1003300022C42A84014506C6E1377D35854763E03E
:100340008702370700508347170093F7970F93E70B
:100350002700A300F70001EC2D45EF10E0693707F7
:1003600000508347170093F7D70FA300F700094504
:10037000EF108068B707005005472383E700B240BD
:10038000224441018280411122C406C626C237049C
:10039000005083475400858BA1C783471400858B89
:1003A00081EFAA84A9372380A40019E583471400AC
:1003B00093E74700A300F400B707005003C71700F6
:1003C000014513671700A380E70003D7670313678E
:1003D0004700239BE702B2402244924441018280BD
:1003E0005945D5BF797122D426D24AD04ECE52CCAF
:1003F00056CA5AC85EC662C466C206D66AC0B70785
:100400000050A38DB702416AAA8A3289238FB702AE
:1004100093594500814437040050894B394C294B8E
:10042000A54C7D1A230C540323037401130D803E45
:1004300083476400898B91EB7D1D420D0545135D5B
:100440000D01EF100058E3150DFE230C0402834745
:100450006400898B81E71305E00F95A08347740042
:1004600093F70704C9E7034574003D8963038509D1
:10047000631C650363020908630649017D1942098B
:1004800013590901FD1493F4F40F3D45EF10605327
:1004900083476400858BB1E3850493F4F40FE39301
:1004A00064F91305000221A863889901B5476385A3
:1004B000F9008547E391F9FA69D913650502B2504D
:1004C000225492540259F249624AD24A424BB24BE8
:1004D000224C924C024D456182801305800CEF1036
:1004E000404E83471400858BC5FB5945C9BF014564
:1004F000F9B71305E002E1B71305A002C9B7797196
:1005000026D24AD056CA06D622D44ECE52CC5AC88B
:100510005EC6AA8A2E89B28419C223100600370447
:100520000050A147BD69231EF402138609A6814528
:100530001305000D453D631E0512B147A30DF402DE
:10054000230FF4028547231EF40213878188035486
:100550006700138B818869CC630C090C83878188C1
:1005600063CE0704D68BC20A93DA0A01370A005019
:10057000938909A613054006EF10A044DE87637334
:100580005401A287231EFA0281470357CA036397C7
:10059000E7108345EA034E864145A93579E983573B
:1005A000CA031D8C4204418081C88357CA0303D704
:1005B0000400BA972390F40055FC9DA8370A005018
:1005C000938909A6138B8184FD1A13054006EF1049
:1005D000403F8345BA034E8613050009213551E992
:1005E00003578A00A2876376870083578A00C20771
:1005F000C1831D8C4204418091C403D704003E97FF
:100600002390E400014793160701C182639ED70639
:100610003E9983578A00C207C18399C783578A00CE
:10062000B3F7FA0091E355F0B7070050239E070295
:1006300013054006EF10E038B707005083D7C70313
:1006400013050009C207C18391E341453D661306C6
:1006500006A69145413B11ED370700508357C7036C
:10066000C207C18399C783578700C207C18391C35B
:100670005D45B250225492540259F249624AD24A1C
:10068000424BB24B45618280B306670103C6060048
:10069000B306E90005072380C600B5B78346090005
:1006A0003307FB008507C2072300D7000509C18374
:1006B000E9BD011122CC1384C181184026CA4AC861
:1006C00006CEA1472300F50023A4E1885840938774
:1006D0008188AA84D8C3034505001306E1002E894A
:1006E000393D01ED83477900035764002380F4000E
:1006F0008357E10063F3E7005D45F2406244D24472
:10070000424905618280797122D49387418198435F
:10071000DC4326D24AD04ECE52CC06D623A4E18862
:1007200013878188B2895CC336862A8A2E8936C6A9
:10073000F93329EDB2469387418103D7670083D50A
:10074000060063E4E5040347390083452900138666
:10075000818822074D8FBA8563F3E900CE859843DF
:10076000DC432390B60023A4E1885CC283D7060053
:100770002254B2509254F249CA8552850259624AB3
:100780002313F600368645619DBB5D45B250225469
:1007900092540259F249624A45618280138741822C
:1007A00014435843411122C426C223A4D18806C64B
:1007B000938781882391B700AE84D8C301468145D1
:1007C0003D3B2A8411E52685253E1545EF10C022C4
:1007D0002285B24022449244410182801387C18223
:1007E0001443584323A4D188938781882391B70069
:1007F000D8C30146814521B31387C18014435843B0
:1008000023A4D18893878188D8C32392B700014657
:100810008145F5B103A741E1B707871A938707F030
:100820006314F70483A6818C3757AA551307A75A78
:100830009307F00F639BE6003787FFF72A97A166BF
:10084000814763FFE6009307E00F3E858280330710
:10085000F500834607003387F50085072300D7009E
:10086000E317F6FE8147D5B79307F00FF9BF69711B
:1008700023248112232611122322911223202113D3
:10088000232E3111232C4111232A511123286111C8
:100890002AC61377F60F32849357860015EF3EC4AD
:1008A00003A741E1B707871A938707F06308F702A8
:1008B0001305F00F8320C1120324811283244112F7
:1008C000032901128329C111032A8111832A4111AD
:1008D000032B0111556182808507D1B783A6818CD6
:1008E000B757AA559387A75AE394F6FCB787FFF743
:1008F000AA97A1661305E00FE3EEF6FAAE84814AEB
:100900003A8A130BF00FA24763E6FA00EF00B066D5
:1009100001454DB783A741E1E39C47F9EF00D06360
:100920003245EF00306663688B04EF00F0623245B9
:10093000130600100C08F93D814763948702324585
:10094000931904010C0893D90901EF009066B2478E
:1009500033043441850A938707103EC693840410FC
:100960005DB7B386F40083C6060018083E972300DF
:10097000D7008507D9B73245A68593090010EF0047
:100980005063F1B703A741E1B707871A938707F0D0
:100990006313F70483A6818C3757AA551307A75A08
:1009A000FD576398E602B787FFF7AA97216763743C
:1009B000F700814739A88147E30DF6FE3307F500BC
:1009C000B386F5000347070083C606008507E38565
:1009D000E6FE3E858280FD57EDBF011126CAB75461
:1009E000AA5522CC9384A45A4AC84EC652C406CEF5
:1009F0002A89AE89328A23A4918C953D23A4018C47
:100A000009E95286CE854A8523A4918CA53F23A46B
:100A1000018CF2406244D2444249B249224A056103
:100A20008280411106C6EF0090046F70605DB24095
:100A30004101828019C9AA8537550000411113056B
:100A400045B006C6EF20903001A0828037550000E7
:100A500041111305058606C6EF2090433755000067
:100A600013058588EF20D042EFF06FFA0545EFF0CF
:100A70006FFE7D468145138501DFEFF06FEC370592
:100A800000201306A01081451305C512EFF04FEBAF
:100A9000375500001305C589EF20903FEF00303631
:100AA00023AC01F0B24023A801E023A601DE4101FE
:100AB00082805D71A2C42A8437550000130585AA7F
:100AC000A6C24EDE52DC56DA5AD85ED686C6CAC0F8
:100AD00062D466D26AD0EF20B03B7D453305A402D4
:100AE000138401DF8144938B81DD375B0000930920
:100AF0003500130A4500A299229A2A94130540064C
:100B0000EF00906F850493F4F40F214533159500A1
:100B1000EF00906E0145EFF09F810149014C194DA6
:100B2000930C40064E85EFF01F8619E5050C137CEB
:100B3000FC0F636B8D1101490509420905451359E5
:100B40000901EF00706BE31F99FD9547E3F897FAF1
:100B5000D94521A837550000130585ACEF20101F9B
:100B60009547E3FD97F893055004B6402644964414
:100B70000649F259625AD25A425BB25B225C925CDD
:100B8000025D2E8561618280B75C000013854CADEB
:100B9000EF2010301545EF00306637550000130583
:100BA00085ADEF20B01A03454400938581E193069B
:100BB000E1011306F00F813EAA8539ED938781E1AB
:100BC00003CD57000149138C81E18357E10163682C
:100BD000F9022945EF20901B37550000130585AE1B
:100BE000EF20D01603454400EA85CD3EAA8529E1D1
:100BF0002AC613854CADEF20B029B245BDB7B30767
:100C00002C0183C50700050913050BAB4209EF2032
:100C1000F0131359090155BF37550000130585AC72
:100C2000EF20D0129547E3FB97EC9305700435BF96
:100C300037550000130585ACEF2050119547E3FFB1
:100C400097EA9305B00F15B703453400EFF0CFECEA
:100C500037550000130545AFEF20500F938581DD18
:100C60005285813CAA85E31705EE0149494CB3073B
:100C7000790183C5070013050BAB0509EF20100DA3
:100C8000E31789FF2945EF20701037550000130541
:100C900085ABEF20B00B034544008947894523010C
:100CA000F400ED3CAA85E30105EE3755000013057D
:100CB00085ACEF20B0099547E3F297E49305600413
:100CC0006DB5011122CC03C501DF26CA06CEEFF0B7
:100CD000EFDD8547AA846315F50637550000130537
:100CE00045A2EF20F01A03C501DFEFF02FDC938758
:100CF00001DFA38207000145238891DE5D3B2A8640
:100D00001DE12AC6375500008145130505A3EF20D4
:100D1000F00332468D472388F1DEF2406244D2442C
:100D20003285056182803755000081451305C5A5D0
:100D3000EF20D00189472388F1DE1306200FF1BF91
:100D40001306F00F79F93755000081451305C5A842
:100D5000EF20C07F938701DF83C457007D46814524
:100D6000138501DFEFF0CFBD1305A010B384A402FB
:100D7000370500201305C5121306A01081452695DE
:100D8000EFF00FBC1306100F49BF397126DA06DEEB
:100D900022DC4AD84ED652D456D25AD05ECE62CC3D
:100DA00066CA6AC86EC6313F29E59147238CF1189F
:100DB0002944375A0000B75900003759000013057D
:100DC000CA8BEF20F00CEF106075AA856317051031
:100DD000375500001305058DEF20407783C5811935
:100DE000375500001305858EEF2040760547238C8C
:100DF000E18283C7811911476372F70C938781835E
:100E000003C7070045CF3704871AB75500009385FD
:100E10000593130404F01385C1112380070023AA4E
:100E200081E0EF20B007EF10B070420541819307D9
:100E3000300B6306F500930720046313F50E375556
:100E4000000013050594EF20B00437590000375512
:100E5000000093054996130585968969EF20006F78
:100E60000144FD5A930B2004130C3004375A000040
:100E700093890971930549961385C111EF201002DA
:100E80001385C111EF20B0029387C1113E95230055
:100E9000550123A4811AEF10B06993170501C1838E
:100EA000638E7701639F8705A2851386C1111305A1
:100EB000CA970504EF208069E31E34FBF2506254A8
:100EC000D2544259B259225A925A025BF24B624CA6
:100ED000D24C424DB24D2161828013850990EF20A2
:100EE000E06683C58119130589917D14EF200066A2
:100EF0004204130520034180EF001030E31104EC9D
:100F0000CDBD6254F250D2544259B259225A925A2B
:100F1000025BF24B624CD24C424DB24D216119BE84
:100F20003755000013058599EF20807603AA811AB2
:100F3000375500001305859BD285EF20206123AA39
:100F400081E023AC01F023A801E0B70B002023A629
:100F500001DE130DF003138C81E1938DC111938B8E
:100F60008B2363050A04D28C63744D01930CF00348
:100F70009387C11123A28701239E9111EF20E039AD
:100F8000553C83D7C111814A93060040330AFA4089
:100F90003788000883D7C11163EBFA08E3F397FDA4
:100FA000375500001305459DEF20806EEF20602A25
:100FB00003A581F103A601E1B7870008B70500206A
:100FC000938585233E95113C1375F50FA53403A732
:100FD00001E183A7C1DE83A5811A37550000BA97C6
:100FE00023A6F1DE03A6C1DE1305459EEF200056C1
:100FF00083A7C1DE03A7811A6312F70A37550000E1
:101000001305C59FEF20C0689305401F2945752231
:101010006254F250D2544259B259225A925A025B47
:10102000F24B624CD24C424DB24D2161DDBA03A766
:101030004D0083A701E1569703470700DE97238001
:10104000E70083A701E1850723A8F1E083A701E179
:101050006391D70403A581F103A601E1DE854295E2
:10106000EFF0BF971375F50FEFF0DF9C83A781F1C9
:1010700093060040378800089387074023ACF1F0BF
:1010800003A701E183A7C1DEBA9723A6F1DE23A857
:1010900001E0850AC20A93DA0A01EDBD3755000066
:1010A000130585A0EF20C05E6254F250D25442591D
:1010B000B259225A925A025BF24B624CD24C424DC8
:1010C000B24D93054006130540062161FDA0730053
:1010D000203001A06F60D07201A07165411113052D
:1010E000052006C6EF00B014EF00100B192A3715C3
:1010F0000140916513050580EF00700119E1EFF0E3
:101100005F929305401F0D454D28EFF03F94B53990
:10111000FDBFB71702409843B706FFF813671700E3
:1011200098C3D843758FD8C39843B706F7FEFD160A
:10113000758F98C39843B706FCFFFD16758F98C34B
:10114000D843B70681FFFD16758FD8C337079F00B8
:1011500098C7B746024003A706801367070123A07C
:10116000E680D843B706C1FFFD16D8C3D843D8C31D
:10117000D84313670740D8C3D843758FD8C3D84323
:10118000B7063C00558FD8C39843B7060001558F6A
:1011900098C3984393166700E3DD06FED843B7165D
:1011A0000240719BD8C3D84313672700D8C3214797
:1011B000DC42B18BE39EE7FE8280411122C426C24D
:1011C0004AC006C62A89AE84014463482401B2405D
:1011D00022449244024941018280014691653715BB
:1011E0000140EF0060742685EF001001054691650F
:1011F00037150140EF0040732685EF00E07F0504BE
:10120000E9B701118545114506CE22CC26CA4AC848
:10121000EF00A07685454145EF0020763719014063
:101220009164930780024C001305098023129100FA
:101230003EC6D523896741444C001305098023121B
:10124000F10022C6C92B8D474C00371501402312EF
:10125000910022C63EC4C123054691653715014061
:10126000E125F2406244D244424905618280411145
:101270008145114506C61127B240814541454101CE
:10128000EDAD79714ECE62C406D622D426D24AD0B4
:1012900052CC56CA5AC85EC666C26AC0B70700506A
:1012A000A38D070213978501238F07026187AA89FF
:1012B000328C635507001147A38DE70293F50504AF
:1012C00091C5B70700501147238FE702416993D4B6
:1012D00049000144B70C0050894A394B294AA54BB3
:1012E0007919238C3C0323835C01130D803E83C753
:1012F0006C00898B89EB7D1D420D0545135D0D0149
:10130000C925E3160DFE238C0C0283C76C00898B64
:1013100081E71305E00FB1A883C77C0093F70704AA
:10132000BDEF03C57C003D89630D65076318450368
:10133000630C0C06636389017D1C7D141374F40F28
:101340003D45412583C76C00858BB1E305041374CB
:10135000F40FE31844F91305000221A8638874010F
:10136000B5476385F4008547E395F4FA71D91365B1
:101370000502B250225492540259F249624AD24AAA
:10138000424BB24B224C924C024D45618280130578
:10139000800C052DEFE0FFF455F95945D9BF014503
:1013A000C9BF1305E002F1B71305A002D9B70111B7
:1013B00006CE83C70500AA851306E1002317F100B6
:1013C00003C541DFEFF0AF93F2400561828003C5B2
:1013D00041DF01119306E100130600109385818817
:1013E00006CEEFF04FB2F24005618280AA8503C5B8
:1013F00041DF6FF0AFBEAA8503C541DF6FF0CFBFFD
:10140000797122D44ECE8D6926D24AD052CC56CA9A
:101410005AC85EC662C466C26AC006D62A8A2E8BC5
:10142000814413848188130C00F89389A9808D4A24
:1014300083C7D11D5A8523068401B317FA001CC443
:1014400083C7811C2317340123080400A306F4007A
:1014500083A74119A30A0400230B040013D78701B3
:10146000A308E40013D707012309E40013D787007A
:10147000230AF400A309E400A30B4401230C040095
:10148000EF00D00183C7011A93F7F70FB9C726857C
:10149000EF00704C2380A11A83C7011A93F7F70F4E
:1014A0009DC303C5011A1375F50FB250225492540F
:1014B0000259F249624AD24A424BB24B224C924CF8
:1014C000024D45618280850493F4F40FE39254F752
:1014D000FD472380F11A7D45C9BF0145F9B77971F0
:1014E00022D44ECE8D6926D24AD052CC56CA5AC882
:1014F0005EC662C466C206D62A8A2E8B81441384D5
:1015000081889389A9A08D4A83C7D11D5A85230656
:101510000400B317FA001CC483C7811C23173401CD
:1015200023080400A306F40083A74119A30A0400BA
:10153000230B040013D78701A308E40013D7070186
:101540002309E40013D78700230AF400A309E40069
:10155000A30B4401230C0400EF00407483C7011A5D
:1015600093F7F70F95E31305800CA1290145B250BD
:10157000225492540259F249624AD24A424BB24B27
:10158000224C924C456182802685EF00D03C23801E
:10159000A11A83C7011A93F7F70F91C703C5011A60
:1015A0001375F50FE9B7850493F4F40FE39E54F532
:1015B000FD472380F11A7D455DBF37070050834703
:1015C0003700894693F7F707A301F70083475700D1
:1015D0000347370093F7F70F1377F70F631BD70015
:1015E00093F6170099C6918B014581CB238CE118A6
:1015F00082800547238CE118594582808280411101
:1016000006C6B52DAA853D471305F00F637FB704C5
:1016100037550000130545B1EF1050739387C1F1A2
:1016200023A0F11823A4F1162547238C0118A38EBB
:10163000E11C130700202396E11A1307000423AED0
:10164000011A2391E11CB70700509386C70123AE0E
:10165000D1169386870123A2D11E9386C70323AE9A
:10166000D114A10723A4F1180145B24041018280A1
:1016700061A601A001A001A001A001A001A001A0FC
:1016800001A001A001A001A001A001A001A001A052
:1016900001A001A001A001A001A001A001A001A042
:1016A00001A001A001A001A001A001A001A001A032
:1016B00001A001A001A001A001A001A001A001A022
:1016C00001A001A001A001A001A001A001A001A012
:1016D00001A001A001A001A001A001A001A097F11B
:1016E000FF1F93812118174100201301A191173585
:1016F00000001305654D97F5FF1F9385A590138690
:10170000818363FAC5008322050023A055001105DB
:101710009105E3EAC5FE138581839385011F6377F5
:10172000B500232005001105E36DB5FEFD42739061
:1017300002BC8D42739042809302800873A00230F5
:1017400097F2FFFF9382828F93E2320073905230C0
:10175000EFF03F9C6FF07F98B7066745B7270240D0
:10176000938636123797EFCDD4C31307B79AD8C3F1
:10177000D4D3D8D38280372702401C4BA166D58FA3
:101780001CCB8280B7270240984BB7060200137526
:1017900005F0558F98CBC8CB984B1367070498CBAF
:1017A000D847058B75FF984B8176FD16758F98CBC2
:1017B0008280372702401C4BC166137505F0D58F18
:1017C0001CCB5C47858BF5FF372702405C47898B34
:1017D000F5FF3727024013060010B386F50003A873
:1017E0000600B306F50023A006015447898AF5FEDA
:1017F0009107E394C7FE1C4BB7062000D58F1CCB86
:10180000B7270240D847058B75FF984BC176FD1668
:10181000758F98CB82809C4513F7070113F8F7006A
:1018200001C7D8413368E80037270240145B370707
:10183000000F758F45EF8546A38CD1823717014085
:101840006317E50003D7050035832390E50083D5B2
:10185000050013F7F50F39C318418146854E3D4FFA
:10186000930F800293028004214E3396DE00B3F87A
:10187000C500631116039398260033131F01134309
:10188000F3FF3377E300B318180133E7E8006397F9
:10189000F70750C98506E39AC6FD18C11307F00F74
:1018A0006375B70454412146854E3D4F930F800226
:1018B00093028004414EB398CE0033F71501639232
:1018C000E8021317260001173313EF001343F3FF49
:1018D000B376D3003317E800D98E6395F703232A34
:1018E00015010506E319C6FD54C182803717014072
:1018F000E31FE5F403C7918339DBA9B7E39C57F8ED
:1019000010C949BFE39F57FC23281501D9BFB7175A
:1019100001406316F50083C7918391C3B5810845E3
:101920006D8D3335A0008280B71701406316F50036
:1019300083C7918391C3B58119C20CC982804CC9F8
:101940008280B7170240D843B70640FFFD16758F57
:10195000D8C3D8435A05598DC8C3828099C5371753
:1019600002405C4B5D8D48CB8280B7170240D84B5C
:101970001345F5FF798DC8CB828099C53717024092
:101980001C4F5D8D08CF8280B7170240984F1345DA
:10199000F5FF798D88CF8280B707002083A70706DF
:1019A00037177A0013070720B3D7E70293F7F70F2B
:1019B000238EF1821307803EB387E702239DF182D5
:1019C0008280B7F700E0D8438146799BD8C303C72C
:1019D000C1833306A70290CBD4CB9843136707018A
:1019E00098C398431367170298C3D843058B75DFD4
:1019F0009843799B98C38280B7F700E0D84381462B
:101A0000799BD8C303D7A1833306A70290CBD4CB4D
:101A100098431367070198C398431367170298C345
:101A2000D843058B75DF9843799B98C38280828069
:101A300032858280138741801C439386011F3E9527
:101A4000636BD500B75600209386068063E5A60039
:101A500008C33E858280FD57EDBF4111094506C68A
:101A600022C426C2313183C7011AA385F11EEFF0CB
:101A7000DFB4AA8735E903C781198D46930730087B
:101A800063F4E60683C6811E130610022384C18810
:101A90007D5693878188A384C18823810700A38111
:101AA00007002382D700A382070023830700A383B4
:101AB00007008145EFF0BF8F2380A11A5947AA87FD
:101AC0006304E50203C5C1183D89EFF0DF9203C549
:101AD000C11D3D8913650508EFF0FF9183C7B11E55
:101AE000A385011E2380F11AB240224492443E8510
:101AF000410182804111054706C6238CE118EFF0B1
:101B0000DFAB19E113053008B24041018280411179
:101B100022C483A7411903A7011D06C6014563849A
:101B2000E70283A5811603A7011823A8F11C630807
:101B3000B7020545EFF0DF8C2380A11A09E903C540
:101B4000011A1375F50FB2402244410182807D577E
:101B500023A0E11E23A8E11C23860116CDB705456D
:101B600023A0F11EEFF0DF892380A11A69D9C5B740
:101B7000411122C483A7411903A7011E06C60145CE
:101B80006384E70283A5011803A7811623A0F11E31
:101B90006308B7020545EFF0BF862380A11A09E963
:101BA00003C5011A1375F50FB2402244410182802A
:101BB0007D5723A0E11E23A8E11C23860116CDB783
:101BC000054523A8F11CEFF0BF832380A11A69D932
:101BD000C5B783A7411983A58116411103A7011831
:101BE00022C406C623A8F11C6305B7020545EFF021
:101BF0001F8F2380A11A01C97D5723A0E11E23A8AE
:101C0000E11C23860116B240224403C5011A41019A
:101C1000828023A0F11ED9BF83A7411983A5011893
:101C2000411103A7811622C406C623A0F11E630535
:101C3000B7020545EFF0BF8A2380A11A01C97D577D
:101C400023A0E11E23A8E11C23860116B2402244F2
:101C500003C5011A4101828023A8F11CD9BF03C624
:101C6000411683A7411B03C7911E83A6411DF91787
:101C7000B397C7003697BA9723AAF11882804145D7
:101C8000828083C7811993F7F70F63E6A700238C3F
:101C9000B11801458280E38EB7FEA9BD797126D2C5
:101CA0001307500556CA2384E18813073005A3841F
:101CB000E18883A7C115130720042385E188130752
:101CC000300422D44AD04ECE52CCA385E18806D629
:101CD0007D475AC85EC662C42390E7002A8483C544
:101CE000B11E03C5C11837060200EFF08FD923805B
:101CF000A11A5947630FE514938B818815CD9387FB
:101D000081889384818A98439107D8CFE39D97FE79
:101D1000A933DE879853910723AEE7FEE39C97FE35
:101D200083C5B11E03C5C11837060200EFF06FD599
:101D30002380A11A631B051683C49B0003C68B0076
:101D400083C7AB0003C7B11E83C6BB00A204D18CFE
:101D5000C207C58F1347070493948601A385E11E2C
:101D6000DD8C638404108386CB0083D7211C63D46D
:101D70000608138B818491A000C383C5B11E03C5DF
:101D8000C11D37060200EFF0CFCF2380A11A631FD9
:101D9000051403C7B11E83A6811883D7211C1347DE
:101DA0000708A385E11E83D6060063E2F4189D8C24
:101DB000639FD7143E94638C041403A7411EE3FD74
:101DC000F4FA2320670155BF23A088002390F60072
:101DD00083D7211C9D8C3E94EFF0AFCA2380A11ABB
:101DE0002DE103C7B11E13470704A385E11E6387D6
:101DF000040E83D7211C03C8C118BA853706020018
:101E000083A8C11783A6C1154285E3FFF4FA23A076
:101E1000780123909600814703460400B38677013A
:101E20008507C2072380C600C1830504E39697FE99
:101E300037060200BA854285EFF0AFC42380A11AAD
:101E400061CD03A7C1179307E00223207701630048
:101E5000F508B250225492540259F249624AD24AC9
:101E6000424BB24B224C4561828003C5C11D3706EF
:101E70000200BA85EFF0EFC02380A11A79F983C779
:101E8000B11E03A7811893C707F8A385F11EFD476C
:101E90002380F11A03570700B5476315F70203C5FE
:101EA000418531C1854763FFA7002254B250925447
:101EB0000259F249624AD24A424BB24B224C456126
:101EC0006FF0BFB903C5011A1375F50F59B703C5F4
:101ED000C1183D89EFF02FD203C7B11E83A7C117E8
:101EE00023A0770159B72380011AA5B783A6411E05
:101EF0001307E00223A06601E31DE5F403C5C11D3D
:101F00003D8913650508EFF00FCF03C7B11E83A706
:101F1000411E23A0670191BF03C7B11E83A7C1174C
:101F200013470704A385E11E23A077013DBF63E5A6
:101F3000D402F1DE9387F6FFC207C1838507A2971B
:101F40005A878346070005040507A30FD4FEE39ACA
:101F500087FE03C7B11E65BF93960401C182D9BF36
:101F60004111294506C6EFF0AFF003C7811C9387E6
:101F70008188A386E700C94619472384D7002387B1
:101F8000E700930600F80D47A387E700A384070046
:101F9000494723850700A38507002386D7001385BB
:101FA000818AA389E70023880700A3880700238983
:101FB0000700238A0700A38A0700238B0700A38B4F
:101FC0000700238C0700EFF07FCD1545EFF04FEAB7
:101FD00083C7011A014593F7F70F81CF03C5011A93
:101FE000D9471375F50F6309F500D547630CF50064
:101FF0000145B240410182800547238CE11823AEA0
:10200000011AC5BF0947238CE118E5B73971A54707
:1020100022DCA38EF11CBD47238CF11626DA4AD8A8
:102020004ED652D456D25AD05ECE62CC66CA6AC858
:102030006EC606DE938D818893848117214B930AA7
:1020400000F8130A5002A949854C4D4D35A863F993
:10205000DC0A6307A70BA380E400193703C58117C7
:1020600003C7140072057D85137585F71305850C6C
:102070002380E11AEFF0CFDF03C781177D171377B5
:10208000F70F238CE1162DCF03C7811C1385818A9E
:1020900023846D01A386ED00A3840D0023850D002C
:1020A000A3850D0023865D01A3874D0123880D00C4
:1020B000A3880D0023890D00238A0D00A38A0D003B
:1020C000238B0D00A38B0D00238C0D0023873D0176
:1020D000A3890D00EFF09FBC03C7011A1377F70F18
:1020E0009306B7FE93F6F60F3DF383C76D021147D3
:1020F0006382E70421476384E70441476388E70478
:1021000003C7D11D8547B397E700C207C183F250CB
:1021100062542396F11A03C514004259D254B2599D
:10212000225A925A025BF24B624CD24C424DB24D53
:1021300021618280A38E311D93070040C9BFAD4746
:10214000A38EF11C856793870780D1B7B147A38E13
:10215000F11C85676DBF411126C2AA84054506C6DC
:1021600022C4EFF0EFD0854763F1970683C781194A
:10217000C94693F7F70F6388D700C14663F8F600A6
:10218000238CD11821A09547238CF11883C7011AFD
:1021900093F7F70FAD1793F7F70F05476374F70041
:1021A000C13311CD0945EFF0AFCC03C5011AD947B2
:1021B0001375F50F630AF502D5476301F504B240C4
:1021C0002244924401454101828083C7011A93F75A
:1021D000F70FE9F00945EFF0AFC903C5011AD94778
:1021E0001375F50FE31AF5FCB24022440547238C22
:1021F000E11823AE011A924441018280B240224488
:102200000947238CE11892444101828039716EC6DE
:1022100006DE22DC26DA4AD84ED652D456D25AD01E
:102220005ECE62CC66CA6AC8EFF02FB9AA8D71E99A
:1022300083C781190D476376F70E9147238CF118F8
:10224000EFF0EF982380A11AAA8D45ED938C818839
:1022500083C6EC002147639DE60C03C6FC0023887F
:10226000011A99466315D60085462388D11A03C7FB
:102270007C0183C5BC0003C66C0183C6EC0103C8A6
:10228000DC0103D3211C2207A2062384B11E518F37
:10229000238C0116B3E6060103C64C0183C5BC01BD
:1022A00003C8C11803CEC11D6310670862066186AA
:1022B0001373F600634606081368030101460543DD
:1022C000639EE61E1397850161879376F700138B53
:1022D0008117634607080947238CE116A300BB005A
:1022E00013E80601631F06182386011961A083C63F
:1022F000011A1306E002630FD62003C7011A937D6B
:10230000F70FF25062546E85D2544259B259225A94
:10231000925A025BF24B624CD24C424DB24D21615B
:102320008280930D3008F1BF13898117A300C90083
:10233000FD472380F11A03C7011A937DF70FD1B728
:10234000136E030905460143E38EE6F69387811772
:10235000238CC116A380B700238EC11DD1BF93E685
:1023600006F90947238CE116A300BB00238ED11C7C
:10237000E31C03F603C55C00EFF04F872380A11A2E
:10238000AA8D41F183C6811E130610FA03A5011818
:102390002384C1887956A384C188854A938591177F
:1023A000238C011623810C00A3810C002382DC0006
:1023B000A3820C0023835C01A3830C00EFE03FFFAA
:1023C0002380A11A0DF583461B006398560183A64E
:1023D000011883C60600238CD1161545EFF04FA9CE
:1023E000FD5623A0D11E23A8D11C03A501182386C6
:1023F0000116A385011E2384011C0146130C400213
:10240000930B00F8194BC94A130A4002A386CC006B
:1024100023848C01A3840C0023850C00A3850C006D
:1024200023867C0123876C01A3875C0123880C0031
:10243000A3880C0023890C00A3894C01238A0C007B
:10244000A38A0C00238B0C00A38B0C00238C0C00A4
:10245000EFF0DF8483C6011A054693F6F60F8DE68A
:1024600083C68117B9C283C6811CA1E203A50118E6
:10247000954783460500639AF60285472384F11C3D
:1024800071B7238EC11D8DB583C68117A9C283C6BE
:10249000811C8947138616001376F60F63E9D7026D
:1024A0002384C11C03A5011895B783C781198D46E4
:1024B00063F2F6049547238CF118A1B59387811731
:1024C000238C6116A380B7002386011995B5625449
:1024D0002384011CF250D2544259B259225A925AC2
:1024E000025BF24B624CD24C424DB24D054521612C
:1024F0006FF07FC66254F250D2544259B259225AF8
:10250000925A025BF24B624CD24C424DB24D216169
:102510006FF04FDE0145EFE01FEEC1B5411126C25D
:1025200022C406C623AE0110EFF02F892A8441E1B0
:1025300083C7811911476372F7089387818803C79E
:10254000811C23840700A386E7001947A3840700A2
:1025500023850700A3850700238607002387E7005C
:102560001385818AA387070023880700A3880700B3
:1025700023890700A3890700238A0700A38A07008D
:10258000238B0700A38B0700238C0700EFF00FF1CC
:1025900083C7011A93F7F70F99CB83C7011A238CCE
:1025A000F116EFF0FF9B03C481172380811A228567
:1025B000B2402244924441018280EFF03FC511C9EC
:1025C00013050004EFF0CF8AEFF05FC419C12A842D
:1025D000F9BFEFF0BFA305E59387818803C6170213
:1025E00083C5070283C6270203C7370222064D8E22
:1025F000C206D18E6207558F23AEE11089B703C49E
:10260000011A1374F40F65B783C78119397106DE97
:1026100022DC26DA4AD84ED652D456D25AD05ECED2
:1026200062CC66CA6AC86EC611476374F73803A7DE
:10263000C11BFD5723A0F11E23A8F11C2386011600
:10264000B7573412937607FF93870767638AF63686
:102650009384C119A38004002380011CA384011E5C
:1026600023A4011A2D6A130A5AA5138D811723AAD0
:102670000118930B900E930D0004EFF06FCF6314CD
:10268000051283C6140003A6011899E683470600C5
:1026900093F7D70F638B77178357E61F63984731FC
:1026A00083CE011C238ED119638FBE2F9387EE1B1F
:1026B000B29783C5A70003C7B70003C8870003C547
:1026C0009700A301ED00238C0117A300AD002301A7
:1026D000BD0083A5811783C74700154723AAB118FA
:1026E000238CF1166387E72A3D476384E72A7687C0
:1026F000014F01433545054E1548BD489DA083C790
:102700008117FD1793F7F70F930F07019382F6FFD9
:102710006367F500637EDE0E93F6F20F054F13F745
:10272000FF0F9307E71BB2976306B70B03C3A7001E
:1027300083C5B70083CF970023016D00A301BD00BF
:10274000A300FD0183C5870083C747000543238C91
:10275000B11683A58117238CF116638F0701638D52
:102760001701939F870193DF8F4193F7F703E3D816
:102770000FF8238CF11671B723AAB11863040F0068
:10278000A380D400238EE11883A7811A83C6911EEB
:10279000BE9523AAB118E39206EE4107A384E11E79
:1027A00023A4B11AF9B5EFF04FABEFF03F86EFF08D
:1027B0002FBCE30805ECF2506254D2544259B2598E
:1027C000225A925A025BF24B624CD24C424DB24DAD
:1027D000216182806304030023AAB11863040F00FF
:1027E000A380D40083C7911E13070004238EE11831
:1027F000638B071A63990E1A03C714002380F11C18
:1028000023A4011ABD47E314F7E683A5411905A0E7
:102810006302031E23AAB11863040F00A380D4002F
:10282000238EE11883A7011EBE9523AAB11823AEFB
:10283000B11AEFF0EFB341F183A501181307900E21
:1028400083C7050093F7D70F6390E71A83C7D500B6
:10285000139787012380F11C61876342071819478A
:1028600086072382E11693F7F70F014519479396E0
:102870008701E1861306F7FF860763C70610137703
:10288000F60F93F7F70F05457DF385472382011671
:102890002380F11C03D5650123A2A11A01E5C851CB
:1028A00023A2A11A83C7450103C63501A207D18F10
:1028B00023A2F11881E79C5123A2F11803C6250138
:1028C00083C8150183D6C11A03C3D11D22063366FE
:1028D0001601958283D8E500B296FD161306B3FF64
:1028E000B3D6C6403386160103CF05012A9623A826
:1028F000D11623A8111923ACC1168946630DDF0830
:1029000023A2011A83A64119918F33D7E700369687
:1029100023AAC11C23A6E11CC167D11763EBE704FE
:102920002393011C8567D11763EBE7060547A38650
:10293000E1166383080283A7011799CF85476305D2
:10294000FF0083A7411A89CB03C5B50011E503C772
:10295000C500854763E5E70A83C71400C9EB8547CF
:10296000A380F4002380011CA384011E23A4011A68
:10297000D5B9DC5503D6050323A8F1162393C11C52
:102980000D47A386E11675B7E30605F02382E1162D
:1029900011B77687D5BB2A9623ACC116A5B70947D0
:1029A000A386E11679B71305200931B5130510097F
:1029B00019B5EFF0BF85E31005E0EFF02FE585B91D
:1029C0003D8B9384C119A380E4002380011CA38460
:1029D000011E23A4011ABD47E316F7C83DB51D47E4
:1029E0002382E1161D477DB51305100AE9B31305CF
:1029F000300AD1B3E3080FE2A380D40025B583C722
:102A00008119B69823A8111911476376F700C147B9
:102A1000238CF1184DB36254F250D2544259B2593A
:102A2000225A925A025BF24B624CD24C424DB24D4A
:102A300021616FF02F8C01114AC883A7011D26CA9E
:102A400022CC06CE4EC623AAF118EFF08F982A8426
:102A500011E583A7411A99EB238601162285F240DE
:102A60006244D2444249B2490561828003A74119B8
:102A700083A58116BA97054523AAF118EFE03FA672
:102A800003A741192380A11A03A6411A83C7011A7B
:102A9000118F23AAE11893F7F70FDDDF03C4011AA2
:102AA000FD5723A0F11E23A8F11C238601161374E1
:102AB000F40F6DB7797152CC03C8D11622D426D247
:102AC0004AD006D64ECE56CA5AC85EC689472A890B
:102AD000014403A701166301F8128D47630CF81037
:102AE00093571700137417003E9783D6C11A83C7F4
:102AF000D11D83A5811603A60119FD16F98EB357C2
:102B0000F70003A7011DAE96B29723AED11823A0FC
:102B1000F1166383E70203C7C11611C7EFF0BFF1D7
:102B20005DED83A7011623AAF118EFE05FFE45E9EA
:102B300003C8D11683A6C119630F09009147630822
:102B4000F9168547630FF90E83A7411B23A0F116E1
:102B500005472386E1162382011C89476300F80A92
:102B60000D4783A701166301E80E03C5060013F89D
:102B7000F70F83D5C11A1377F5009318480003A601
:102B80008116336717019384811791831377F70FA9
:102B9000FD15A380F4002381A400238CE116B30764
:102BA000B600638AF61083C71600A381F400631091
:102BB00009086309040E83D72400918305672391D4
:102BC000F4005917636CF70A03C7411C23ACF116D4
:102BD0003369E900631B090423AAF11A0145B250C5
:102BE000225492540259F249624AD24A424BB24BA1
:102BF000456182800A07D5BD0607C5BD03D706001B
:102C000023ACE116C167D91763FDE700854723822E
:102C1000F11C630C090083A7011601452390F600FF
:102C20007DBFE31A09FE23AAE11A01454DBF31CC4D
:102C30002380E60083A7C11903C71400A380E7001F
:102C40009DBF23A0011629B798423706001013052F
:102C5000F6FFB70500F0F98DE98FCD8F698F23A0BE
:102C6000F11623ACE1165916637CE606054723826C
:102C7000E11CE30C09FA9CC2014595B70547238284
:102C8000E11C23ACF116014599BF2380060183C7DF
:102C9000340003C7140083A6C119C19B1183D98FC7
:102CA000A380F60083D72400D207D18301BFFD574C
:102CB00023A0F11671BD6318090283C7C11685EB05
:102CC00083A7011D850723AAF118EFE05FE4E3184D
:102CD00005F083A7811683C70700A381F400D1BD47
:102CE000E31B09F889B711E042872380E600EFF083
:102CF0009FD4E31605EE83A7011D850723AAF118CB
:102D0000EFE0FFE0E31D05EC83A6811603C7060094
:102D1000A381E400E30F09E883C7140001E4419BA9
:102D20009183D98F2380F60005472386E11651B59C
:102D30005D7156DA83C7811986C6A2C4A6C2CAC00D
:102D40004EDE52DC5AD85ED662D466D26AD06ECEDF
:102D50003D47637CF72C83C781193D47637DF7109E
:102D6000C147238CF11883C6C1112385011E6386D8
:102D700006301307C0056387E6301307F00263834C
:102D8000E6301387C111034617009307A0036306BB
:102D9000F62A3EC483A6411783A7411D32C623AC41
:102DA000E11C13848117638D061C83C5411603C67D
:102DB000011C1387E6FF3317B700BA97A384C11E1F
:102DC00023ACF11A6302062423AAF118EFE05FDABC
:102DD0005DE583D7C11A2397011A6384072083A571
:102DE000011823AEB11883C70500B9CB930D500E5F
:102DF0002D45930BC0056381B70315476394E70026
:102E00009307500E03A8811D834608006388F608C7
:102E10001307A0026384E60883D7E11A03D7C11A17
:102E200093870702C207C1832397F11A63FBE71A4E
:102E300083A50118BE9523AEB11883C70500C5FF51
:102E400083A6811D81471306A0029305C0051305C3
:102E5000F00239A0630EC7006303B7226301A72203
:102E60003387F60003470700850793F7F70F7DF3D5
:102E70001305200429A0EFE0FFC7E30605EEB640E6
:102E8000264496440649F259625AD25A425BB25BD2
:102E9000225C925C025DF24D616182809D8E93B6F0
:102EA000160036872301D4003386D500B307E80027
:102EB00083C70700034606009308F0021303E002ED
:102EC000214E930E0002130F1700638EC702F9C73D
:102ED0006386770D6384170D639D670C6304C701D8
:102EE000631AD6152301E401A14603472400338663
:102EF000D50003460600B307E80083C70700130F99
:102F00001700E396C7FC050785061377F70F230123
:102F1000E40093F6F60FE39AA6FC42978347070076
:102F2000A301F40083C7B500A18BE39707EE2382CA
:102F3000011C83A7C119A24583D6A70103C6D116D8
:102F40000D4723AAD1166318E60003D747014207AD
:102F5000D98E23AAD11603473400630B072403C775
:102F6000411C631707240347240083A7811D05071D
:102F7000BA9723ACF11CB24783A7411DE39706E241
:102F800003A701179376F70F958F1377F70FA38495
:102F9000E11E23ACF11AE31907E25DB51307000245
:102FA000631EE6021D47E36DD7F603C78500E309FC
:102FB000C7F6A301F4001307A002E39FE7E483C769
:102FC000B500A18BE39A07E483A7811A63890714EC
:102FD00063C10712FD1723A4F11A3DBDA301F4003C
:102FE00025BD03C7911E83A7811B7D178507137716
:102FF000F70F23ACF11AA384E11EE31707DCA24705
:1030000083A64117E38E06E2014523A0D116EFF017
:103010007FAAE31605E683C7411CE39307E283A674
:103020008117A24723AAD116B9B7EFF0EFDDE30469
:1030300005D2B1B5A3016400C5B393072004E3FA38
:10304000D7D41387F11123ACE11C9387F11189A028
:10305000D84F23A4E11A91E67D57A384E11E23A44F
:10306000011A83C781193D476378F718D147238C2C
:10307000F11883C7411C63990716014509B513056B
:10308000300BF5BB1387D11123ACE11C9387D11111
:1030900083C6D1160D476384E60603C707003EC406
:1030A00036C623AA011683A7411D8146E31B07CE1E
:1030B00083A6011703C6D11DA24513F7F60F998FFA
:1030C0003317C700094623AAC1162380D11CB24674
:1030D00023AAF11C23A4E11A894623AAD11A23A208
:1030E0000118A384011EC947238CF118130510048D
:1030F00079B3EFE0AFD083A7811A2D45E1BD83A658
:10310000011783C707003AC423AAD11689C73EC650
:1031100083A7411D79B17D5723A4E11A7DBF238C7C
:10312000011683A7811D0147130500022148154E92
:1031300015539308E002AD451DA82300D60083C7B0
:10314000811783A6811D99EB03C606006318C6018B
:103150002380660083C7811783A6811D850793F7A7
:10316000F70F238CF116B6970507630DB70283A6F8
:10317000C1193E86BA9683C60600E387A6FEE31E03
:1031800007FB2380170183C7811783A6C11903A6F4
:10319000811D850793F7F70F238CF11683C68600F0
:1031A0003E9661BF2380070085472382F11C51B3FF
:1031B00003C7B70023AAD11A23A20118A384011EB2
:1031C000418BE30707E883C78119FD5623A4D11A71
:1031D0003D47637EF700CD47238CF11883C7411C20
:1031E00013051004E38D07C81305300449B9EFE057
:1031F0007F90E31605C8DDB7EFE0DF8FE31105C868
:103200008DBD83C781192385011E4D476364F70077
:103210000145828003A7811B411106C623AAE1183C
:10322000EFE01F9509ED03D7E11A83A701180145C7
:10323000BA9703C7B70023AEF118418B01C7B2405C
:103240004101828003A7811AB240D8CF41016FE0CB
:10325000BF9C411122C483C7811906C6454793F715
:10326000F70F6372F7084947638BE70483C7811937
:103270004D4793F7F70F6361F7022385011E83C75C
:1032800081193D476378F702C147238CF118014546
:10329000B2402244410182805147638CE70483C7D6
:1032A000A11EF1DFEFF0FFF565F583C781193D47FA
:1032B000E36CF7FC2244B24041016FE0BF8303C7D7
:1032C000D1168D47E304F7FA83C5411603A6411DC5
:1032D00083C7011705473317B700B2972380E11C56
:1032E00023AAF11C61B7B24022441305400B4101EF
:1032F000828083C7C111C5F749B703A74117D545D8
:103300009337170023AAE11AB307F04023A201184C
:103310005145A384F11E6FE0DF9603C7811939710F
:1033200006DE22DC26DA4AD84ED652D456D25AD0FD
:103330005ECE62CC66CA6AC86EC6D546638DE600AC
:1033400083C7811951471305400B6318F712EFF03B
:10335000DFFA6314051283D7C11183C6911E938DC2
:10336000C1112394FD00239E01101307F00F638504
:10337000E610416A130BFAFF6380071003A7811A56
:1033800083A7411863FAE70EEFE07F8D83A7811AC8
:1033900063E34701DA8703D78D00C207C18363F374
:1033A000E7003E8783D7C11A03A64118BA86938CDB
:1033B000F7FFB3FCCC00C20C93DC0C01636FF70C7D
:1033C000639D0C0C83D6C11183A54D00B69593F671
:1033D0003500F9E203C5D11D83C7011C03C6911E48
:1033E0003357A7404207918F418393F7F70F6373D9
:1033F000F700BA87939C070193DC0C0113FCFC0FC8
:103400006285EFD0FFFF35E983C7D11D03D68D005C
:1034100003C8911EB397FC009396070103A54118BA
:1034200083D5C111C182B3FC6701B307D64033070E
:103430000C01C20703C6011C1377F70FAA9CC183B6
:10344000AE96A384E11E23A291192394FD00239E2E
:10345000D110E363C7F283A7411B014523A0F116F6
:10346000EFF04FE519E983C7411CE9EB83D78D00E5
:10347000A384011EE39407F00145F2506254D25434
:103480004259B259225A925A025BF24B624CD24CC8
:10349000424DB24D21618280BE86B38C9741939795
:1034A0000C01C18363F3F600B68CC20C93DC0C01F3
:1034B000EFE00FEC79F103D6C11A83A6411803A7F8
:1034C000011883D5C11183A74D007D163375D60031
:1034D0002A97AE9763870C021386FCFF420641824F
:1034E00005063E9605078346F7FF8507A38FD7FE9F
:1034F000E31AF6FE03D6C11A83A6411883D5C1117B
:103500007D1683D78D00E696E695B3879741C2076F
:10351000C18323A2D1182394FD00239EB110F18E04
:10352000E39C06E403C7911E83C6011C05071377BD
:10353000F70FA384E11EE370D7F23DBD83A74118C6
:103540007D57A384E11E23A4F11A05BF39713EDA29
:103550002ED232D436D63AD842DC46DE93878180EA
:1035600022CC804326CA06CEAA8409C41C4C99E307
:1035700022859D2B0C4454102686228536C6EF00EA
:10358000B01CF2406244D2442161828001119387D1
:10359000818022CC804306CEAA8519C41C4C89E7C1
:1035A0002AC622859123B245104422856244F24006
:1035B00005616F00B07E011126CA4AC806CE22CC32
:1035C0004EC652C4AA842E8901C51C4D91E3292BF5
:1035D0009C4C804499E32685012B97170000938724
:1035E000E756631CF402C0408357C400A18BB1C7E7
:1035F0001C48A1C7FD59294A1C4483450900FD17F1
:10360000B1E91CC463DE07062286A94526854D283C
:10361000FD576308F502294535A0971700009387E9
:10362000E7546314F4008044C1B7971700009387F0
:10363000E74FE31BF4FAC04445BFA28526858922E3
:1036400055D97D55F2406244D2444249B249224A9A
:10365000056182801CC4050963D70700184C63CB41
:10366000E700638945011C401387170018C02380B9
:10367000B70059B722862685A120E31F35F7D1B7B9
:103680001C401387170018C029472380E70061B743
:1036900093878180AA8588436FF0FFF1AA8703C7CB
:1036A000050085078505A38FE7FE75FB8280AA8745
:1036B000850703C7F7FF6DFF3385A7407D1582801F
:1036C000011122CC26CA4AC806CE4EC6AA842E892B
:1036D000328401C51C4D91E301299717000093879F
:1036E000E7466319F406C0401C4C1CC48357C40051
:1036F000A18BC9C31C48BDCF1C4808409379F90F62
:103700001379F90F1D8D5C486346F500A285268567
:10371000652C2DE51C440505FD171CC41C401387B2
:10372000170018C0238037015C486389A7008357BE
:10373000C400858B81CBA9476316F900A285268535
:1037400061240DEDF24062444A85D2444249B249B7
:103750000561828097170000938747416314F40046
:10376000804459B7971700009387473CE31EF4F64F
:10377000C0449DBFA285268521203DDD7D59D9B756
:1037800041119387818026C2844322C44AC006C661
:103790002A892E8489C49C4C99E32685B1269717E3
:1037A00000009387A73A631CF402C0400317C400CB
:1037B00093170701C18393F68700B5EE93F60701CF
:1037C0009DEEA5472320F900136707042316E400A4
:1037D0007D55B240224492440249410182809717AC
:1037E00000009387A7386314F4008044C1B797178B
:1037F00000009387A733E31BF4FAC04445BF918BC5
:103800008DC74C5889C9930744046384F5004A85E1
:10381000A923232A04028357C4002322040093F718
:10382000B7FD2316F4001C481CC08357C40093E75F
:1038300087002316F4001C4881EF8357C400130748
:10384000002093F707286385E700A2854A85B52104
:103850008357C40013F7170005C75C4823240400EE
:10386000B307F0401CCC1C480145A5F78317C400E2
:1038700013F7070839DF93E707042316F40089BF1D
:10388000898B014791E3584818C4F1BF83D7C5001D
:10389000011122CC26CA06CE4AC84EC613F78700AD
:1038A000AA842E8471EFD841634DE000B841634A89
:1038B000E0000145F2406244D2444249B249056108
:1038C000828058547DD703A904009396370123A022
:1038D000040063DD060670488357C400918B99C7C6
:1038E0005C401D8E5C5899C33C401D8E5C540C504E
:1038F000814626858297FD570357C400631DF50056
:103900009440F54763E8D706B70740208507B3D74B
:10391000D700858BA5C31C48232204001CC0931725
:10392000370163D80700FD576314F5009C4091E30D
:1039300068C84C5823A02401ADDD93074404638478
:10394000F50026851929232A0402A5B70C50014643
:10395000854626850297FD572A86E31FF5F69C408B
:10396000A5DF75476385E70059476394E70423A003
:10397000240181B7136707042316E4007D551DBF9A
:1039800083A90501E38709F203A905008D8B23A014
:10399000350133093941014791E3D84918C4E35A45
:1039A00020F11C540C50CA864E86268582976349A6
:1039B000A0008357C40093E707042316F4007DBFDB
:1039C000AA993309A940E1BF9C49A5C3011122CCA2
:1039D00006CE2A8411C51C4D81E72EC63122B24580
:1039E0009717000093878716639CF5004C408397D8
:1039F000C5009DC722856244F24005616FF01FE952
:103A000097170000938787166394F5000C44C5B799
:103A10009717000093878711E39BF5FC4C44C1BFC7
:103A2000F240624401450561828001458280411176
:103A300022C406C62A842316B5002317C5002320F6
:103A40000500232205002324050023220506232840
:103A50000500232A0500232C050021468145130576
:103A6000C505EFC0EFED97170000938767BE5CD0E8
:103A7000971700009387C7C01CD49717000093873F
:103A800007C55CD4971700009387C7C700D01CD820
:103A9000B24022444101828097050000938505F3DE
:103AA00091AA411126C2130680069384F5FFB384C0
:103AB000C4024AC02E8922C406C6938544079126B3
:103AC0002A8401CD2320050023222501310508C4C5
:103AD000138684068145EFC0AFE62285B2402244BA
:103AE00092440249410182801C4DA5E7411106C65E
:103AF00022C497070000938767FA1CD593874183F8
:103B00009C43232405042326050423280504631469
:103B1000F50085471CCD2A84352848C022851D28FC
:103B200008C42285052848C4484001469145EFF065
:103B30001FF008440546A545EFF07FEF48440946CD
:103B4000C945EFF0DFEE85471CCCB240224441016D
:103B50008280828041119387418326C284434AC078
:103B600006C69C4C22C42A8981E72685EFF0DFF740
:103B7000938484048044DC40FD1763D607009C4096
:103B8000B9CF8440C5BF0317C40039E7C1778507A3
:103B900023220406232004002322040023240400FB
:103BA0005CC423280400232A0400232C040021469B
:103BB00081451305C405EFC0AFD8232A0402232C86
:103BC000040223240404232604042285B240224450
:103BD00092440249410182801304840671BF9145D9
:103BE0004A85EFF01FEC88C049FDB1472320F9005A
:103BF0000144E1BF797122D44AD052CC56CA5AC886
:103C00005EC606D626D24ECE2A8AAE8A1304850414
:103C10000149054BFD5B09ECB25022544A85925490
:103C20000259F249624AD24A424BB24B4561828004
:103C3000044483294400FD1963D409000040E1BF16
:103C400083D7C400637BFB008397E400638777011D
:103C5000A6855285829A3369A90093848406E1BFC0
:103C60001971A6DAAE848395E500A2DC86DE328483
:103C700063DC050083D7C40023A0060093F7070880
:103C800085E7930700401DA0300836C6EF00102DD1
:103C9000B246E34105FE7247BD67F98F7977BA975F
:103CA00093B717009CC2F1BF930700041CC0F650E5
:103CB0006654D65401450961828083D7C50001113D
:103CC00022CC06CE26CA4AC8898B2E8489CF930778
:103CD00074041CC01CC885475CC8F2406244D244CE
:103CE00042490561828074003000AA84EFF05FF7DA
:103CF000A2452A892685312201ED8317C40013F7D6
:103D0000072061FFF19B93E727002316F400C1B75A
:103D100097070000938787D89CD48357C40008C0B6
:103D200008C893E707082316F400A2475CC8B24707
:103D300091CF8315E4002685EF00F02401C9835755
:103D4000C400F19B93E717002316F4008357C400C7
:103D50003369F9002316240149B7DDC183A7C5FFE4
:103D6000411122C406C626C21384C5FF63D30700CF
:103D70003E94AA84EF001028938701849C4381EF2E
:103D80002322040023A081842244B2402685924449
:103D900041016F005026637EF40014403307D400C5
:103DA0006396E7009843DC43369718C05CC0D9BFE0
:103DB000BA87D84319C3E37DE4FE94433386D70022
:103DC000631F86001040B29694C33386D700E31D6C
:103DD000C7FA10435843B29694C3D8C375B76375F6
:103DE000C400B1479CC04DB71040B306C400631671
:103DF000D70014435843B29614C058C0C0C369B723
:103E00008280011126CA93843500F19806CE22CC17
:103E10004AC84EC6A104B14763F5F404B14463E453
:103E2000B4042A89EF00101D9387018498433A84D3
:103E300029E4938741849C4399E781454A85EF00B3
:103E4000407E23A2A184A6854A85EF00807DFD598E
:103E500063193507B1472320F9004A85EF00B019EF
:103E600029A0E3DE04FAB1471CC10145F2406244D7
:103E7000D2444249B249056182801C40858F63CF9C
:103E80000702AD4663F6F6001CC03E9404C031A0A4
:103E90005C406313870223A0F1844A85EF00B015CC
:103EA0001305B4009307440061993307F5405DDFC3
:103EB0003A94898F1CC05DBF5CC3C5B72287404060
:103EC00085BF130435007198E30285FCB305A44057
:103ED0004A85812FE31C35FBB5BF1C46FD171CC668
:103EE00063DA0700184E63C5E700A9476394F5003D
:103EF0006FF00FFD1C422E851387170018C2238018
:103F0000B7008280011122CC26CA4AC84EC652C4CC
:103F100006CE2A89AE893284B304D6007D5A631452
:103F20009400014511A8834504004E864A85EFF0B0
:103F3000DFFA0504E31545FFF2406244D2444249EA
:103F4000B249224A05618280357122CD26CB4AC909
:103F50004EC706CF52C556C35AC1DEDEE2DCE6DAF2
:103F6000AA89AE843289368409C51C4D99E3EFF0E5
:103F7000BFB797170000938767BD639DF40C83A4B8
:103F8000490083D7C400A18BE5CB9C48F5C79307B4
:103F90000002A304F1029307000302D22305F102F9
:103FA00022C6930B5002971A0000938A2ABE054C32
:103FB000294B4A848347040099C36392770FB30C5B
:103FC0002441638E0C00E6864A86A6854E85EFF076
:103FD0007FF3FD576307F51E9256E69636D2834768
:103FE00004006380071EFD571309140002C802CEA7
:103FF0003ECA02CCA309010482D4834509001546B8
:104000005685EF00807D13041900C24759E913F764
:10401000070109C713070002A309E10413F787008A
:1040200009C71307B002A309E10483460900130777
:10403000A0026380E608F2474A848146254603478A
:10404000040093051400130707FD6379E60AB5CA57
:104050003ECE85A897170000938747B16395F4007B
:1040600083A4890039BF97170000938727ACE39A90
:10407000F4F083A4C90031B7A6854E85EFF04FF068
:1040800019D57D55FA406A44DA444A49BA492A4A60
:104090009A4A0A4BF65B665CD65C0D618280050429
:1040A00011BF330555413315AC00C98F3EC8228975
:1040B000A9B7324793064700184336C6634907023B
:1040C0003ACE034704009307E002631FF704034757
:1040D00014009307A002631BF702B2470904138779
:1040E00047009C433AC663C107023ECA35A833075E
:1040F000E04093E727003ACE3EC8E1B7B3876703B5
:1041000085462E84BA9725BFFD57C5B7050402CA58
:104110008146814725460347040093051400130791
:1041200007FD6376E606F1F2834504000D46171598
:104130000000130525A6552511CD9717000093877C
:1041400067A51D8D93070004B397A700424505049A
:104150005D8D2AC883450400194617150000130514
:10416000A5A3130914002304B102852D3DC197C7EF
:10417000FFFF938727E995E74247B2471377071078
:1041800009CF91073EC69257D2973ED21DB5B3874D
:10419000670385462E84BA97BDBF9D07E19BA107A3
:1041A000D5B7780097060000938606D626860C08B9
:1041B0004E8597000000E7000000FD572A8AE314AF
:1041C000F5FC83D7C40093F70704E39C07EA125574
:1041D00055BD780097060000938606D326860C0806
:1041E0004E85012AD9BF797156CA9C49BA8A984529
:1041F00022D426D24ECE52CC06D64AD05AC85EC65B
:10420000AA892E84B284368A63D3E700BA879CC019
:104210000347340419C385079CC01C4093F7070269
:1042200081C79C4089079CC0032904001379690059
:10423000631A0900130B9401FD5B5C449840998F4D
:10424000634CF9041C408346340493F70702B336E9
:10425000D000A5EB13063404D2854E85829AFD5713
:104260006303F5041C4011469840998B54448144E3
:104270006397C700B384E64063D3040081441C44C1
:1042800018486354F700998FBE94014969047D5B17
:1042900063982405014509A885465A86D2854E852E
:1042A000829A631E75017D55B25022549254025970
:1042B000F249624AD24A424BB24B456182800509BB
:1042C000ADBF3307D40013060003A301C70403479F
:1042D000540493871600A2978906A381E7049DBF23
:1042E00085462286D2854E85829AE30E65FB0509B6
:1042F00045B7797122D426D24AD04ECE06D652CCBA
:1043000056CA5AC8B68983C6850193079006328972
:10431000AA842E8413863504638DF60263E2D706E1
:10432000930780056388F61863EDD7006381062242
:1043300093073004638EF60A930A24042301D404FD
:10434000C9A0930730066385F60A93074006E395F4
:10435000F6FE1C40084393F6070893054500C5C6C2
:104360001C410CC363D807001307D002B307F04009
:10437000A301E404971600009386868229476DA85E
:10438000930700076384F61663E5D7029307E006F8
:10439000638BF6189307F006E390F6FA0C401C4383
:1043A00013F80508138547006307080608C39C43F4
:1043B0008DA893075007E383F6FE93078007638B6E
:1043C000F61293073007E399F6F61C43D041814576
:1043D0009386470014C383AA07005685FD2E01C5A6
:1043E0003305554148C05C401CC8A301040471A8B2
:1043F0001C43930A2404938647009C4314C323015F
:10440000F4048547D5B793F607041C410CC3B9DA09
:10441000C207C18781BF93F5050408C3C9D983D7F3
:1044200007001307F0066388E60E970600009386E0
:1044300026772947A30104044C400CC463C505003A
:1044400008406D9908C099E3B28A91CDB28AB3F55C
:10445000E702FD1AB69583C505002380BA00B3D5DF
:10446000E70263F0E70CA147631EF7001C40858B51
:1044700091CB58401C4863C7E70093070003A38F04
:10448000FAFEFD1A3306564110C84E87CA867000E0
:10449000A2852685EFF03FD57D5A631E450B7D55DD
:1044A000B250225492540259F249624AD24A424BC3
:1044B00045618280A382D504970600009386466EEC
:1044C0000C40084313F805081C411105630D080250
:1044D00008C313F7150001C793E505020CC0414757
:1044E000B1FB0C4093F5F5FD0CC0A9B79C4193E7D7
:1044F00007029CC193078007A302F40497060000FB
:104500009386466B75BF13F8050408C3E30308FCE4
:10451000C207C1837DBF9706000093866668214766
:1045200011BFAE872DB794411C43CC4913F8060840
:10453000138547006306080008C39C438CC301A889
:1045400008C393F606049C43F5DA2390B7002328AA
:104550000400B28A1DBF14485686CA8526858299F2
:10456000E30F45F31C40898B8DE7B2474844E3597C
:10457000F5F23E8535B785465686CA8526858299E9
:10458000E30F65F1050A5C443247998FE345FAFE73
:10459000E9BF014A930A94017D5BF5B7011122CC72
:1045A00006CE2A8409C91C4D99E732C62EC4EFF005
:1045B000AFD33246A2459707000093872759631669
:1045C000F60250401C46FD171CC663D00704184E67
:1045D00063C7E70093F7F50F29476398E702228541
:1045E0006244F24005616FF0AF8D9707000093873A
:1045F000E7576314F6001044F1B79707000093875C
:10460000E752E311F6FC504475BF1C4213F5F50F59
:104610001387170018C22380B700F2406244056177
:104620008280411122C42A842E8523A6011E06C63B
:10463000EFD04FC0FD576317F5009387C11E9C4311
:1046400091C31CC0B240224441018280411122C466
:104650002E848395E50006C64522634905007C4803
:10466000AA977CC8B2402244410182808357C4008B
:104670007D777D17F98F2316F400EDB783D7C5003A
:10468000011122CC26CA4AC84EC606CE93F707109F
:10469000AA842E843289B68991C78395E50089461C
:1046A000014631228357C4007D777D17F98F231689
:1046B000F4008315E4006244F240CE864A86B24993
:1046C00042492685D24405613DA8411122C42E8469
:1046D0008395E50006C6E128FD570357C400631B18
:1046E000F500FD77FD17F98F2316F400B240224440
:1046F000410182808567D98F2316F40068C8FDB711
:104700008395E50005A8411122C42A842E85B2852F
:10471000368623A6011E06C6EFD08FB1FD5763175C
:10472000F5009387C11E9C4391C31CC0B240224434
:1047300041018280411122C42A842E8523A6011EB4
:1047400006C6CD20FD576317F5009387C11E9C4315
:1047500091C31CC0B240224441018280411122C455
:104760002A842E85B28523A6011E06C6D120FD57B8
:104770006317F5009387C11E9C4391C31CC0B240D0
:10478000224441018280411122C42A842E8523A61D
:10479000011E06C66520FD576317F5009387C11EED
:1047A0009C4391C31CC0B24022444101828041110C
:1047B00022C42A842E85B285368623A6011E06C60B
:1047C0006120FD576317F5009387C11E9C4391C379
:1047D0001CC0B24022444101828093F5F50F2A9615
:1047E0006314C5000145828083470500E38DB7FE51
:1047F0000505FDB782808280411122C42A842E855E
:10480000B285368623A6011E06C6A920FD5763176A
:10481000F5009387C11E9C4391C31CC0B240224443
:10482000410182809307800523A6F11E7D55828079
:104830009307800523A6F11E7D558280930780058E
:1048400023A6F11E014582809307800523A6F11E51
:104850007D5582809307800523A6F11E7D558280B9
:1048600055534220486F7374202620554469736B5A
:10487000204C696220496E697469616C697A61745F
:10488000696F6E2E200D0000555342465320486F2D
:10489000737420496E69740D0000000055446973FB
:1048A0006B206C69627261727920496E697469610A
:1048B0006C697A6174696F6E2E200D00576169749E
:1048C000204469736B2052656164792E2E2E0D0091
:1048D0004469736B20526561647920436F64653A63
:1048E000253032782E0D0A004348525633446973FE
:1048F0006B5374617475733A253032780A00000086
:104900004E6F7420526561647920436F6465203A6C
:10491000253032782E0D0A004348525633446973CD
:104920006B5374617475733A253032782E0A000027
:104930002F5249534B594B564D2E555044000000B1
:104940004150502066696C65206E6F7420466F750B
:104950006E642C205374617920496E204941502E99
:104960000D0000002F2A00004C69737420616C6CEC
:104970002066696C65732025730D0A0020206D6127
:104980007463682066696C652025303464233A209E
:1049900025730D0A0000000046696C6520466F759E
:1049A0006E642C20537461727420494150205072FF
:1049B0006F636573730D000046696C652073697AD7
:1049C0006520696E2062797465733A2025642E0D26
:1049D0000A0000000D0A46696C6520456E642E0DC4
:1049E000000000000D0A46696C65537A65203A2084
:1049F00025642C25642E0D0A000000000D0A494193
:104A00005020456E642E0D00494150206C656E6744
:104A1000746820636865636B73756D204552522E10
:104A2000200D00005553422044657620496E2E002B
:104A300055534220506F72742025303278204465DF
:104A40007669636520456E756D65726174696F6E18
:104A500020537563636565640D0A00005553422059
:104A6000506F727420253032782044657669636512
:104A700020456E756D65726174696F6E2045525286
:104A800020253032782E0D0A0000000055534220B8
:104A9000506F7274202530327820446576696365E2
:104AA000204F75742E0D0A00456E756D3A0D00008D
:104AB000253032782000000053657420446576412B
:104AC0006464723A20000000457272282530327802
:104AD000290A00004F4B0000476574204366674475
:104AE0006573633A20000000536574204366673A9B
:104AF0002000000047657420446576446573633A7E
:104B0000200000004572726F723A253032780D0A2B
:104B1000000000006C696220766973696F6E3A2547
:104B20003032780D0A000000000000000000000094
:104B30000000000000000000000000000000000075
:104B40000000000000000000000000000000000065
:104B50000000000000000000000000000000000055
:104B60000000000000000000000000000000000045
:104B70000000000000000000000000000000000035
:104B80000000000000000000232D302B200000005A
:104B9000686C4C006566674546470000303132332B
:104BA0003435363738394142434445460000000029
:104BB0003031323334353637383961626364656693
:044BC00000000000F1
:104BC40000000000484B0000684B0000284B000028
:104BD40000000000000000000000000000000000D1
:104BE40000000000000000000000000000000000C1
:104BF40000000000000000000000000000000000B1
:104C040000000000000000000000000000000000A0
:104C14000000000000000000000000000000000090
:104C240000449508500A0020000000200201000002
:104C3400000000008006000200000400800600015D
:104C44000000120000050000000000000009000040
:084C5400000000000000002038
:00000001FF
