:100000006F30F03E130000001300000013000000EA
:100010001300000013000000130000001300000094
:100020001300000013000000130000001300000084
:08003000130000007300100032
:100038000000000000000000DA270000DE270000B2
:1000480000000000863B00000000000000000000E7
:10005800883B00008A3B0000000000000000000010
:100068008C3B0000000000008E3B000000000000F8
:10007800903B0000923B0000943B0000963B000040
:10008800983B00009A3B00009C3B00009E3B000010
:10009800A03B0000A23B0000A43B0000A63B0000E0
:1000A800A83B0000AA3B0000AC3B0000AE3B0000B0
:1000B800B03B0000B23B0000B43B0000B63B000080
:1000C800B83B0000BA3B0000BC3B0000BE3B000050
:1000D800C03B0000C23B0000C43B0000C63B000020
:1000E8008C39000068020000A6390000CE3B0000F1
:1000F800D03B0000D23B0000D43B0000D63B0000C0
:10010800D83B0000DA3B0000DC3B0000DE3B00008F
:10011800E0270000E23B0000E43B0000E63B000073
:10012800E83B0000EA3B0000EC3B00000000000058
:080138000000000000000000BF
:100140003D432A876373C3029377F700BDEFADE5A4
:10015000937606FF3D8ABA960CC34CC30CC74CC7B6
:100160004107E36BD7FE11E28280B306C3408A06E3
:100170009702000096966780A6002307B700A306A3
:10018000B7002306B700A305B7002305B700A304F3
:10019000B7002304B700A303B7002303B700A302EB
:1001A000B7002302B700A301B7002301B700A300E3
:1001B000B7002300B700828093F5F50F9396850072
:1001C000D58D93960501D58D61B79396270097023B
:1001D000000096968682E78086FA9680C1171D8F6A
:1001E0003E96E374C3F8A5B7797122D426D22E8443
:1001F000AA848545094506D602CA02CC231E010001
:1002000002C602C8EF30D059231A810037040040DB
:100210004C0813050440231C9100231D0100231BDF
:100220000100EF30D0590546854513050440EF30F5
:10023000D0629307D0122316F10089472307F100FB
:10024000680085473EC8EF30D0441305044085451B
:10025000EF30F05EB2502254B7E700E0096723A206
:10026000E710925445618280411122C63704004054
:10027000854513050440EF30B05F45C9854513053A
:100280000440EF30B0603717002083460764894789
:1002900063FDD7089305076483C615000D4683C721
:1002A00055006396C60413074044B387E702370737
:1002B00000201307870D8146BA9703C8070063061D
:1002C000D80603C5A7003E86014709A88345360224
:1002D00005071377F70F8505A301B6020506E31797
:1002E000E5FE850693F6F60F93870711C9BF2546ED
:1002F000639DC60213054044B387A702370600205A
:100300009306860D03C36500130707641305860D66
:10031000094E8D4E130F4044B69783C6470285069B
:100320002382D70281466316D30032444101730011
:100330002030834777006376FE048347870063920B
:10034000D7058347C7008145B387E703AA9783C2D0
:1003500007006388B20283CFA7003E88014609A840
:100360008348380205061376F60F8508A3011803A3
:100370000508E397CFFE850593F5F50F93870711E1
:10038000C9BF850693F6F60F190771BF03474500ED
:10039000A1466306D70083C7E5006396D700A1474F
:1003A0002300F60082809D466304D7006394D70043
:1003B0009D47FDB78D466304D7006394D7008D47F2
:1003C000C5B7A5466304D7006394D700A547C9BF46
:1003D000FD57F9B7397126DAB714002022DC52D460
:1003E00056D25AD05ECE62CC06DE4AD84ED666CA07
:1003F0006AC80144371B0020B71A0020B71B002031
:1004000093840464371A0020371C0020130540062B
:10041000EF30B04E05041374F40F214533158500F9
:10042000EF30B04D0145EF10603801498149194D59
:10043000930C400613053B64EF10803D19E58509D8
:1004400093F9F90F63603D07014905094209054524
:1004500013590901EF30704AE31E99FD9547E3F700
:1004600087FA594531A09547E3F287FA13055004FE
:10047000F2506254D2544259B259225A925A025BF3
:10048000F24B624CD24C424D216182809547E3FF92
:1004900087F613056004E9BF9547E3F987F613056E
:1004A0007004F9B79385CA6213854B64EF10E06B53
:1004B0005DF903C544000949894523812401EF10F2
:1004C000900169F5154523812401EF30104303C5E0
:1004D00044009306E1001306004093050A66EF10FE
:1004E000406E5DF993070A6693050A661385CA6232
:1004F00013061C6403C95700513D03C54400CA8557
:10050000EF10B00135D59547E3F287F01305B00F32
:1005100085B7797152CC130A4044330A45034ECE55
:10052000B70900204AD09389890D3719002022D4B9
:1005300026D256CA5AC85EC662C406D62A8CAE8A6D
:100540008144014413090966894B338B4901834770
:10055000390003472900A207BA976358F41EB3076E
:10056000240103C717006314770383C747001147AB
:10057000637CF7002300EB00B307890083C7070003
:100580003E9442044180E1B72300FB00F5B7914659
:10059000E316D7FE638BE41A83C657000D476395B5
:1005A000E61803C76700854663EFE61403C77700C4
:1005B00063EBEB146319D70C93070011B387F402B4
:1005C000D297CE972382E70081460146A6855685BD
:1005D000EF10906BB307890083C7070013088008EA
:1005E000130720223E9493070011B387F402834837
:1005F000290042044180814601451143154E930E66
:10060000100233880403D297CE973307EC023A984E
:1006100033078900034617006303660C6371140DEA
:10062000834507002E9442044180631FC609034698
:10063000570083452700034F4700220693F2F50039
:100640007A96E2054206E185834F3700418263D7FF
:10065000050403476700338FA700B305A8002300F4
:10066000EF0203C7A700A1058605CE95050705057E
:10067000A3055F00A307FF012392C5002385E700C0
:100680001375F50F71B7E31777F593070011B3876B
:10069000F402D297CE97238277013DB73387D700F4
:1006A000A3045702A306F7033307D8004107060740
:1006B0004E972319C70003C78702850693F6F60FE6
:1006C00005072384E702A9B7E314D6F5034687009C
:1006D000034777002206518F2393E70015BF854714
:1006E000639FF60093070011B387F402D297CE9769
:1006F00003C747006315D7007D572381E7048504AE
:1007000093F4F40FA9B593070011B387F4027D5752
:10071000D297CE972382E700B307890083C70700EB
:100720003E9442044180E1BF13070011B384E40208
:1007300013074044B7070020330CEC02269C938437
:10074000870DE294FD572382F400B2502254925454
:100750000259F249624AD24A424BB24B224C0145FD
:100760004561828037170020834607669547639F5F
:10077000F6189307076683C61700854713070766B1
:100780006396F61883462700A5476391F6188346BB
:1007900037009947639CF6169306001113084044EE
:1007A00033080503B70800201386880D011122CEF7
:1007B00026CC4ACA4EC852C656C4B386D5025AC2BF
:1007C0005EC091470143814E014F014E9388880DD1
:1007D0001144C2963696835366000148930F000772
:1007E00093040008930200092149C149130A000239
:1007F000854A63E07704A147631DF30E9307001158
:1008000013074044B387F5023307E502BA97B3856F
:10081000F80083C7250481E785472381F5047244E6
:10082000E2445249C249324AA24A124B824B056104
:100830008280B306F70083C606008507C20793FBD4
:10084000C60013FB3600C18393F6060F638D8B023F
:10085000638B2B0763950B026393560263010802B7
:10086000B386EE03369342031353030163090E006C
:100870008346E60389E6230F5603A30FC603DA97E0
:10088000C207C183BDB7638BF60363EBDF00E5FAF4
:10089000B306F70003C80600611813381800C5B77F
:1008A00063899600E39D56FCB306F70083CE0600ED
:1008B000F9B7B306F70003CE0600D1B7B306F700C9
:1008C00003CF06006DBF638D3601E39A46FBE30854
:1008D00008FAB306F70083C60600A300D60445B79E
:1008E000E30F08F8B306F70083C606002300D6041A
:1008F00079B793070011B387F50293054044330598
:10090000B502AA97C6972381070411BF82805D7143
:10091000930740445ED6B30BF502A6C2B70400208D
:10092000CAC01389840D4EDE52DC56DA5AD862D41E
:100930006ECE86C6A2C466D26AD05E99034D090007
:10094000AA892EC4814D9384840D5E8A930A001176
:10095000371B0020154C630E0D06034409003304B9
:10096000A4411374F40FB30C540333874C0126973E
:100970000357670039C7DE9C13876C002697224512
:10098000BA8613060B66A2853AC6850DEF10D02AEB
:1009900093FDFD0F324715E9A285330454034E85BC
:1009A000D13313866C04269613050B665294269455
:1009B00083556400EF10E06813854C082695EF30EE
:1009C000E0007D1D137DFD0F79B7E37ABCFB130DAD
:1009D0008004B64026446A8596440649F259625A14
:1009E000D25A425BB25B225C925C025DF24D616165
:1009F0008280130740443305E502B7150020938732
:100A0000056603C6370083C72700B7060020220605
:100A10009386860D3E969385056681470943114866
:100A2000254E954E3695854863C4C70001458280A2
:100A30003387F500034F070083461700FA97C20774
:100A4000C183639C66000347470063F5E800230009
:100A50001501D9BF2300E500C1BFE39706FD034799
:100A60005700E313C7FD3387F50083461700E38D76
:100A700006FBE3DBC7FA034F0700FA97C207C183FF
:100A8000E393D6FF83462700139F8601135F8F41B0
:100A9000E35B0FFCBD8AA305D50083463700034FF7
:100AA0004700A307D5008346570003476700A20607
:100AB0002300E5020347A500FA96231AD50005078F
:100AC0002305E5004DB7797122D4371400204AD0B0
:100AD00006D626D24ECE52CC9307046403C55700E7
:100AE000093F2A8969EDB71400209387046683C5FE
:100AF000670013040464138A046699C5034544001F
:100B000013860466EF108015371900209307C96219
:100B100083C5E7001309C96299C5034544001386DC
:100B20000466EF10A0138345F90099C503454400FE
:100B300013860466EF1080128345090199C50345A9
:100B4000440013860466EF10601195490345440084
:100B50001306E10093850466EF10901D2A8929E9A8
:100B600003472A00914763E2E7042303E400814935
:100B70008544114A8347640063E3970403454400B6
:100B8000214693F5F40FEF10501801CDFD1485099F
:100B90001545C20493F9F90FEF302056C180636EFA
:100BA0003A018504C204C180F1B72303F400C1B740
:100BB000FD1993F9F90FE39B09F81309E00FB250FF
:100BC00022544A8592540259F249624A4561828010
:100BD000797106D622D426D24AD04ECE83C70500DC
:100BE000B3D7A740858B85C73719002093070964C1
:100BF000AA85AA8403C54700700013090964EF1091
:100C0000700B2A8431E98347E100858B81E7130467
:100C1000E00F99A0034549004146A685EF10900CCE
:100C20002A841DE9A949034549007000A685EF10F3
:100C300070081DE98347E10005041374F40F858BE8
:100C400081C7E31234FFE1B7A947E302F4FC83470D
:100C5000C1005944858BC5FF2285B250225492545D
:100C60000259F249456182802A84FDB7797122D404
:100C700006D626D24AD04ECE83C705001304E00F15
:100C8000B3D7A740858BC1CB3719002093070964E0
:100C9000AA85AA8403C54700114613090964EF1009
:100CA000D0062A842DE92945EF302045AD4903457A
:100CB00049007000A685EF10E07F29ED8347E10031
:100CC00005041374F40FC18BA9E3E31234FF034549
:100CD00049005146A685EF10F0000144AD49034597
:100CE00049007000A685EF10E07C0DE58347E10028
:100CF00005041374F40FC18B9DC7E31234FF8347BF
:100D0000C100858B91C7554531A0A947E311F4FC7B
:100D10001305E00F2A842285B250225492540259BE
:100D2000F24945618280A947E304F4FEC9BF41113D
:100D3000B717002022C42E862E84AA8503C54764D7
:100D400006C6EF10207719E98347140013F7270030
:100D500011E713F547003335A0000505B2402244E2
:100D600041018280397126DA9944B304950222DC6C
:100D700037140020930704645ECEB71B00204AD8C6
:100D80004ED652D456D2AD045AD006DE2A892E8AC7
:100D9000B289BE94294B13040464DE8A9385CB6226
:100DA0002685EF00905C1DC17D1B137BFB0FE317B5
:100DB0000BFE13055004F2506254D2544259B259FA
:100DC000225A925A025BF24B216182809944B30409
:100DD0009902294BA29483C5C40003C5B4008905B8
:100DE00093F5F50FEF00306F25E983C7C400154573
:100DF000A94489072300FA00194A330A4903EF304E
:100E0000C02F371B0020229A0345BA009306E10049
:100E10001306004093050B66EF00B05A31E59307C7
:100E20000B664E8693050B661385CA6203CA57008C
:100E3000EFF0CFD599473309F902A9444A94034505
:100E4000B400D285EF00706D3DD5FD1493F4F40F1E
:100E5000FDF41305900485B77D1B137BFB0FE31C8A
:100E60000BF61305600481BFFD1493F4F40FC9FC65
:100E700089B739716AC8130D0011338DA503930525
:100E80004044B70700204AD84ED65AD05ECE62CC36
:100E90006EC606DE3305B50222DC26DA52D456D2FF
:100EA00066CA3289368C8549094B6A95138D870D40
:100EB0002A9D034A0D0483443D04834A1D04D28DB8
:100EC0008D4B33844D411374F40F834C3D0463F711
:100ED000BA03338494413334800023028D04F250EA
:100EE0006254D2544259B259225A925A025BF24B7E
:100EF000624CD24C424DB24D21618280639F3D01D4
:100F00006286930530054A85EF30802233948D0048
:100F100005E1850D93FDFD0F6DB763906D0362864E
:100F2000930590034A85EF30A02065D5339489005E
:100F300033449401A3018D04E9BFE39C7DFD6286E7
:100F400093057004C5B7AA86130840442E85B28560
:100F50001306001133880603370700209307870D17
:100F6000011106CE1307870D3386C5024296B2974C
:100F700003C8E70303C637046303080483C7F70302
:100F8000A306C1002306F100894713064044231736
:100F9000F10093070011B386C6028548B387F502B6
:100FA0003388D7003A9803462804631E1601930637
:100FB000E1007000EF10004BF240056182802306D3
:100FC000C1008547D9B79305F00F0145E316B6FE7A
:100FD0009387A703B697034598028356E1007000F4
:100FE000B305F700EF00105DC1BF797126D24ECE78
:100FF00052CC06D622D44AD056CA5AC85EC662C45B
:10100000AA89AE84EFF0EFD02A8A41E1371400209C
:101010009307046683C5670091C513060466268599
:10102000EF00D043A6854E85DD30371900209307A9
:10103000C96283C5E7001309C96291C51306046636
:101040002685EF00B0418345F90091C5130604667B
:101050002685EF00B0408345090191C5130604665B
:101060002685EF00B03F1309404433892903B70AAE
:101070000020938A8A0D0144930B0011054C330B19
:10108000590183470B00636FF400B250225452851C
:1010900092540259F249624AD24A424BB24B224C14
:1010A00045618280B3077403CA97D69703C7470088
:1010B00063188701A38107042286A6854E856135C2
:1010C00005041374F40F75BF5971A6D2B71400202C
:1010D00003C50464EAC086D6A2D4CAD0CECED2CC90
:1010E000D6CADAC8DEC6E2C4E6C26EDE3D250547D2
:1010F0002A8D6313E50E138404642380A464A30281
:101100000400EFF02FAD2A8D69E1834614000D47EE
:101110006392E6028345440003455400F93505E136
:101120000D472380E4640146916537150140EF20A7
:10113000B05031A82546639EC6087132CDB75947D5
:10114000594D6306E50089472380F4642A8D83C6E0
:1011500004640947637ED72013870464034957005A
:1011600003471700371400208D46130404646316E8
:10117000D71C930B4044B30B7903370B0020130C9F
:101180008B0D8149130B8B0DB71D0020B3878B018D
:101190003EC6BE8C9387CB015ECA3ECE03C70C0011
:1011A00063F8E91C130700113387E90293864B08A3
:1011B000814ABA96B307DB003EC8D247330AF7002C
:1011C000F2475A9ABA973ECC6DA85947E301E5F821
:1011D00009472380E464A5BF3DF9138704640344F1
:1011E00057007D46814513850464EFE07FF51305C4
:1011F00040443304A402370500201305850D13066F
:10120000404481452295EFE0BFF3054631BF330CE2
:101210005A0183464C0203460C0263E1C606B3F64C
:10122000C602E2470345BC0013860D66B38557012D
:10123000DA952302DC029306E102EF0010322A8DD8
:1012400021ED0356E102424593850D662308CA103D
:10125000EF20607F83464A0005476391E60283568C
:10126000E10213860D66CE854A85213103474A0483
:1012700011C7834544004E864A85F131850A93FAA9
:10128000FA0F0347AA00E3E4EAF859476302ED0EB8
:10129000850993F9F90F19B7D947630BF50C930634
:1012A000E002E31DD5FC8345BC000345440093E503
:1012B0000508EF00902883C61C00230E0C0025466D
:1012C000850693F6F60FA380DC00E379D6FA7D4617
:1012D000814513850464EFE0BFE6EFF0AF8F2A8D00
:1012E00031E58345BC000345440093E50508EF0064
:1012F000D02432458547130640448145A3800C0025
:101300002380F464A3020400EFE09FE383454400DC
:101310004A85E1392A8D19E90D470146916537154E
:1013200001402380E464EF20303189BFD947E307CF
:10133000FDF409472380E46491B7A546631AD702F8
:10134000930540443309B902B7090020138A890D77
:101350009389890D4A9A03474A0283460A026378B1
:10136000D702014B371C0020034764006368EB1A67
:10137000B650265496540659F649664AD64A464B04
:10138000B64B264C964C064DF25D656182803377F4
:10139000D702034524007109B71400202302EA0292
:1013A000C92603453400D12E0345BA009306E10255
:1013B00013860466B3852901EF00301A2A8D55F192
:1013C00003C70466814D554CA306E1021949894CB7
:1013D0008D4A370B005003476400E3F4EDF8938B1C
:1013E0001D0013FAFB0F9305D1025285EFF04FFE5B
:1013F000D9472A8D6315F504B38D2D0385463397A0
:1014000076018346D1021347F7FF13064044758FD8
:10141000A306E10281453307B4010345C700130762
:1014200040449D0D3305E5024E95EFE07FD119460E
:1014300081453305B401EFE0BFD0D28D69BF1305FC
:101440004006EF20904B9305D1025285EFF01F82AA
:101450002A8D631C8509B3872D030547A297A383B3
:10146000E7002147A385E7002386470193850466AB
:101470005285EFF0DF8BB3872D03330DF400230586
:10148000AD0003459D00F12C0345AD00FD248347CD
:10149000340099C783471B0093F7B70FA300FB00E5
:1014A00033872D036E8513068700930597002296D8
:1014B000A2953AC6EFF01F8B32472A8DB30DE40098
:1014C00031E903C78D006314570583C5BD0003C50B
:1014D000CD00213E2A8D35F1A3835D010146916542
:1014E00037150140EF20501589BF0346D1028546CC
:1014F000339776011347F7FF718FA306E102338715
:101500002D03229703477700E319D7F285B7A3830A
:101510005D0125B7A3839D010546D1B79947B30463
:10152000FB028D46A29403C774006319D71083C6CB
:1015300084006395E61083CCC40093074044814A3D
:10154000B38BFC0293874B085EC8B38D79013ECC08
:1015500003C70D0063F4EA0E130700113387EA0294
:10156000E247014AB386E700B387D9003EC6C247C7
:101570009386CB013309F700B387E6004E993ECA44
:1015800079A8B306490103C7460203C6060263658C
:10159000C7083377C70203C594002382E602D1222D
:1015A00003C5A400D92A8347340089CB37070050EC
:1015B0008347170093F7B70FA300F700D2479306AE
:1015C000E10213060C66B3854701B307490103C561
:1015D000B700CE95EF0060782A8D29ED0356E10221
:1015E000324593050C662308C910EF20C045834699
:1015F000490005476392E6028356E10213060C6632
:10160000D6856685EFF0FF860347490411C783C579
:10161000B40056866685053A050A137AFA0F034721
:10162000A900E360EAF659476309ED00850A93FAD9
:10163000FA0F39BF5947E311E5FE594D050B137BEE
:10164000FB0F1DB3370700508347070093F7F70BD5
:101650002300F7008347170093F7B70FA300F700A5
:1016600083576703C207C18393F7F7BFC207C183DC
:10167000231BF7028280B707002003A74700411110
:10168000B747950806C69387074009456300F702E8
:10169000B7E7B8059387078005456309F700B77773
:1016A000DC02938707C06315F7000145EF20F009BE
:1016B000B2408545056541016F20D00A411122C421
:1016C00006C68547370400506310F5049947230088
:1016D000F4002945EF20101F930790F82300040021
:1016E0002300F40093078004A306F400B72700202A
:1016F000938707A61CCCB7270020938707AA5CCC4A
:10170000B24022444101828099472300F4002945D8
:10171000EF20501B23000400E5B737070050834734
:101720006700858B9DC385472303F70083465700D9
:101730008147858A81CE854711C989476307F500AE
:10174000034717008547058B11C389473E85828073
:10175000B707005003C557000581134515000589DB
:10176000828037070050834737001375F50793F7DA
:101770000708C98FA301F700828085476313F5002E
:10178000D1B5B707005003C70700136707042380CC
:10179000E70003C7170013674700A380E70003D7DC
:1017A000670313670740239BE7028280411122C42D
:1017B0002A84014506C675377135854763EE870073
:1017C000370700508347170093E72700A300F7006F
:1017D00001EC2D45EF2070123707005083471700AA
:1017E00093F7D70FA300F7000945EF201011B707B3
:1017F000005003C76700058B01CB03C75700058B5B
:1018000001C705472383E700B2402244410182809B
:101810003707005083475700858BA9C3411106C67F
:1018200022C483471700858B99E72A841537230044
:10183000A40011E19937B707005003C7170001450D
:1018400013671700A380E70003D76703B240224461
:1018500013674700239BE70241018280594582803C
:10186000797122D426D24AD04ECE52CC56CA5AC80A
:101870005EC662C466C206D66AC0B7070050A38DB2
:10188000B702416A2A8B3289238FB70293594500E8
:10189000814437040050894B394CA94AA54C7D1A24
:1018A000230C640323037401130D803E83476400FB
:1018B000898B91EB7D1D420D0545135D0D01EF20D8
:1018C0007000E3150DFE230C040283476400898B2E
:1018D00081E71305E00F41A08347740093F70704E5
:1018E000D1EF8347740093F7F70F13F5F7006309FF
:1018F00085096317550563080908630649017D19C1
:10190000420913590901FD1493F4F40F5145EF20D6
:10191000607B83476400858B81CF1305800CEF20AB
:10192000607A83471400858BB5C385472303F40091
:10193000850493F4F40FE39554F71305000221A8EE
:1019400063899903B5476385F9008547E393F9F8FF
:1019500055DD13650502B250225492540259F249E2
:10196000624AD24A424BB24B224C924C024D4561E4
:1019700082809D8B0D47E39DE7FC49BF0145E1BF98
:101980001305E002C9BF1305A002F1B75945E1B73D
:10199000797126D24ECEB284AA89130540064AD068
:1019A00006D622D452CC56CA5AC85EC62E89EF201B
:1019B000607199C02390040037040050A147896AE0
:1019C000231EF40213860A7181451305000D493D5B
:1019D000631D05149147A30DF402230FF402B727EA
:1019E0000020138707AA03546700138B07AA630D0F
:1019F000040E630B090E838707AA63C50706CE8B07
:101A0000C20993D90901370A0050938A0A71130554
:101A10004006EF20206BDE8763733401A287231E0C
:101A2000FA0281470357CA036396E7128345EA0324
:101A3000568641453535631A050E8347EA0393C739
:101A40004700230FFA028357CA031D8C42044180CA
:101A500081C88357CA0303D70400BA972390F400C0
:101A60005DF459A0372B0020370A0050938A0A7181
:101A7000130B0BA6FD1913054006EF20A064834548
:101A8000BA03568613050009E13B45E18347BA03D3
:101A900093C74700A30DFA0203578A00A287637613
:101AA000870083578A00C207C1831D8C420441808E
:101AB00091C403D704003E972390E4000147931696
:101AC0000701C182639ED7063E9983578A00C207E9
:101AD000C18399C783578A00B3F7F90091E341FCAA
:101AE000B7070050239E070213054006EF20805DD4
:101AF000B707005083D7C70313050009C207C18386
:101B000091E341450966130606719145913B11ED3C
:101B1000370700508357C703C207C18399C783574C
:101B20008700C207C18391C35D45B25022549254CD
:101B30000259F249624AD24A424BB24B4561828015
:101B4000B306670103C60600B306E9000507238054
:101B5000C600B5B7834609003307FB008507C207F7
:101B60002300D7000509C18375BD011122CC138460
:101B70008181184026CA4AC806CEA1472300F50035
:101B8000B727002023A0E7AA5840938707AAAA8472
:101B9000D8C3034505001306E1002E89D53B01EDAE
:101BA00083477900035764002380F4008357E100E2
:101BB00063F3E7005D45F2406244D2444249056167
:101BC0008280797122D4938701819843DC4326D2A5
:101BD000B72400204AD04ECE52CC06D623A0E4AA89
:101BE000138704AAB2895CC336862A8A2E8936C630
:101BF000453329EDB2469387018103D7670083D52A
:101C0000060063E4E5040347390083452900138691
:101C100004AA22074D8FBA8563F3E900CE85984365
:101C2000DC432390B60023A0E4AA5CC283D706005D
:101C30002254B2509254F249CA8552850259624ADE
:101C40002313F60036864561A1B35D45B250225498
:101C500092540259F249624A4561828079719387B0
:101C6000018256CA83AA070052CC03AA470026D293
:101C70004AD0B2843729002022D44ECE232059AB3B
:101C8000130409AA93E905301306E100A6855AC892
:101C900006D62A8B2322440123113401D53915E1BC
:101CA00083C70400232059AB232244011306E1001B
:101CB000A6855A852317F100231134012313F4005C
:101CC000C139B250225492540259F249624AD24A5E
:101CD000424B4561828013878182144358434111EE
:101CE000B727002022C426C223A0D7AA06C69387FE
:101CF00007AA2391B700AE84D8C30146814549396C
:101D00002A8411E52685B13C1545EF20003F228548
:101D1000B2402244924441018280138701831443DC
:101D20005843B727002023A0D7AA938707AA239157
:101D3000B700D8C301468145A1B9138781801443F8
:101D40005843B727002023A0D7AA938707AAD8C350
:101D50002392B7000146814525B9011122CC26CA3C
:101D60004AC806CE2E8483C505003289136505094D
:101D7000014636C6F534AA84B24615E5B7070050C9
:101D800003D68700B7250020938505A64206418229
:101D90002390C6004A85EF20403B8347040093C749
:101DA00047002300F400F240624426854249D244B1
:101DB00005618280011126CAAA843725002022CC21
:101DC000130505AA2E84B285368606CE36C6EF20C8
:101DD000C037B246B70700500146239ED70283455D
:101DE000040013E50401AD3C19E58347040093C7E3
:101DF00047002300F400F2406244D244056182802F
:101E00000346C51019EA054582800545B65026549B
:101E100096540659F649656182805971CECEA6D294
:101E200093858188AA8413050508A2D486D6CAD0D2
:101E300013848188EF10103B69D91309010113063F
:101E4000E003938524044A85EF20203083C73404BF
:101E5000050499E3138481888357C1018356E10106
:101E60000346A10183558101B3B6F6002285EF1028
:101E700090448357610283564102034621028355F1
:101E800001022316A100B3B6D7002285EF10B0429D
:101E90002317A1004A874A85814781450548114695
:101EA0008346870183489701A29683C60600B3F64E
:101EB000160191C6B316F800D58D93F5F50F850779
:101EC0000907E39FC7FC4A878147014885482146A7
:101ED0008346070203431702A29683C60600B3F6A1
:101EE000660099C6B396F80033E806011378F80F38
:101EF00085070907E39EC7FC7C00094E130FE00726
:101F00001303F007930E10F88356E5008358C500BD
:101F100033871641B34FC7033346E70303970700E0
:101F20006351170B23901701C69633C7C60383D698
:101F30000700998E1397060141839318070193D8E0
:101F40000841B386CF4023901701B30FC04063DF31
:101F5000F80732972390E7000397070033076702DB
:101F60003347D702420741876359D7072390D701E8
:101F700003D70700890721051307F707239FE7FE0B
:101F8000E314F9F80317C1009306F003894763D6F9
:101F9000E6009327170C93C717000317E100930679
:101FA000F00363C4E60493E787009205DD8DB7274D
:101FB00000202380B7AE938707AEA38007010145B9
:101FC000B1B5E3D3E6F62390D700B9BF6354160149
:101FD000118F49B72390070041B76345E300239071
:101FE000E70079B72390670061B79306000CE3DE42
:101FF000E6FA93E7470055BF411106C6113509C5FA
:102000000145B2404101828037250020130505AE0D
:10201000CDBF0D812301A600034506008D470D8924
:102020006318F50013F575006515133515008280EA
:1020300085476316F50013F5F5004515FDB77915CD
:10204000EDB791675971938747213EC69167938792
:102050000720A2D4A6D2CAD0CECED2CCD6CADAC855
:10206000DEC6E2C4E6C2EAC06EDEAA8AAE8986D6C1
:102070003284FD5CFD5DFD567D5D014F8145014E65
:10208000814E01490145014301488144FD58014CFD
:10209000014A014B854B8D4F3EC8639409000145B1
:1020A000ADAE83C20A0013D6220013D7420093F2CA
:1020B00032000D8A63950202FD19C209850A93D97F
:1020C00009018147630D0C0669FAA947631CF704EF
:1020D000050C8504137CFC0F93F4F40F7DBF83C7BC
:1020E0001A0063987201890AF919C20993D9090182
:1020F000D1BF83C32A00A2039E976385F2018D0A94
:10210000F519E5B783C23A0083C34A00ED19C2024C
:10211000E203B3E27200C209B3E7570093D90901A1
:10212000950A4DB7B147E31AF7F6FD147D1C93F4F9
:10213000F40F137CFC0FE3D214F7FD58B9BF630B07
:10214000761B01CE8942E31A56F46301772D6308AA
:102150000720E314C7F4CA976DAC21073D8B1146E5
:10216000E36FE6F242460A07329718430287630993
:102170000F0483470400858BA1C7330F6802130641
:1021800084010147B142137FFF0F9377F70F63FF7D
:102190006700B307E500C207C18393D337009D8B67
:1021A000B397FB0023007600A300F600050709069D
:1021B000E31D57FC230EE40363E56B0693E545003E
:1021C00093170801C18363C10D0603470400058B03
:1021D00005C3B38DB7032316D4012317C401230508
:1021E000040193E51500AA9D2314B40163D40C04E3
:1021F00063400D06034704000D8B631BF705338D09
:10220000A703230904032A9D2318A403B3876702A5
:10221000014FFD5CFD5D7D5D3E95420541810149BB
:10222000ADBD93E5C50069BFE3C40CFC03470400E2
:10223000058B5DDFB38C9703231AD401231BC401E4
:102240002309040193E52500AA9C231894014DB7A6
:10225000E3CE06FA034704000D8BE31977FBB38640
:10226000D702231CD403231DC403230B0403AA9603
:10227000231AD402FD5659BF850493F4F40F6397D3
:102280007701050B620B135B8B4151BF91E7050A88
:10229000620A135A8A4161B70947E38AE7FE014996
:1022A000054CE5BBFD1493F4F40F63D31401FD5802
:1022B00063070A007D1A620A135A8A41F9BB36D6AF
:1022C00046D47AD276D01ACE72CC42CAE3090BDC5D
:1022D0007D1B620B2286135B8B41253B631E05121F
:1022E00081455248624E7243825E125FA258B256D6
:1022F0008D4F65B32546E364E6DA32460A07329726
:10230000184302871386B7FF1D47636EC700130784
:10231000D0083357C700058BE31107D82547E39E44
:10232000E7D6054F9DBBE39A77D7E3D808D69398B5
:10233000840193D8884195B3939E070193DE0E01E3
:10234000A9BB139E0701135E0E0181BB13F8F70FA3
:10235000A9B3A300F40091B313F3F70F3DBBA9E0B9
:102360001947639EE70083470400F19B93E727002A
:102370002300F400050942091359090139BB639888
:10238000C70083470400F19B93E71700D5B7138775
:10239000C7FF63E7EB008347040093E73700C9BF3B
:1023A000E38A77FD138707FD63E3EB02E3040BFC8D
:1023B00003470400058B5DDF131789011306000333
:1023C00061876394C700BA8D75B7BA8C65B7130778
:1023D0009003639EE700E30F0BF8834704008D8BA7
:1023E000E39AF7F9131D8901135D8D4161B7130756
:1023F0008003E391E7F8E30F0BF6834704008D8B2E
:10240000E39A77F793168901E186ADB70509B3071B
:10241000F940139907018DB70545B65026549654D7
:102420000659F649664AD64A464BB64B264C964C58
:10243000064DF25D65618280138781833288104387
:102440005843B727002023A0C7AA938707AAD8C359
:102450002392B70003D706003686C2852393E70090
:102460006FF00FD313870184328810435843B72786
:10247000002023A0C7AA938707AAD8C32392B70036
:102480003686C2856FF0CFD013878184032807007A
:102490005843B727002023A007AB2206938707AA3B
:1024A000D18ED8C32392B7002391D700014681452E
:1024B0006FF00FCE13870186B28610435843011187
:1024C000B727002006CE23A0C7AA938707AAD8C3A0
:1024D0002392B7001306E100B685EFF06FCBF24010
:1024E000056182801387018514435843B727002074
:1024F00023A0D7AA938707AAD8C32391C700239202
:10250000B700014681456FF0AFC813878186144339
:102510005843B727002023A0D7AA938707AAD8C378
:102520002391C7002392B700014681456FF04FC643
:102530009387818598430111DC4322CC3724002006
:102540002320E4AA130404AA26CA4AC84EC606CE0B
:10255000AA89AE8432895CC0EFF08FC315E183C7CE
:102560000400F2404A862310F9002313F400624469
:102570004249A6854E85D244B24905616FF04FC1EC
:10258000F2406244D2444249B24905618280034626
:10259000C51041CE411122C437240020930544AE1A
:1025A0001305050806C6EF10E04335CD834744AE5A
:1025B0003725002013F7170093D61700230AE5AE3E
:1025C000858A130745AFA300D70093D62700858AD5
:1025D0002301D70093D63700858AA301D70093D66D
:1025E0004700858A2302D70093D65700858AA30225
:1025F000D70093D667009D83858AA303F7009307CE
:1026000044AE2303D700130545AF9386670003C686
:10261000270085070507A303C700E39AD7FEB2404A
:102620002244410182800145DDBF014582807971EC
:1026300006D622D426D24AD04ECE52CC0349C5105B
:10264000631B09000545B250225492540259F249C5
:10265000624A45618280B72400202A842146814550
:10266000138504B1EFD0DFAD4A86938504B113051D
:102670000408EF10203779D583473404938404B1DC
:1026800089C7B7240020938414B18357E404835688
:1026900004050346C4048355A404B3B6F600268596
:1026A000EF106041835664058357840583552405E4
:1026B00003464405131A0501B3B6D700135A0A415D
:1026C000268523164101EF10003F9319050193D988
:1026D0000941231731019306A40501470149054526
:1026E000914503C6060083C71600269603460600DA
:1026F0007D8E19C63316E500B367260113F9F70F6F
:1027000005078906E31FB7FC8357C4078356A40750
:102710000346840783556407B3B6D7002685EF10B8
:1027200080390347240485470D8B6319F708130785
:10273000F007635547012316E10029A0130700F8AD
:10274000E34BEAFE1307F007635537012317E10057
:1027500029A0130700F8E3CBE9FE2A87420541854B
:10276000930700F86354F500130700F88357C1007E
:10277000B7260020138646B02392F6B08357E100B7
:102780009355190085892311F600937719002302C8
:10279000F60093572900858B2303F600BA87A3021E
:1027A000B6001396070141861307F007938646B0DB
:1027B0006354C7009307F0072394F600014561B501
:1027C000411106C6AD3509C50145B24041018280BF
:1027D00037250020130545B0CDBF7300203001A080
:1027E00013050040EF10E04F19C5EF00B068130566
:1027F0000040EF10E0507300203045C1411106C683
:1028000022C426C203460500B71401402A84134699
:10281000F6FF138504C0058A8565EF10E061034665
:102820000400138504C0896505821346F6FF058AF6
:10283000EF10806003460400138504C0916509828F
:102840001346F6FF058AEF10205F03460400138548
:102850000480930500100D821346F6FF058AEF10E1
:10286000A05D03460400138504C0A16511821346D0
:10287000F6FF058AEF10405C034604002244B24094
:102880001982138504C092441346F6FF8565058AB4
:102890009385058041016F10205A82805D718545C6
:1028A000114586C6A2C4A6C2CAC04EDE52DC56DAA4
:1028B0005AD8EF10006D85452145EF10806C854595
:1028C0004145EF10006C85450545EF10806B0546CE
:1028D0009165371501403714014002CA02CC02CE7F
:1028E000EF108055130504C001468565EF10C054F4
:1028F000130504C001468965EF100054130504C098
:1029000001469165EF10405313050480014693057D
:102910000010EF106052130504C00546A165EF10CA
:10292000A051056A93050A80130504C00546EF10FF
:10293000A05093050A80130504800546EF10C04F90
:102940001305048005468565EF10004F13050480CC
:10295000054693050040EF10204E13050480054600
:102960008965EF10604D0546130504809165EF10F1
:10297000A04C8D444149916A4C0837150140231AF7
:1029800051014ACE26CCEF104038E1774C081305B0
:1029900004C0231AF1004ACE26CC8569EF10E03638
:1029A000938909804C08130504C0231A31014ACECB
:1029B00026CCEF1080354C08130504C0231A4101C2
:1029C0004ACE26CCEF106034096B4C08130504C0C6
:1029D000231A61014ACE26CCEF1020334C08130590
:1029E00004C0231A51014ACE26CCEF1000329307BF
:1029F00000104C0813050480231AF1004ACE26CC9F
:102A0000EF10A0304C0813050480231A410126CC96
:102A100026CEEF10802F51494C0813050480231A4D
:102A200031014ACE26CCEF10402E930900404C08CD
:102A300013050480231A31014ACE26CCEF10E02C76
:102A40004C0813050480231A51014ACEEF10E02BE5
:102A50004C0813050480231A61014ACEEF10E02AC6
:102A60008545054502D002D202D402D602C602C86C
:102A7000EF10205185452145EF10A05093078004A9
:102A80004C08130504C03ECE231A3101EF10E02795
:102A9000A9450545EF10203D9307004005443ED071
:102AA0000810B1473ED422D602D2EF10E01C9307A3
:102AB000801368002307810022C82316F100EF105D
:102AC000403DB640264496440649F259625AD25ACD
:102AD000425B6161828011679306C72381471307B8
:102AE000C7231306200783C506006397A500860742
:102AF000BA9703C51700828085078906E395C7FE4C
:102B000082800111B707002006CE22CC26CA4AC80F
:102B10004EC652C456C25AC01307200693870700F8
:102B20006306E502130780066306E51471478144D6
:102B30006319E50213873187834607006391061600
:102B4000638B0514238007008D4421A81387018718
:102B50008346070063950610638F051223800700E4
:102B6000854493C5F5FF13141500858903C7070035
:102B7000C18D13F4F50F6307870E0569B71901407E
:102B80009305098013850980054623808700EF108F
:102B9000A02A93050980014613850980EF10C029FA
:102BA00013054006EF100052930509801385098034
:102BB0000546EF10602813054006B71A0140EF10D4
:102BC000605013090980A3880186138A0A809389BB
:102BD00011871D4B93178401E187014663C30700EA
:102BE0000546CA855285EF1020252945EF10804DF6
:102BF000014685655285EF1020242945EF10804C51
:102C0000054685655285EF1020232945EF10804B3E
:102C100083C7090006041374F40F850793F7F70FB1
:102C20002380F900E378FBFA13054006EF10804992
:102C3000856513850A80054693850580EF10C01FC2
:102C400013054006EF100048F240624426854249D1
:102C5000D244B249224A924A024B0561828089C518
:102C6000238007008144CDB723000700238007009D
:102C70009144C5BD138721878346070091E681CD26
:102C8000238007008944F1BDE1FD23000700238074
:102C900007009544F9B585462300D700D1B7E9F17F
:102CA0002300070023800700994465BD411126C217
:102CB000B714014022C44AC006C6294413890480BF
:102CC0007D140146930500404A851374F40FEF10FC
:102CD000A0167DF413850480054693050040EF108F
:102CE000A0150146856513850480EF10E0141305D7
:102CF000401FEF1080401385048005468565EF1066
:102D0000A013B70700207D572380E70023880186A2
:102D1000B240224423890186A38901869244024954
:102D200041018280411122C43714014013050480FF
:102D30000146896506C6EF1020100146916513050E
:102D40000480EF10600F2945EF10203B130504802D
:102D500005468965EF10400E130504802244B240F9
:102D60000546916541016F10200D630C0520034756
:102D70008500930750046313F7006DB78347050080
:102D80008546639BD700834625006397F60093062C
:102D9000C0046313D70019BF034735008546631A83
:102DA000D700834675006396E6000347450065F744
:102DB000FDF3397122DC26DA4AD806DE4ED61387B7
:102DC000818C83451500034717002A843E8993842C
:102DD000818C630AB7001305100EA380B4002EC6C1
:102DE000DD39B245393B8345240083C72400638A1B
:102DF000B7001305200E2381B4002EC6E939B24571
:102E000009338345040083C70400638AB7001305B0
:102E1000000E2380B4002EC67D39B245DD318345D6
:102E2000340083C73400638AB7001305300EA381D2
:102E3000B4002EC64D31B245E9318345540083C7F5
:102E40005400638AB7001305500EA382B4002EC647
:102E50005931B2457D318345640083C76400638A7C
:102E6000B7001305600E2383B4002EC6AD31B24502
:102E700049398345440083C74400638AB70013057A
:102E8000400E2382B4002EC6B931B2459D39834528
:102E9000740083C77400638AB7001305700EA383A0
:102EA000B4002EC60D39B245A93902C8231A010053
:102EB00002CC231E0100138864009387818C014695
:102EC0001305E40083C8870013078400BA86814590
:102ED00003C306006313130185458506E39AA6FE26
:102EE00091E51410B296238C16FF05068507E39B27
:102EF00007FD814683450700A687014683C88700F2
:102F00006393B80005468507E31AF8FE11E61C1026
:102F1000B6972388B7FE85060507E31DE5FC014942
:102F200099493C08CA9703C5070011C5EFF0BFBA1D
:102F30008145EFF01FBD0509E31539FF01499949A6
:102F40001C08CA9703C5070011C5EFF0DFB8854517
:102F5000EFF03FBB0509E31539FFA1473947B30639
:102F6000F40003C60600B386F40085072380C6007C
:102F7000E397E7FEF2506254D2544259B2592161AC
:102F800082808280397106DE22DC4AD84ED652D445
:102F900066CA26DA56D25AD05ECE62CC6AC86EC6EF
:102FA000EF10A00FB707002083A54700896793871C
:102FB0000771B3D5F5022545371A002037090020DF
:102FC000930C0A641304890D93090011FD15C205C1
:102FD000C181EFD06FA1EFE00FEA0545EFE00FEE02
:102FE0007D46814513050A64EFD08F95056613066B
:102FF000465581451305890DEFD08F94EF00100CD5
:10300000130A0A64EF00D011EFF05F8931220D4BF3
:10301000854BEFE06F8B83C71C00638D670103470F
:103020001A00A547E317F7FE854A130B890D054DD6
:103030008D4DD9A8930A890D8144094D114CB38750
:103040003403A29783D767048D8B63977701138529
:103050004A00EFF0EFF6C12AB3873403A29783D773
:1030600067048D8B6398670113854A00EFE0DFF8F2
:10307000EFF0AFF8B3873403A29783D767048D8B43
:103080006397A70113854A00EFF06FD0F9398504E3
:10309000938A0A11E39584FB59B7B3863B03A6963E
:1030A000DA9683D666048D8A6397A60133058B0171
:1030B000EFF00FF18D2AB3863B03A696A29683D636
:1030C00066048D8A6398B60133058401EFE0DFF270
:1030D000EFF0AFF2B3863B038947A696A29683D65C
:1030E00066048D8A6398F60033058401EFF02FCAD9
:1030F000EFF0BFC7850B9147130C0C11E39FFBF852
:10310000850A9547E385FAF093074044B384FA02B1
:10311000814B138C440051B737250020130585B12E
:103120006F00D00A6356A00A89C685476303F5007D
:103130000585420541818DE59387618703D70700A7
:103140003A95420541852390A7001387618703576D
:1031500007009306C012938761874207418725A025
:103160009387818703D707003A95420541852390CD
:10317000A70013878187035707009306C012938720
:1031800081874207418763D4E6002390D70003D5A7
:1031900007001307F00793170501C1836362F7085F
:1031A0001305F00F9DC30965130505713345F5023D
:1031B00019817D154205418109CA1947AA876373A0
:1031C000E50099471395070141811375F50F82803A
:1031D00029C199C6FD576305F50089473345F502B6
:1031E0004205418181ED138761878357070033854D
:1031F000A740420541852310A70081BF138781871F
:10320000835707003385A740420541852310A70057
:103210008DB781E5239B01860DBF239C018691BF5D
:103220009307F00749B76306051C0317050079717A
:1032300006D622D426D24AD04ECE6354E0109387CD
:10324000418783C60700E206E186639B0610239B45
:10325000018685462380D7002A841315870181467D
:103260000146814561857D3DB7070020A380A70009
:10327000030524008146014685456D35030644005B
:10328000B70700202381A700371501401336160029
:10329000A165130505C0EF00303A9387C18783C746
:1032A0000700A30701008314840093F7F70F138925
:1032B000C18785E78309640085476390F902372554
:1032C0000020B54705469305F100130585B1A30716
:1032D000F100EF00407723003901834709000547DB
:1032E000631AF7028307640095E7B7290020B947FE
:1032F00005469305F100138589B1A307F100EF009E
:10330000807405469305F100138589B1EF00A07321
:103310002300090083178400C9E303065400856570
:10332000371501401336160093850580130505C037
:10333000EF009030B250225492540259F249456144
:10334000828019CF9387418783C607000546E2062E
:10335000E1866397C600239B018623800700EDBDAD
:1033600083172500635DF0009387518783C60700AC
:10337000E206E186E39206EE239C0186D9BDE38D49
:1033800007EC9387518783C607000546E206E1866E
:10339000E394C6EC239C0186C9B713D7F441B98CDA
:1033A000998C93F4F40F6354F002AD47A307F10036
:1033B0000149B7290020E30299F605469305F1007B
:1033C000138589B1050941251379F90FEDB79D479B
:1033D000A307F1000149B7290020E30099F405464D
:1033E0009305F100138589B10509B12D1379F90F02
:1033F000EDB78280411126C29387618783D707008A
:1034000022C406C6C207C1871384A187635AF0107D
:103410008347040093846187E207E18789EB3715CE
:10342000014001469165130505C0EF00F020834778
:1034300004000547E207E187639AE700371501407A
:1034400001468565130505C0EF00101F8347040082
:103450000947E207E187639AE7003715014005460F
:103460009165130505C0EF00301D834704000D472B
:10347000E207E187639AE700371501400546856555
:10348000130505C0EF00501B138741870347070052
:10349000938741876207618741E3034704007D17F3
:1034A000620761872300E40003D7040085467D1787
:1034B000420741872390E40003C707006207618742
:1034C000631BD700034704008D466207618763D4FE
:1034D000E6002300040083C70700E207E18791EBC1
:1034E00083470400E207E18763D507008D47230087
:1034F000F400B70700209387170003C7070013776E
:10350000F70F15E3B707004005472396E702B240DF
:10351000224492444101828003470400050749B7D1
:1035200023000400F9B783C70700370700402316BC
:10353000F702F1BF411126C29387818783D7070025
:1035400022C406C6C207C1871384B187635CF0102A
:10355000834704000D4793848187E207E187639ADC
:10356000E7003715014005468965130505C0EF00E2
:10357000B00C834704000947E207E187639BE7003B
:103580003715014005469305001013050580EF002F
:10359000B00A834704000547E207E187639AE70022
:1035A0003715014001468965130505C0EF00D008B5
:1035B00083470400E207E18791EB3715014001469C
:1035C0009305001013050580EF001007138751873E
:1035D00003470700938751876207618741E30347E9
:1035E00004007D17620761872300E40003D704000D
:1035F00085467D17420741872390E40003C70700F3
:1036000062076187631BD700034704008D4662078A
:10361000618763D4E6002300040083C70700E20744
:10362000E18791EB83470400E207E18763D5070058
:103630008D472300F400B70700209387270003C7B6
:1036400007001377F70F15E3B71700400547B2409F
:1036500022442396E782924441018280034704007A
:10366000050749B723000400F9B703C70700B717D8
:103670000040F1BF797122D4371401401305048052
:1036800006D626D24AD04ECE52CCA3070100EF0078
:10369000E0782A89130504C0EF004078AA84372512
:1036A000002005469305F100130585B1252E85659B
:1036B000014693850580130504C0EF00E07783473A
:1036C000F10095EB05468565130504C0EF00C07653
:1036D00005468965130504C0EF000076054691652F
:1036E000130504C0EF00407505469305001013054F
:1036F0000480EF0060740347F100AD47631DF702DB
:103700003714014001468565130504C0EF00C072FF
:1037100001468965130504C0EF00007205469165F6
:10372000130504C0EF004071054693050010130512
:103730000480EF0060700347F1009D476319F702B2
:103740003714014005468565130504C0F52501467B
:103750008965130504C0CD2501469165130504C094
:10376000E12D05469305001013050480F12503475C
:10377000F100B5476319F70237140140014685652A
:10378000130504C0552D01468965130504C06D2538
:1037900005469165130504C04525014693050010B3
:1037A00013050480512D0347F100B9476319F7024F
:1037B0003714014005468565130504C0B52D014643
:1037C0008965130504C08D2D01469165130504C05C
:1037D000A52501469305001013050480B12D37146B
:1037E0000140130A04C08549930500405285112DFC
:1037F000E31C35FFCA8513050480A12DA68513059A
:1038000004C0812DB250225492540259F249624AA6
:1038100045618280B71702409843B706FFF81367E7
:10382000170098C3D843758FD8C39843B706F7FEDF
:10383000FD16758F98C39843B706FCFFFD16758F6C
:1038400098C3D843B70681FFFD16758FD8C33707D5
:103850009F0098C7B746024003A706801367070179
:1038600023A0E680D843B706C1FFFD16D8C3D843CE
:10387000D8C3D84313670740D8C3D843758FD8C37C
:10388000D843B7063C00558FD8C39843B70600010C
:10389000558F98C3984393166700E3DD06FED8431F
:1038A000B7160240719BD8C3D84313672700D8C30B
:1038B0002147DC42B18BE39EE7FE8280797185452A
:1038C000054506D602CA02CC231E010002C602C864
:1038D000C12D95679387F7913ECA4C089307803EA8
:1038E000370500403ECCE12D0546854537050040B3
:1038F000AD279307C0422316F10085472307F10047
:10390000680085473EC87123854537050040052F6F
:10391000B250B7E700E0056723A2E7104561828057
:1039200079718545114506D622D402CA02CC231EE0
:10393000010002C602C8AD25956737140040938781
:10394000F7913ECA4C089307803E130504803ECC95
:10395000BD25054685451305048001279307E03200
:103960002316F10085472307F100680085473EC80C
:103970000D23130504808545D925B2502254B7E79D
:1039800000E0116723A2E710456182808545370575
:103990000040F92D19C5EFF0FFA58545370500401A
:1039A000F52573002030411122C6371400408545AB
:1039B00013050480752D19C5EFF0DFB78545130594
:1039C0000480E92532444101730020309307000848
:1039D0002314F5009307B5002322050023050500F5
:1039E0001CC182800347A500AA8709C72385070059
:1039F0003285828005472305E5008146139506013F
:103A00004181E375C5FE03D8670003D7470063090A
:103A1000070398434297034507003387D5002300E7
:103A2000A70003D7670003D5870005074207418336
:103A30002393E7006314E5002393070085067DBF09
:103A40002385070082800347A500AA8709C723852D
:103A500007003285828005472305E50081461395DE
:103A600006014181E375C5FE03D8470003D767000F
:103A7000930818006387E80003D387006396680003
:103A800001E72385070082803387D50003450700BF
:103A9000984342972300A70003D7470003D5870028
:103AA0000507420741832392E7006314E500239250
:103AB000070085066DB713D835001378F80F9D8978
:103AC000B30805019307F00F13F7F50FB397B7008D
:103AD00083C50800A148B388E840ED8F93F8F80F3C
:103AE000B3D7E7406366160793051800130886FFEF
:103AF000C207429793F5F50FC1831377F70F9D4ED9
:103B0000130FF00F214E21CF1308F00F63E8EE00E2
:103B10003308EE4033580F411378F80F1383150024
:103B2000AA9583C505001373F30F3378B8003318D3
:103B30001801C297C207A108C18393F8F80FBA858C
:103B40006373EE00A1450D8F1377F70F9A8565BF5C
:103B500005453315C5007D15E98FC207C18385C2B0
:103B60001307F6FF05463316E6004206418233F797
:103B7000C70011C7D18F06064206418265FE3E8509
:103B8000828001A001A001A001A001A001A001A0CC
:103B900001A001A001A001A001A001A001A001A01D
:103BA00001A001A001A001A001A001A001A001A00D
:103BB00001A001A001A001A001A001A001A001A0FD
:103BC00001A001A001A001A001A001A001A001A0ED
:103BD00001A001A001A001A001A001A001A001A0DD
:103BE00001A001A001A001A001A001A001A097D106
:103BF000FF1F938121C1171100201301A140170558
:103C000000001305257297C5FF1F9385A53F1386F6
:103C1000018763FAC5008322050023A05500110522
:103C20009105E3EAC5FE1385018797E5FF1F93859C
:103C3000A5F76377B500232005001105E36DB5FEF8
:103C4000FD42739002BC8D427390428093028008C3
:103C500073A0023097C2FFFF9382423E93E232008C
:103C600073905230EFF01FBB97F2FFFF9382C23187
:103C700073901234730020305841032805004C45DE
:103C800037060140930706403E979346F8FFB1C5BB
:103C900083250640F58D2320B640D043F18ED4C352
:103CA0001443B3E6060114C3184190479346F7FF47
:103CB000758E90C7D047F18ED4C71445414663999D
:103CC000C6009447D98E94C7D447558FD8C78280F1
:103CD000B6979443558F98C382801C43F58F1CC3BD
:103CE0008280B70701401387074083A70740584BDE
:103CF000698F09C77D8D3335A000828001458280A0
:103D0000B707014023AAA74082809C4513F707010B
:103D100013F8F70001C7D8413368E800372702409D
:103D2000145B3707000F758F45EF8546A38ED1864C
:103D3000371701406317E50003D70500358323904B
:103D4000E50083D5050013F7F50F39C31841814607
:103D5000854E3D4F930F800293028004214E33968F
:103D6000DE00B3F8C50063111603939826003313E1
:103D70001F011343F3FF3377E300B318180133E750
:103D8000E8006397F70750C98506E39AC6FD18C196
:103D90001307F00F6375B70454412146854E3D4F1C
:103DA000930F800293028004414EB398CE0033F704
:103DB00015016392E8021317260001173313EF0071
:103DC0001343F3FFB376D3003317E800D98E63951E
:103DD000F703232A15010506E319C6FD54C18280A5
:103DE00037170140E31FE5F403C7D18739DBA9B7D3
:103DF000E39C57F810C949BFE39F57FC23281501DE
:103E0000D9BFB71701406316F50083C7D18791C3A7
:103E1000B58108456D8D3335A0008280B71701400C
:103E2000631AF50083C7D18791C748453605420517
:103E3000418182804845E5BFB71701406316F50010
:103E400083C7D18791C3B58119C20CC982804CC97F
:103E50008280B71701406316F50083C7D18791C3ED
:103E6000B5814CC5828013F7C50F93F73500B705B0
:103E70000140BA9594458A073D473317F700134729
:103E8000F7FF758F98C598453315F500598D88C58E
:103E900082809387018894430347050089E683471E
:103EA0002500920731A8944305466391C6048347D1
:103EB00025000346150092076314D60093E707F820
:103EC000B7E600E093F7F70FBA962380F6408546F1
:103ED000935757003397E6005441ADC693870704C4
:103EE0008A07B7E600E0B69798C382808C4389467C
:103EF0006393D50283461500834725006365D6008A
:103F00008A06B69779BF9386E6038A06B69793F733
:103F1000F70F920765B790438D46631ED600834620
:103F20001500834725006364D6008606D9BF9386B3
:103F3000C6078606E1BF94439147E39AF6F88347A4
:103F4000150085B79387070661BFB7170240D843AE
:103F5000B70640FFFD16758FD8C3D8435A05598D53
:103F6000C8C3828099C5371702405C4B5D8D48CB32
:103F70008280B7170240D84B1345F5FF798DC8CB27
:103F8000828099C5371702401C4F5D8D08CF828013
:103F9000B7170240984F1345F5FF798D88CF82807F
:103FA00099C5371702405C4F5D8D48CF8280B717A7
:103FB0000240D84F1345F5FF798DC8CF82808357D3
:103FC000050037370140130707C0C207C1836304E8
:103FD000E502370700406300E50213070740630C62
:103FE000E50037170040930607806306D5001307E6
:103FF00007C06317E50003D7250093F7F7F8D98FBB
:1040000003D7650093F7F7CFC207C183D98F231079
:10401000F50083D745002316F50283D70500231446
:10402000F502B7370140938707C06316F50083C7D1
:1040300085002318F5028547231AF50082808357EF
:10404000050091C593E717002310F5008280C20791
:10405000C183F99BC207C183C5BF8357C50009C689
:10406000DD8D2316B500828093C5F5FFFD8DD5BF8C
:10407000835705010355C500ED8F4205418189C76E
:104080006D8D3335A00082800145828093C5F5FF98
:10409000C205C1812318B5008280B707002083A71D
:1040A000470037177A0013070720B3D7E70293F7C3
:1040B000F70F2383F1881307803EB387E70223922B
:1040C000F1888280B7F700E0D8438146799BD8C356
:1040D00003C761883306A70290CBD4CB98431367FC
:1040E000070198C398431367170298C3D843058BF9
:1040F00075DF9843799B98C38280B7F700E0D84377
:104100008146799BD8C303D741883306A70290CB59
:10411000D4CB98431367070198C3984313671702DA
:1041200098C3D843058B75DF9843799B98C38280E9
:1041300093F5F50F2A966314C500014582808347E5
:104140000500E38DB7FE0505FDB7B3C7A5008D8B50
:104150003307C50081E78D4763EEC700AA87637008
:10416000E50A83C6050085078505A38FD7FEE3EA28
:10417000E7FE828093763500AA8791CA83C6050040
:1041800085078505A38FD7FE93F63700FDB7937695
:10419000C7FF138606FE63F0C70683A3050083A24C
:1041A000450083AF850003AFC50083AE050103AEB4
:1041B000450103A3850183A8C5019385450223A07A
:1041C000770003A8C5FF23A2570023A4F70123A665
:1041D000E70123A8D70123AAC70123AC670023AEB8
:1041E00017019387470223AE07FF75B790419107E8
:1041F000910523AEC7FEE3EBD7FEE3E4E7F682804A
:104200006E2100009A200000782200009A20000011
:10421000A4220000042300003823000042230000F1
:104220009A2000009A2000009A2000009A200000A6
:104230004C230000522300005823000035001E01CB
:104240001F0220032104220523062407250826092E
:10425000270A2D0B2E0C310D640D620F14101A114C
:104260000812151317141C1518160C171218131909
:104270002F1A301B591D5A1E5B1F042016210722BE
:1042800009230A240B250D260E270F283329342A4B
:1042900028445C2D5D2E5E2F88301D311B32063385
:1042A0001934053511361037363885383739383AEC
:1042B0005F3D603E613F2C402A412B4258439E2B7C
:1042C00029454C46564A524C514D4F4E504F3A504C
:1042D0003B513C523D533E543F5540564157425846
:1042E00043594A5A4D5B545C555D575E455FE160EA
:1042F000E5613962E063E264E665E366E767E46727
:10430000655F633C5368460E471C482C4B3F4E1F6D
:10431000494B005B006A006B006C006D006E006F23
:10432000FF010100004495080201000000000000A8
:104330008006000200000400800600010000120058
:1043400080060003090404000005000000000000CE
:1043500000090000000000008106002200000000AB
:104360002109000200000100210A000000000000F5
:104370002301000000000000A00600290000020048
:10438000A300000000000400230300000000000060
:00000001FF
